{
	"data": {
		"bytecode": {
			"linkReferences": {},
			"object": "608060405234801561000f575f5ffd5b50604051610fdf380380610fdf833981810160405281019061003191906101c7565b815f908161003f919061044d565b50806001908161004f919061044d565b50614e20600281905550600160035f6101000a81548160ff021916908315150217905550505061051c565b5f604051905090565b5f5ffd5b5f5ffd5b5f5ffd5b5f5ffd5b5f601f19601f8301169050919050565b7f4e487b71000000000000000000000000000000000000000000000000000000005f52604160045260245ffd5b6100d982610093565b810181811067ffffffffffffffff821117156100f8576100f76100a3565b5b80604052505050565b5f61010a61007a565b905061011682826100d0565b919050565b5f67ffffffffffffffff821115610135576101346100a3565b5b61013e82610093565b9050602081019050919050565b8281835e5f83830152505050565b5f61016b6101668461011b565b610101565b9050828152602081018484840111156101875761018661008f565b5b61019284828561014b565b509392505050565b5f82601f8301126101ae576101ad61008b565b5b81516101be848260208601610159565b91505092915050565b5f5f604083850312156101dd576101dc610083565b5b5f83015167ffffffffffffffff8111156101fa576101f9610087565b5b6102068582860161019a565b925050602083015167ffffffffffffffff81111561022757610226610087565b5b6102338582860161019a565b9150509250929050565b5f81519050919050565b7f4e487b71000000000000000000000000000000000000000000000000000000005f52602260045260245ffd5b5f600282049050600182168061028b57607f821691505b60208210810361029e5761029d610247565b5b50919050565b5f819050815f5260205f209050919050565b5f6020601f8301049050919050565b5f82821b905092915050565b5f600883026103007fffffffffffffffffffffffffffffffffffffffffffffffffffffffffffffffff826102c5565b61030a86836102c5565b95508019841693508086168417925050509392505050565b5f819050919050565b5f819050919050565b5f61034e61034961034484610322565b61032b565b610322565b9050919050565b5f819050919050565b61036783610334565b61037b61037382610355565b8484546102d1565b825550505050565b5f5f905090565b610392610383565b61039d81848461035e565b505050565b5b818110156103c0576103b55f8261038a565b6001810190506103a3565b5050565b601f821115610405576103d6816102a4565b6103df846102b6565b810160208510156103ee578190505b6104026103fa856102b6565b8301826103a2565b50505b505050565b5f82821c905092915050565b5f6104255f198460080261040a565b1980831691505092915050565b5f61043d8383610416565b9150826002028217905092915050565b6104568261023d565b67ffffffffffffffff81111561046f5761046e6100a3565b5b6104798254610274565b6104848282856103c4565b5f60209050601f8311600181146104b5575f84156104a3578287015190505b6104ad8582610432565b865550610514565b601f1984166104c3866102a4565b5f5b828110156104ea578489015182556001820191506020850194506020810190506104c5565b868310156105075784890151610503601f891682610416565b8355505b6001600288020188555050505b505050505050565b610ab6806105295f395ff3fe608060405234801561000f575f5ffd5b5060043610610086575f3560e01c806370019b351161005957806370019b3514610126578063b69ef8a814610144578063b6b55f2514610162578063ff895a621461019257610086565b806312065fe01461008a57806327d35801146100a85780632e1a7d4d146100c65780636148cdad146100f6575b5f5ffd5b61009261019c565b60405161009f9190610691565b60405180910390f35b6100b06101fa565b6040516100bd919061071a565b60405180910390f35b6100e060048036038101906100db9190610768565b610285565b6040516100ed919061071a565b60405180910390f35b610110600480360381019061010b9190610768565b6103ef565b60405161011d9190610691565b60405180910390f35b61012e610452565b60405161013b919061071a565b60405180910390f35b61014c6104de565b6040516101599190610691565b60405180910390f35b61017c60048036038101906101779190610768565b6104e4565b604051610189919061071a565b60405180910390f35b61019a610609565b005b5f6001151560035f9054906101000a900460ff161515146101f2576040517f08c379a00000000000000000000000000000000000000000000000000000000081526004016101e9906107dd565b60405180910390fd5b600254905090565b5f805461020690610828565b80601f016020809104026020016040519081016040528092919081815260200182805461023290610828565b801561027d5780601f106102545761010080835404028352916020019161027d565b820191905f5260205f20905b81548152906001019060200180831161026057829003601f168201915b505050505081565b60606001151560035f9054906101000a900460ff161515146102dc576040517f08c379a00000000000000000000000000000000000000000000000000000000081526004016102d3906107dd565b60405180910390fd5b5f821161031e576040517f08c379a0000000000000000000000000000000000000000000000000000000008152600401610315906108a2565b60405180910390fd5b600254821115610363576040517f08c379a000000000000000000000000000000000000000000000000000000000815260040161035a906108a2565b60405180910390fd5b8160025461037191906108ed565b6002819055507fb53cf9ae19e88d3580ea94ef58eaea424f36f95ab9dc7e1cdc53b242d6be0d2c826002546040516103aa929190610920565b60405180910390a16040518060400160405280601b81526020017f616d6f756e742077697468647261772073756365737366756c6c7900000000008152509050919050565b5f5f8211610432576040517f08c379a0000000000000000000000000000000000000000000000000000000008152600401610429906108a2565b60405180910390fd5b60646002836104419190610947565b61044b91906109b5565b9050919050565b6001805461045f90610828565b80601f016020809104026020016040519081016040528092919081815260200182805461048b90610828565b80156104d65780601f106104ad576101008083540402835291602001916104d6565b820191905f5260205f20905b8154815290600101906020018083116104b957829003601f168201915b505050505081565b60025481565b60606001151560035f9054906101000a900460ff1615151461053b576040517f08c379a0000000000000000000000000000000000000000000000000000000008152600401610532906107dd565b60405180910390fd5b5f821161057d576040517f08c379a0000000000000000000000000000000000000000000000000000000008152600401610574906108a2565b60405180910390fd5b8160025461058b91906109e5565b6002819055507fb53cf9ae19e88d3580ea94ef58eaea424f36f95ab9dc7e1cdc53b242d6be0d2c826002546040516105c4929190610920565b60405180910390a16040518060400160405280601581526020017f6465706f73697465642073756365737366756c6c7900000000000000000000008152509050919050565b6001151560035f9054906101000a900460ff1615151461065e576040517f08c379a000000000000000000000000000000000000000000000000000000000815260040161065590610a62565b60405180910390fd5b5f60035f6101000a81548160ff021916908315150217905550565b5f819050919050565b61068b81610679565b82525050565b5f6020820190506106a45f830184610682565b92915050565b5f81519050919050565b5f82825260208201905092915050565b8281835e5f83830152505050565b5f601f19601f8301169050919050565b5f6106ec826106aa565b6106f681856106b4565b93506107068185602086016106c4565b61070f816106d2565b840191505092915050565b5f6020820190508181035f83015261073281846106e2565b905092915050565b5f5ffd5b61074781610679565b8114610751575f5ffd5b50565b5f813590506107628161073e565b92915050565b5f6020828403121561077d5761077c61073a565b5b5f61078a84828501610754565b91505092915050565b7f61636f756e7420697320696e20646561637469766500000000000000000000005f82015250565b5f6107c76015836106b4565b91506107d282610793565b602082019050919050565b5f6020820190508181035f8301526107f4816107bb565b9050919050565b7f4e487b71000000000000000000000000000000000000000000000000000000005f52602260045260245ffd5b5f600282049050600182168061083f57607f821691505b602082108103610852576108516107fb565b5b50919050565b7f616d6f756e74206d7573742062652067726561746572207468616e207a65726f5f82015250565b5f61088c6020836106b4565b915061089782610858565b602082019050919050565b5f6020820190508181035f8301526108b981610880565b9050919050565b7f4e487b71000000000000000000000000000000000000000000000000000000005f52601160045260245ffd5b5f6108f782610679565b915061090283610679565b925082820390508181111561091a576109196108c0565b5b92915050565b5f6040820190506109335f830185610682565b6109406020830184610682565b9392505050565b5f61095182610679565b915061095c83610679565b925082820261096a81610679565b91508282048414831517610981576109806108c0565b5b5092915050565b7f4e487b71000000000000000000000000000000000000000000000000000000005f52601260045260245ffd5b5f6109bf82610679565b91506109ca83610679565b9250826109da576109d9610988565b5b828204905092915050565b5f6109ef82610679565b91506109fa83610679565b9250828201905080821115610a1257610a116108c0565b5b92915050565b7f20697420697320646541637469766564000000000000000000000000000000005f82015250565b5f610a4c6010836106b4565b9150610a5782610a18565b602082019050919050565b5f6020820190508181035f830152610a7981610a40565b905091905056fea2646970667358221220fa329c04994281a836868af31302352ac9e9f64e90ca0d60db83e343a6fc433264736f6c634300081e0033",
			"opcodes": "PUSH1 0x80 PUSH1 0x40 MSTORE CALLVALUE DUP1 ISZERO PUSH2 0xF JUMPI PUSH0 PUSH0 REVERT JUMPDEST POP PUSH1 0x40 MLOAD PUSH2 0xFDF CODESIZE SUB DUP1 PUSH2 0xFDF DUP4 CODECOPY DUP2 DUP2 ADD PUSH1 0x40 MSTORE DUP2 ADD SWAP1 PUSH2 0x31 SWAP2 SWAP1 PUSH2 0x1C7 JUMP JUMPDEST DUP2 PUSH0 SWAP1 DUP2 PUSH2 0x3F SWAP2 SWAP1 PUSH2 0x44D JUMP JUMPDEST POP DUP1 PUSH1 0x1 SWAP1 DUP2 PUSH2 0x4F SWAP2 SWAP1 PUSH2 0x44D JUMP JUMPDEST POP PUSH2 0x4E20 PUSH1 0x2 DUP2 SWAP1 SSTORE POP PUSH1 0x1 PUSH1 0x3 PUSH0 PUSH2 0x100 EXP DUP2 SLOAD DUP2 PUSH1 0xFF MUL NOT AND SWAP1 DUP4 ISZERO ISZERO MUL OR SWAP1 SSTORE POP POP POP PUSH2 0x51C JUMP JUMPDEST PUSH0 PUSH1 0x40 MLOAD SWAP1 POP SWAP1 JUMP JUMPDEST PUSH0 PUSH0 REVERT JUMPDEST PUSH0 PUSH0 REVERT JUMPDEST PUSH0 PUSH0 REVERT JUMPDEST PUSH0 PUSH0 REVERT JUMPDEST PUSH0 PUSH1 0x1F NOT PUSH1 0x1F DUP4 ADD AND SWAP1 POP SWAP2 SWAP1 POP JUMP JUMPDEST PUSH32 0x4E487B7100000000000000000000000000000000000000000000000000000000 PUSH0 MSTORE PUSH1 0x41 PUSH1 0x4 MSTORE PUSH1 0x24 PUSH0 REVERT JUMPDEST PUSH2 0xD9 DUP3 PUSH2 0x93 JUMP JUMPDEST DUP2 ADD DUP2 DUP2 LT PUSH8 0xFFFFFFFFFFFFFFFF DUP3 GT OR ISZERO PUSH2 0xF8 JUMPI PUSH2 0xF7 PUSH2 0xA3 JUMP JUMPDEST JUMPDEST DUP1 PUSH1 0x40 MSTORE POP POP POP JUMP JUMPDEST PUSH0 PUSH2 0x10A PUSH2 0x7A JUMP JUMPDEST SWAP1 POP PUSH2 0x116 DUP3 DUP3 PUSH2 0xD0 JUMP JUMPDEST SWAP2 SWAP1 POP JUMP JUMPDEST PUSH0 PUSH8 0xFFFFFFFFFFFFFFFF DUP3 GT ISZERO PUSH2 0x135 JUMPI PUSH2 0x134 PUSH2 0xA3 JUMP JUMPDEST JUMPDEST PUSH2 0x13E DUP3 PUSH2 0x93 JUMP JUMPDEST SWAP1 POP PUSH1 0x20 DUP2 ADD SWAP1 POP SWAP2 SWAP1 POP JUMP JUMPDEST DUP3 DUP2 DUP4 MCOPY PUSH0 DUP4 DUP4 ADD MSTORE POP POP POP JUMP JUMPDEST PUSH0 PUSH2 0x16B PUSH2 0x166 DUP5 PUSH2 0x11B JUMP JUMPDEST PUSH2 0x101 JUMP JUMPDEST SWAP1 POP DUP3 DUP2 MSTORE PUSH1 0x20 DUP2 ADD DUP5 DUP5 DUP5 ADD GT ISZERO PUSH2 0x187 JUMPI PUSH2 0x186 PUSH2 0x8F JUMP JUMPDEST JUMPDEST PUSH2 0x192 DUP5 DUP3 DUP6 PUSH2 0x14B JUMP JUMPDEST POP SWAP4 SWAP3 POP POP POP JUMP JUMPDEST PUSH0 DUP3 PUSH1 0x1F DUP4 ADD SLT PUSH2 0x1AE JUMPI PUSH2 0x1AD PUSH2 0x8B JUMP JUMPDEST JUMPDEST DUP2 MLOAD PUSH2 0x1BE DUP5 DUP3 PUSH1 0x20 DUP7 ADD PUSH2 0x159 JUMP JUMPDEST SWAP2 POP POP SWAP3 SWAP2 POP POP JUMP JUMPDEST PUSH0 PUSH0 PUSH1 0x40 DUP4 DUP6 SUB SLT ISZERO PUSH2 0x1DD JUMPI PUSH2 0x1DC PUSH2 0x83 JUMP JUMPDEST JUMPDEST PUSH0 DUP4 ADD MLOAD PUSH8 0xFFFFFFFFFFFFFFFF DUP2 GT ISZERO PUSH2 0x1FA JUMPI PUSH2 0x1F9 PUSH2 0x87 JUMP JUMPDEST JUMPDEST PUSH2 0x206 DUP6 DUP3 DUP7 ADD PUSH2 0x19A JUMP JUMPDEST SWAP3 POP POP PUSH1 0x20 DUP4 ADD MLOAD PUSH8 0xFFFFFFFFFFFFFFFF DUP2 GT ISZERO PUSH2 0x227 JUMPI PUSH2 0x226 PUSH2 0x87 JUMP JUMPDEST JUMPDEST PUSH2 0x233 DUP6 DUP3 DUP7 ADD PUSH2 0x19A JUMP JUMPDEST SWAP2 POP POP SWAP3 POP SWAP3 SWAP1 POP JUMP JUMPDEST PUSH0 DUP2 MLOAD SWAP1 POP SWAP2 SWAP1 POP JUMP JUMPDEST PUSH32 0x4E487B7100000000000000000000000000000000000000000000000000000000 PUSH0 MSTORE PUSH1 0x22 PUSH1 0x4 MSTORE PUSH1 0x24 PUSH0 REVERT JUMPDEST PUSH0 PUSH1 0x2 DUP3 DIV SWAP1 POP PUSH1 0x1 DUP3 AND DUP1 PUSH2 0x28B JUMPI PUSH1 0x7F DUP3 AND SWAP2 POP JUMPDEST PUSH1 0x20 DUP3 LT DUP2 SUB PUSH2 0x29E JUMPI PUSH2 0x29D PUSH2 0x247 JUMP JUMPDEST JUMPDEST POP SWAP2 SWAP1 POP JUMP JUMPDEST PUSH0 DUP2 SWAP1 POP DUP2 PUSH0 MSTORE PUSH1 0x20 PUSH0 KECCAK256 SWAP1 POP SWAP2 SWAP1 POP JUMP JUMPDEST PUSH0 PUSH1 0x20 PUSH1 0x1F DUP4 ADD DIV SWAP1 POP SWAP2 SWAP1 POP JUMP JUMPDEST PUSH0 DUP3 DUP3 SHL SWAP1 POP SWAP3 SWAP2 POP POP JUMP JUMPDEST PUSH0 PUSH1 0x8 DUP4 MUL PUSH2 0x300 PUSH32 0xFFFFFFFFFFFFFFFFFFFFFFFFFFFFFFFFFFFFFFFFFFFFFFFFFFFFFFFFFFFFFFFF DUP3 PUSH2 0x2C5 JUMP JUMPDEST PUSH2 0x30A DUP7 DUP4 PUSH2 0x2C5 JUMP JUMPDEST SWAP6 POP DUP1 NOT DUP5 AND SWAP4 POP DUP1 DUP7 AND DUP5 OR SWAP3 POP POP POP SWAP4 SWAP3 POP POP POP JUMP JUMPDEST PUSH0 DUP2 SWAP1 POP SWAP2 SWAP1 POP JUMP JUMPDEST PUSH0 DUP2 SWAP1 POP SWAP2 SWAP1 POP JUMP JUMPDEST PUSH0 PUSH2 0x34E PUSH2 0x349 PUSH2 0x344 DUP5 PUSH2 0x322 JUMP JUMPDEST PUSH2 0x32B JUMP JUMPDEST PUSH2 0x322 JUMP JUMPDEST SWAP1 POP SWAP2 SWAP1 POP JUMP JUMPDEST PUSH0 DUP2 SWAP1 POP SWAP2 SWAP1 POP JUMP JUMPDEST PUSH2 0x367 DUP4 PUSH2 0x334 JUMP JUMPDEST PUSH2 0x37B PUSH2 0x373 DUP3 PUSH2 0x355 JUMP JUMPDEST DUP5 DUP5 SLOAD PUSH2 0x2D1 JUMP JUMPDEST DUP3 SSTORE POP POP POP POP JUMP JUMPDEST PUSH0 PUSH0 SWAP1 POP SWAP1 JUMP JUMPDEST PUSH2 0x392 PUSH2 0x383 JUMP JUMPDEST PUSH2 0x39D DUP2 DUP5 DUP5 PUSH2 0x35E JUMP JUMPDEST POP POP POP JUMP JUMPDEST JUMPDEST DUP2 DUP2 LT ISZERO PUSH2 0x3C0 JUMPI PUSH2 0x3B5 PUSH0 DUP3 PUSH2 0x38A JUMP JUMPDEST PUSH1 0x1 DUP2 ADD SWAP1 POP PUSH2 0x3A3 JUMP JUMPDEST POP POP JUMP JUMPDEST PUSH1 0x1F DUP3 GT ISZERO PUSH2 0x405 JUMPI PUSH2 0x3D6 DUP2 PUSH2 0x2A4 JUMP JUMPDEST PUSH2 0x3DF DUP5 PUSH2 0x2B6 JUMP JUMPDEST DUP2 ADD PUSH1 0x20 DUP6 LT ISZERO PUSH2 0x3EE JUMPI DUP2 SWAP1 POP JUMPDEST PUSH2 0x402 PUSH2 0x3FA DUP6 PUSH2 0x2B6 JUMP JUMPDEST DUP4 ADD DUP3 PUSH2 0x3A2 JUMP JUMPDEST POP POP JUMPDEST POP POP POP JUMP JUMPDEST PUSH0 DUP3 DUP3 SHR SWAP1 POP SWAP3 SWAP2 POP POP JUMP JUMPDEST PUSH0 PUSH2 0x425 PUSH0 NOT DUP5 PUSH1 0x8 MUL PUSH2 0x40A JUMP JUMPDEST NOT DUP1 DUP4 AND SWAP2 POP POP SWAP3 SWAP2 POP POP JUMP JUMPDEST PUSH0 PUSH2 0x43D DUP4 DUP4 PUSH2 0x416 JUMP JUMPDEST SWAP2 POP DUP3 PUSH1 0x2 MUL DUP3 OR SWAP1 POP SWAP3 SWAP2 POP POP JUMP JUMPDEST PUSH2 0x456 DUP3 PUSH2 0x23D JUMP JUMPDEST PUSH8 0xFFFFFFFFFFFFFFFF DUP2 GT ISZERO PUSH2 0x46F JUMPI PUSH2 0x46E PUSH2 0xA3 JUMP JUMPDEST JUMPDEST PUSH2 0x479 DUP3 SLOAD PUSH2 0x274 JUMP JUMPDEST PUSH2 0x484 DUP3 DUP3 DUP6 PUSH2 0x3C4 JUMP JUMPDEST PUSH0 PUSH1 0x20 SWAP1 POP PUSH1 0x1F DUP4 GT PUSH1 0x1 DUP2 EQ PUSH2 0x4B5 JUMPI PUSH0 DUP5 ISZERO PUSH2 0x4A3 JUMPI DUP3 DUP8 ADD MLOAD SWAP1 POP JUMPDEST PUSH2 0x4AD DUP6 DUP3 PUSH2 0x432 JUMP JUMPDEST DUP7 SSTORE POP PUSH2 0x514 JUMP JUMPDEST PUSH1 0x1F NOT DUP5 AND PUSH2 0x4C3 DUP7 PUSH2 0x2A4 JUMP JUMPDEST PUSH0 JUMPDEST DUP3 DUP2 LT ISZERO PUSH2 0x4EA JUMPI DUP5 DUP10 ADD MLOAD DUP3 SSTORE PUSH1 0x1 DUP3 ADD SWAP2 POP PUSH1 0x20 DUP6 ADD SWAP5 POP PUSH1 0x20 DUP2 ADD SWAP1 POP PUSH2 0x4C5 JUMP JUMPDEST DUP7 DUP4 LT ISZERO PUSH2 0x507 JUMPI DUP5 DUP10 ADD MLOAD PUSH2 0x503 PUSH1 0x1F DUP10 AND DUP3 PUSH2 0x416 JUMP JUMPDEST DUP4 SSTORE POP JUMPDEST PUSH1 0x1 PUSH1 0x2 DUP9 MUL ADD DUP9 SSTORE POP POP POP JUMPDEST POP POP POP POP POP POP JUMP JUMPDEST PUSH2 0xAB6 DUP1 PUSH2 0x529 PUSH0 CODECOPY PUSH0 RETURN INVALID PUSH1 0x80 PUSH1 0x40 MSTORE CALLVALUE DUP1 ISZERO PUSH2 0xF JUMPI PUSH0 PUSH0 REVERT JUMPDEST POP PUSH1 0x4 CALLDATASIZE LT PUSH2 0x86 JUMPI PUSH0 CALLDATALOAD PUSH1 0xE0 SHR DUP1 PUSH4 0x70019B35 GT PUSH2 0x59 JUMPI DUP1 PUSH4 0x70019B35 EQ PUSH2 0x126 JUMPI DUP1 PUSH4 0xB69EF8A8 EQ PUSH2 0x144 JUMPI DUP1 PUSH4 0xB6B55F25 EQ PUSH2 0x162 JUMPI DUP1 PUSH4 0xFF895A62 EQ PUSH2 0x192 JUMPI PUSH2 0x86 JUMP JUMPDEST DUP1 PUSH4 0x12065FE0 EQ PUSH2 0x8A JUMPI DUP1 PUSH4 0x27D35801 EQ PUSH2 0xA8 JUMPI DUP1 PUSH4 0x2E1A7D4D EQ PUSH2 0xC6 JUMPI DUP1 PUSH4 0x6148CDAD EQ PUSH2 0xF6 JUMPI JUMPDEST PUSH0 PUSH0 REVERT JUMPDEST PUSH2 0x92 PUSH2 0x19C JUMP JUMPDEST PUSH1 0x40 MLOAD PUSH2 0x9F SWAP2 SWAP1 PUSH2 0x691 JUMP JUMPDEST PUSH1 0x40 MLOAD DUP1 SWAP2 SUB SWAP1 RETURN JUMPDEST PUSH2 0xB0 PUSH2 0x1FA JUMP JUMPDEST PUSH1 0x40 MLOAD PUSH2 0xBD SWAP2 SWAP1 PUSH2 0x71A JUMP JUMPDEST PUSH1 0x40 MLOAD DUP1 SWAP2 SUB SWAP1 RETURN JUMPDEST PUSH2 0xE0 PUSH1 0x4 DUP1 CALLDATASIZE SUB DUP2 ADD SWAP1 PUSH2 0xDB SWAP2 SWAP1 PUSH2 0x768 JUMP JUMPDEST PUSH2 0x285 JUMP JUMPDEST PUSH1 0x40 MLOAD PUSH2 0xED SWAP2 SWAP1 PUSH2 0x71A JUMP JUMPDEST PUSH1 0x40 MLOAD DUP1 SWAP2 SUB SWAP1 RETURN JUMPDEST PUSH2 0x110 PUSH1 0x4 DUP1 CALLDATASIZE SUB DUP2 ADD SWAP1 PUSH2 0x10B SWAP2 SWAP1 PUSH2 0x768 JUMP JUMPDEST PUSH2 0x3EF JUMP JUMPDEST PUSH1 0x40 MLOAD PUSH2 0x11D SWAP2 SWAP1 PUSH2 0x691 JUMP JUMPDEST PUSH1 0x40 MLOAD DUP1 SWAP2 SUB SWAP1 RETURN JUMPDEST PUSH2 0x12E PUSH2 0x452 JUMP JUMPDEST PUSH1 0x40 MLOAD PUSH2 0x13B SWAP2 SWAP1 PUSH2 0x71A JUMP JUMPDEST PUSH1 0x40 MLOAD DUP1 SWAP2 SUB SWAP1 RETURN JUMPDEST PUSH2 0x14C PUSH2 0x4DE JUMP JUMPDEST PUSH1 0x40 MLOAD PUSH2 0x159 SWAP2 SWAP1 PUSH2 0x691 JUMP JUMPDEST PUSH1 0x40 MLOAD DUP1 SWAP2 SUB SWAP1 RETURN JUMPDEST PUSH2 0x17C PUSH1 0x4 DUP1 CALLDATASIZE SUB DUP2 ADD SWAP1 PUSH2 0x177 SWAP2 SWAP1 PUSH2 0x768 JUMP JUMPDEST PUSH2 0x4E4 JUMP JUMPDEST PUSH1 0x40 MLOAD PUSH2 0x189 SWAP2 SWAP1 PUSH2 0x71A JUMP JUMPDEST PUSH1 0x40 MLOAD DUP1 SWAP2 SUB SWAP1 RETURN JUMPDEST PUSH2 0x19A PUSH2 0x609 JUMP JUMPDEST STOP JUMPDEST PUSH0 PUSH1 0x1 ISZERO ISZERO PUSH1 0x3 PUSH0 SWAP1 SLOAD SWAP1 PUSH2 0x100 EXP SWAP1 DIV PUSH1 0xFF AND ISZERO ISZERO EQ PUSH2 0x1F2 JUMPI PUSH1 0x40 MLOAD PUSH32 0x8C379A000000000000000000000000000000000000000000000000000000000 DUP2 MSTORE PUSH1 0x4 ADD PUSH2 0x1E9 SWAP1 PUSH2 0x7DD JUMP JUMPDEST PUSH1 0x40 MLOAD DUP1 SWAP2 SUB SWAP1 REVERT JUMPDEST PUSH1 0x2 SLOAD SWAP1 POP SWAP1 JUMP JUMPDEST PUSH0 DUP1 SLOAD PUSH2 0x206 SWAP1 PUSH2 0x828 JUMP JUMPDEST DUP1 PUSH1 0x1F ADD PUSH1 0x20 DUP1 SWAP2 DIV MUL PUSH1 0x20 ADD PUSH1 0x40 MLOAD SWAP1 DUP2 ADD PUSH1 0x40 MSTORE DUP1 SWAP3 SWAP2 SWAP1 DUP2 DUP2 MSTORE PUSH1 0x20 ADD DUP3 DUP1 SLOAD PUSH2 0x232 SWAP1 PUSH2 0x828 JUMP JUMPDEST DUP1 ISZERO PUSH2 0x27D JUMPI DUP1 PUSH1 0x1F LT PUSH2 0x254 JUMPI PUSH2 0x100 DUP1 DUP4 SLOAD DIV MUL DUP4 MSTORE SWAP2 PUSH1 0x20 ADD SWAP2 PUSH2 0x27D JUMP JUMPDEST DUP3 ADD SWAP2 SWAP1 PUSH0 MSTORE PUSH1 0x20 PUSH0 KECCAK256 SWAP1 JUMPDEST DUP2 SLOAD DUP2 MSTORE SWAP1 PUSH1 0x1 ADD SWAP1 PUSH1 0x20 ADD DUP1 DUP4 GT PUSH2 0x260 JUMPI DUP3 SWAP1 SUB PUSH1 0x1F AND DUP3 ADD SWAP2 JUMPDEST POP POP POP POP POP DUP2 JUMP JUMPDEST PUSH1 0x60 PUSH1 0x1 ISZERO ISZERO PUSH1 0x3 PUSH0 SWAP1 SLOAD SWAP1 PUSH2 0x100 EXP SWAP1 DIV PUSH1 0xFF AND ISZERO ISZERO EQ PUSH2 0x2DC JUMPI PUSH1 0x40 MLOAD PUSH32 0x8C379A000000000000000000000000000000000000000000000000000000000 DUP2 MSTORE PUSH1 0x4 ADD PUSH2 0x2D3 SWAP1 PUSH2 0x7DD JUMP JUMPDEST PUSH1 0x40 MLOAD DUP1 SWAP2 SUB SWAP1 REVERT JUMPDEST PUSH0 DUP3 GT PUSH2 0x31E JUMPI PUSH1 0x40 MLOAD PUSH32 0x8C379A000000000000000000000000000000000000000000000000000000000 DUP2 MSTORE PUSH1 0x4 ADD PUSH2 0x315 SWAP1 PUSH2 0x8A2 JUMP JUMPDEST PUSH1 0x40 MLOAD DUP1 SWAP2 SUB SWAP1 REVERT JUMPDEST PUSH1 0x2 SLOAD DUP3 GT ISZERO PUSH2 0x363 JUMPI PUSH1 0x40 MLOAD PUSH32 0x8C379A000000000000000000000000000000000000000000000000000000000 DUP2 MSTORE PUSH1 0x4 ADD PUSH2 0x35A SWAP1 PUSH2 0x8A2 JUMP JUMPDEST PUSH1 0x40 MLOAD DUP1 SWAP2 SUB SWAP1 REVERT JUMPDEST DUP2 PUSH1 0x2 SLOAD PUSH2 0x371 SWAP2 SWAP1 PUSH2 0x8ED JUMP JUMPDEST PUSH1 0x2 DUP2 SWAP1 SSTORE POP PUSH32 0xB53CF9AE19E88D3580EA94EF58EAEA424F36F95AB9DC7E1CDC53B242D6BE0D2C DUP3 PUSH1 0x2 SLOAD PUSH1 0x40 MLOAD PUSH2 0x3AA SWAP3 SWAP2 SWAP1 PUSH2 0x920 JUMP JUMPDEST PUSH1 0x40 MLOAD DUP1 SWAP2 SUB SWAP1 LOG1 PUSH1 0x40 MLOAD DUP1 PUSH1 0x40 ADD PUSH1 0x40 MSTORE DUP1 PUSH1 0x1B DUP2 MSTORE PUSH1 0x20 ADD PUSH32 0x616D6F756E742077697468647261772073756365737366756C6C790000000000 DUP2 MSTORE POP SWAP1 POP SWAP2 SWAP1 POP JUMP JUMPDEST PUSH0 PUSH0 DUP3 GT PUSH2 0x432 JUMPI PUSH1 0x40 MLOAD PUSH32 0x8C379A000000000000000000000000000000000000000000000000000000000 DUP2 MSTORE PUSH1 0x4 ADD PUSH2 0x429 SWAP1 PUSH2 0x8A2 JUMP JUMPDEST PUSH1 0x40 MLOAD DUP1 SWAP2 SUB SWAP1 REVERT JUMPDEST PUSH1 0x64 PUSH1 0x2 DUP4 PUSH2 0x441 SWAP2 SWAP1 PUSH2 0x947 JUMP JUMPDEST PUSH2 0x44B SWAP2 SWAP1 PUSH2 0x9B5 JUMP JUMPDEST SWAP1 POP SWAP2 SWAP1 POP JUMP JUMPDEST PUSH1 0x1 DUP1 SLOAD PUSH2 0x45F SWAP1 PUSH2 0x828 JUMP JUMPDEST DUP1 PUSH1 0x1F ADD PUSH1 0x20 DUP1 SWAP2 DIV MUL PUSH1 0x20 ADD PUSH1 0x40 MLOAD SWAP1 DUP2 ADD PUSH1 0x40 MSTORE DUP1 SWAP3 SWAP2 SWAP1 DUP2 DUP2 MSTORE PUSH1 0x20 ADD DUP3 DUP1 SLOAD PUSH2 0x48B SWAP1 PUSH2 0x828 JUMP JUMPDEST DUP1 ISZERO PUSH2 0x4D6 JUMPI DUP1 PUSH1 0x1F LT PUSH2 0x4AD JUMPI PUSH2 0x100 DUP1 DUP4 SLOAD DIV MUL DUP4 MSTORE SWAP2 PUSH1 0x20 ADD SWAP2 PUSH2 0x4D6 JUMP JUMPDEST DUP3 ADD SWAP2 SWAP1 PUSH0 MSTORE PUSH1 0x20 PUSH0 KECCAK256 SWAP1 JUMPDEST DUP2 SLOAD DUP2 MSTORE SWAP1 PUSH1 0x1 ADD SWAP1 PUSH1 0x20 ADD DUP1 DUP4 GT PUSH2 0x4B9 JUMPI DUP3 SWAP1 SUB PUSH1 0x1F AND DUP3 ADD SWAP2 JUMPDEST POP POP POP POP POP DUP2 JUMP JUMPDEST PUSH1 0x2 SLOAD DUP2 JUMP JUMPDEST PUSH1 0x60 PUSH1 0x1 ISZERO ISZERO PUSH1 0x3 PUSH0 SWAP1 SLOAD SWAP1 PUSH2 0x100 EXP SWAP1 DIV PUSH1 0xFF AND ISZERO ISZERO EQ PUSH2 0x53B JUMPI PUSH1 0x40 MLOAD PUSH32 0x8C379A000000000000000000000000000000000000000000000000000000000 DUP2 MSTORE PUSH1 0x4 ADD PUSH2 0x532 SWAP1 PUSH2 0x7DD JUMP JUMPDEST PUSH1 0x40 MLOAD DUP1 SWAP2 SUB SWAP1 REVERT JUMPDEST PUSH0 DUP3 GT PUSH2 0x57D JUMPI PUSH1 0x40 MLOAD PUSH32 0x8C379A000000000000000000000000000000000000000000000000000000000 DUP2 MSTORE PUSH1 0x4 ADD PUSH2 0x574 SWAP1 PUSH2 0x8A2 JUMP JUMPDEST PUSH1 0x40 MLOAD DUP1 SWAP2 SUB SWAP1 REVERT JUMPDEST DUP2 PUSH1 0x2 SLOAD PUSH2 0x58B SWAP2 SWAP1 PUSH2 0x9E5 JUMP JUMPDEST PUSH1 0x2 DUP2 SWAP1 SSTORE POP PUSH32 0xB53CF9AE19E88D3580EA94EF58EAEA424F36F95AB9DC7E1CDC53B242D6BE0D2C DUP3 PUSH1 0x2 SLOAD PUSH1 0x40 MLOAD PUSH2 0x5C4 SWAP3 SWAP2 SWAP1 PUSH2 0x920 JUMP JUMPDEST PUSH1 0x40 MLOAD DUP1 SWAP2 SUB SWAP1 LOG1 PUSH1 0x40 MLOAD DUP1 PUSH1 0x40 ADD PUSH1 0x40 MSTORE DUP1 PUSH1 0x15 DUP2 MSTORE PUSH1 0x20 ADD PUSH32 0x6465706F73697465642073756365737366756C6C790000000000000000000000 DUP2 MSTORE POP SWAP1 POP SWAP2 SWAP1 POP JUMP JUMPDEST PUSH1 0x1 ISZERO ISZERO PUSH1 0x3 PUSH0 SWAP1 SLOAD SWAP1 PUSH2 0x100 EXP SWAP1 DIV PUSH1 0xFF AND ISZERO ISZERO EQ PUSH2 0x65E JUMPI PUSH1 0x40 MLOAD PUSH32 0x8C379A000000000000000000000000000000000000000000000000000000000 DUP2 MSTORE PUSH1 0x4 ADD PUSH2 0x655 SWAP1 PUSH2 0xA62 JUMP JUMPDEST PUSH1 0x40 MLOAD DUP1 SWAP2 SUB SWAP1 REVERT JUMPDEST PUSH0 PUSH1 0x3 PUSH0 PUSH2 0x100 EXP DUP2 SLOAD DUP2 PUSH1 0xFF MUL NOT AND SWAP1 DUP4 ISZERO ISZERO MUL OR SWAP1 SSTORE POP JUMP JUMPDEST PUSH0 DUP2 SWAP1 POP SWAP2 SWAP1 POP JUMP JUMPDEST PUSH2 0x68B DUP2 PUSH2 0x679 JUMP JUMPDEST DUP3 MSTORE POP POP JUMP JUMPDEST PUSH0 PUSH1 0x20 DUP3 ADD SWAP1 POP PUSH2 0x6A4 PUSH0 DUP4 ADD DUP5 PUSH2 0x682 JUMP JUMPDEST SWAP3 SWAP2 POP POP JUMP JUMPDEST PUSH0 DUP2 MLOAD SWAP1 POP SWAP2 SWAP1 POP JUMP JUMPDEST PUSH0 DUP3 DUP3 MSTORE PUSH1 0x20 DUP3 ADD SWAP1 POP SWAP3 SWAP2 POP POP JUMP JUMPDEST DUP3 DUP2 DUP4 MCOPY PUSH0 DUP4 DUP4 ADD MSTORE POP POP POP JUMP JUMPDEST PUSH0 PUSH1 0x1F NOT PUSH1 0x1F DUP4 ADD AND SWAP1 POP SWAP2 SWAP1 POP JUMP JUMPDEST PUSH0 PUSH2 0x6EC DUP3 PUSH2 0x6AA JUMP JUMPDEST PUSH2 0x6F6 DUP2 DUP6 PUSH2 0x6B4 JUMP JUMPDEST SWAP4 POP PUSH2 0x706 DUP2 DUP6 PUSH1 0x20 DUP7 ADD PUSH2 0x6C4 JUMP JUMPDEST PUSH2 0x70F DUP2 PUSH2 0x6D2 JUMP JUMPDEST DUP5 ADD SWAP2 POP POP SWAP3 SWAP2 POP POP JUMP JUMPDEST PUSH0 PUSH1 0x20 DUP3 ADD SWAP1 POP DUP2 DUP2 SUB PUSH0 DUP4 ADD MSTORE PUSH2 0x732 DUP2 DUP5 PUSH2 0x6E2 JUMP JUMPDEST SWAP1 POP SWAP3 SWAP2 POP POP JUMP JUMPDEST PUSH0 PUSH0 REVERT JUMPDEST PUSH2 0x747 DUP2 PUSH2 0x679 JUMP JUMPDEST DUP2 EQ PUSH2 0x751 JUMPI PUSH0 PUSH0 REVERT JUMPDEST POP JUMP JUMPDEST PUSH0 DUP2 CALLDATALOAD SWAP1 POP PUSH2 0x762 DUP2 PUSH2 0x73E JUMP JUMPDEST SWAP3 SWAP2 POP POP JUMP JUMPDEST PUSH0 PUSH1 0x20 DUP3 DUP5 SUB SLT ISZERO PUSH2 0x77D JUMPI PUSH2 0x77C PUSH2 0x73A JUMP JUMPDEST JUMPDEST PUSH0 PUSH2 0x78A DUP5 DUP3 DUP6 ADD PUSH2 0x754 JUMP JUMPDEST SWAP2 POP POP SWAP3 SWAP2 POP POP JUMP JUMPDEST PUSH32 0x61636F756E7420697320696E2064656163746976650000000000000000000000 PUSH0 DUP3 ADD MSTORE POP JUMP JUMPDEST PUSH0 PUSH2 0x7C7 PUSH1 0x15 DUP4 PUSH2 0x6B4 JUMP JUMPDEST SWAP2 POP PUSH2 0x7D2 DUP3 PUSH2 0x793 JUMP JUMPDEST PUSH1 0x20 DUP3 ADD SWAP1 POP SWAP2 SWAP1 POP JUMP JUMPDEST PUSH0 PUSH1 0x20 DUP3 ADD SWAP1 POP DUP2 DUP2 SUB PUSH0 DUP4 ADD MSTORE PUSH2 0x7F4 DUP2 PUSH2 0x7BB JUMP JUMPDEST SWAP1 POP SWAP2 SWAP1 POP JUMP JUMPDEST PUSH32 0x4E487B7100000000000000000000000000000000000000000000000000000000 PUSH0 MSTORE PUSH1 0x22 PUSH1 0x4 MSTORE PUSH1 0x24 PUSH0 REVERT JUMPDEST PUSH0 PUSH1 0x2 DUP3 DIV SWAP1 POP PUSH1 0x1 DUP3 AND DUP1 PUSH2 0x83F JUMPI PUSH1 0x7F DUP3 AND SWAP2 POP JUMPDEST PUSH1 0x20 DUP3 LT DUP2 SUB PUSH2 0x852 JUMPI PUSH2 0x851 PUSH2 0x7FB JUMP JUMPDEST JUMPDEST POP SWAP2 SWAP1 POP JUMP JUMPDEST PUSH32 0x616D6F756E74206D7573742062652067726561746572207468616E207A65726F PUSH0 DUP3 ADD MSTORE POP JUMP JUMPDEST PUSH0 PUSH2 0x88C PUSH1 0x20 DUP4 PUSH2 0x6B4 JUMP JUMPDEST SWAP2 POP PUSH2 0x897 DUP3 PUSH2 0x858 JUMP JUMPDEST PUSH1 0x20 DUP3 ADD SWAP1 POP SWAP2 SWAP1 POP JUMP JUMPDEST PUSH0 PUSH1 0x20 DUP3 ADD SWAP1 POP DUP2 DUP2 SUB PUSH0 DUP4 ADD MSTORE PUSH2 0x8B9 DUP2 PUSH2 0x880 JUMP JUMPDEST SWAP1 POP SWAP2 SWAP1 POP JUMP JUMPDEST PUSH32 0x4E487B7100000000000000000000000000000000000000000000000000000000 PUSH0 MSTORE PUSH1 0x11 PUSH1 0x4 MSTORE PUSH1 0x24 PUSH0 REVERT JUMPDEST PUSH0 PUSH2 0x8F7 DUP3 PUSH2 0x679 JUMP JUMPDEST SWAP2 POP PUSH2 0x902 DUP4 PUSH2 0x679 JUMP JUMPDEST SWAP3 POP DUP3 DUP3 SUB SWAP1 POP DUP2 DUP2 GT ISZERO PUSH2 0x91A JUMPI PUSH2 0x919 PUSH2 0x8C0 JUMP JUMPDEST JUMPDEST SWAP3 SWAP2 POP POP JUMP JUMPDEST PUSH0 PUSH1 0x40 DUP3 ADD SWAP1 POP PUSH2 0x933 PUSH0 DUP4 ADD DUP6 PUSH2 0x682 JUMP JUMPDEST PUSH2 0x940 PUSH1 0x20 DUP4 ADD DUP5 PUSH2 0x682 JUMP JUMPDEST SWAP4 SWAP3 POP POP POP JUMP JUMPDEST PUSH0 PUSH2 0x951 DUP3 PUSH2 0x679 JUMP JUMPDEST SWAP2 POP PUSH2 0x95C DUP4 PUSH2 0x679 JUMP JUMPDEST SWAP3 POP DUP3 DUP3 MUL PUSH2 0x96A DUP2 PUSH2 0x679 JUMP JUMPDEST SWAP2 POP DUP3 DUP3 DIV DUP5 EQ DUP4 ISZERO OR PUSH2 0x981 JUMPI PUSH2 0x980 PUSH2 0x8C0 JUMP JUMPDEST JUMPDEST POP SWAP3 SWAP2 POP POP JUMP JUMPDEST PUSH32 0x4E487B7100000000000000000000000000000000000000000000000000000000 PUSH0 MSTORE PUSH1 0x12 PUSH1 0x4 MSTORE PUSH1 0x24 PUSH0 REVERT JUMPDEST PUSH0 PUSH2 0x9BF DUP3 PUSH2 0x679 JUMP JUMPDEST SWAP2 POP PUSH2 0x9CA DUP4 PUSH2 0x679 JUMP JUMPDEST SWAP3 POP DUP3 PUSH2 0x9DA JUMPI PUSH2 0x9D9 PUSH2 0x988 JUMP JUMPDEST JUMPDEST DUP3 DUP3 DIV SWAP1 POP SWAP3 SWAP2 POP POP JUMP JUMPDEST PUSH0 PUSH2 0x9EF DUP3 PUSH2 0x679 JUMP JUMPDEST SWAP2 POP PUSH2 0x9FA DUP4 PUSH2 0x679 JUMP JUMPDEST SWAP3 POP DUP3 DUP3 ADD SWAP1 POP DUP1 DUP3 GT ISZERO PUSH2 0xA12 JUMPI PUSH2 0xA11 PUSH2 0x8C0 JUMP JUMPDEST JUMPDEST SWAP3 SWAP2 POP POP JUMP JUMPDEST PUSH32 0x2069742069732064654163746976656400000000000000000000000000000000 PUSH0 DUP3 ADD MSTORE POP JUMP JUMPDEST PUSH0 PUSH2 0xA4C PUSH1 0x10 DUP4 PUSH2 0x6B4 JUMP JUMPDEST SWAP2 POP PUSH2 0xA57 DUP3 PUSH2 0xA18 JUMP JUMPDEST PUSH1 0x20 DUP3 ADD SWAP1 POP SWAP2 SWAP1 POP JUMP JUMPDEST PUSH0 PUSH1 0x20 DUP3 ADD SWAP1 POP DUP2 DUP2 SUB PUSH0 DUP4 ADD MSTORE PUSH2 0xA79 DUP2 PUSH2 0xA40 JUMP JUMPDEST SWAP1 POP SWAP2 SWAP1 POP JUMP INVALID LOG2 PUSH5 0x6970667358 0x22 SLT KECCAK256 STATICCALL ORIGIN SWAP13 DIV SWAP10 TIMESTAMP DUP2 0xA8 CALLDATASIZE DUP7 DUP11 RETURN SGT MUL CALLDATALOAD 0x2A 0xC9 0xE9 0xF6 0x4E SWAP1 0xCA 0xD PUSH1 0xDB DUP4 CALLF 0x43A6 0xFC NUMBER ORIGIN PUSH5 0x736F6C6343 STOP ADDMOD 0x1E STOP CALLER "
		},
		"gasEstimates": {
			"creation": {
				"codeDepositCost": "548400",
				"executionCost": "infinite",
				"totalCost": "infinite"
			},
			"external": {
				"balance()": "2447",
				"bankName()": "infinite",
				"calculateCharges(uint256)": "infinite",
				"deActivate()": "26644",
				"deposit(uint256)": "infinite",
				"getBalance()": "4603",
				"userName()": "infinite",
				"withdraw(uint256)": "infinite"
			}
		},
		"methodIdentifiers": {
			"balance()": "b69ef8a8",
			"bankName()": "27d35801",
			"calculateCharges(uint256)": "6148cdad",
			"deActivate()": "ff895a62",
			"deposit(uint256)": "b6b55f25",
			"getBalance()": "12065fe0",
			"userName()": "70019b35",
			"withdraw(uint256)": "2e1a7d4d"
		}
	},
	"abi": [
		{
			"inputs": [
				{
					"internalType": "string",
					"name": "_bankName",
					"type": "string"
				},
				{
					"internalType": "string",
					"name": "_username",
					"type": "string"
				}
			],
			"stateMutability": "nonpayable",
			"type": "constructor"
		},
		{
			"anonymous": false,
			"inputs": [
				{
					"indexed": false,
					"internalType": "uint256",
					"name": "amount",
					"type": "uint256"
				},
				{
					"indexed": false,
					"internalType": "uint256",
					"name": "balance",
					"type": "uint256"
				}
			],
			"name": "Recept",
			"type": "event"
		},
		{
			"inputs": [],
			"name": "balance",
			"outputs": [
				{
					"internalType": "uint256",
					"name": "",
					"type": "uint256"
				}
			],
			"stateMutability": "view",
			"type": "function"
		},
		{
			"inputs": [],
			"name": "bankName",
			"outputs": [
				{
					"internalType": "string",
					"name": "",
					"type": "string"
				}
			],
			"stateMutability": "view",
			"type": "function"
		},
		{
			"inputs": [
				{
					"internalType": "uint256",
					"name": "amount",
					"type": "uint256"
				}
			],
			"name": "calculateCharges",
			"outputs": [
				{
					"internalType": "uint256",
					"name": "",
					"type": "uint256"
				}
			],
			"stateMutability": "pure",
			"type": "function"
		},
		{
			"inputs": [],
			"name": "deActivate",
			"outputs": [],
			"stateMutability": "nonpayable",
			"type": "function"
		},
		{
			"inputs": [
				{
					"internalType": "uint256",
					"name": "amount",
					"type": "uint256"
				}
			],
			"name": "deposit",
			"outputs": [
				{
					"internalType": "string",
					"name": "",
					"type": "string"
				}
			],
			"stateMutability": "nonpayable",
			"type": "function"
		},
		{
			"inputs": [],
			"name": "getBalance",
			"outputs": [
				{
					"internalType": "uint256",
					"name": "",
					"type": "uint256"
				}
			],
			"stateMutability": "view",
			"type": "function"
		},
		{
			"inputs": [],
			"name": "userName",
			"outputs": [
				{
					"internalType": "string",
					"name": "",
					"type": "string"
				}
			],
			"stateMutability": "view",
			"type": "function"
		},
		{
			"inputs": [
				{
					"internalType": "uint256",
					"name": "amount",
					"type": "uint256"
				}
			],
			"name": "withdraw",
			"outputs": [
				{
					"internalType": "string",
					"name": "",
					"type": "string"
				}
			],
			"stateMutability": "nonpayable",
			"type": "function"
		}
	]
}