{
	"Hospital.sol": {
		"Hospital": {
			"abi": [
				{
					"inputs": [
						{
							"internalType": "string",
							"name": "hospitalName",
							"type": "string"
						},
						{
							"internalType": "string",
							"name": "doctorname",
							"type": "string"
						}
					],
					"stateMutability": "nonpayable",
					"type": "constructor"
				},
				{
					"inputs": [
						{
							"internalType": "uint256",
							"name": "day",
							"type": "uint256"
						}
					],
					"name": "CalculateBill",
					"outputs": [
						{
							"internalType": "uint256",
							"name": "",
							"type": "uint256"
						}
					],
					"stateMutability": "pure",
					"type": "function"
				},
				{
					"inputs": [],
					"name": "admitpatient",
					"outputs": [],
					"stateMutability": "nonpayable",
					"type": "function"
				},
				{
					"inputs": [],
					"name": "d",
					"outputs": [
						{
							"internalType": "string",
							"name": "hospitalName",
							"type": "string"
						},
						{
							"internalType": "string",
							"name": "DoctorName",
							"type": "string"
						},
						{
							"internalType": "uint256",
							"name": "patientCount",
							"type": "uint256"
						},
						{
							"internalType": "bool",
							"name": "EmergencyOpen",
							"type": "bool"
						}
					],
					"stateMutability": "view",
					"type": "function"
				},
				{
					"inputs": [],
					"name": "discharge",
					"outputs": [],
					"stateMutability": "nonpayable",
					"type": "function"
				}
			],
			"devdoc": {
				"kind": "dev",
				"methods": {},
				"version": 1
			},
			"evm": {
				"assembly": "    /* \"Hospital.sol\":59:732  contract Hospital{... */\n  mstore(0x40, 0x80)\n    /* \"Hospital.sol\":249:451  constructor(string memory hospitalName,string memory doctorname){... */\n  callvalue\n  dup1\n  iszero\n  tag_1\n  jumpi\n  revert(0x00, 0x00)\ntag_1:\n  pop\n  mload(0x40)\n  sub(codesize, bytecodeSize)\n  dup1\n  bytecodeSize\n  dup4\n  codecopy\n  dup2\n  dup2\n  add\n  0x40\n  mstore\n  dup2\n  add\n  swap1\n  tag_2\n  swap2\n  swap1\n  tag_3\n  jump\t// in\ntag_2:\n    /* \"Hospital.sol\":339:351  hospitalName */\n  dup2\n    /* \"Hospital.sol\":324:325  d */\n  0x00\n    /* \"Hospital.sol\":324:338  d.hospitalName */\n  0x00\n  add\n    /* \"Hospital.sol\":324:351  d.hospitalName=hospitalName */\n  swap1\n  dup2\n  tag_6\n  swap2\n  swap1\n  tag_7\n  jump\t// in\ntag_6:\n  pop\n    /* \"Hospital.sol\":375:385  doctorname */\n  dup1\n    /* \"Hospital.sol\":362:363  d */\n  0x00\n    /* \"Hospital.sol\":362:374  d.DoctorName */\n  0x01\n  add\n    /* \"Hospital.sol\":362:385  d.DoctorName=doctorname */\n  swap1\n  dup2\n  tag_8\n  swap2\n  swap1\n  tag_7\n  jump\t// in\ntag_8:\n  pop\n    /* \"Hospital.sol\":411:412  0 */\n  0x00\n    /* \"Hospital.sol\":396:397  d */\n  0x00\n    /* \"Hospital.sol\":396:410  d.patientCount */\n  0x02\n  add\n    /* \"Hospital.sol\":396:412  d.patientCount=0 */\n  dup2\n  swap1\n  sstore\n  pop\n    /* \"Hospital.sol\":439:443  true */\n  0x01\n    /* \"Hospital.sol\":423:424  d */\n  0x00\n    /* \"Hospital.sol\":423:438  d.EmergencyOpen */\n  0x03\n  add\n  0x00\n    /* \"Hospital.sol\":423:443  d.EmergencyOpen=true */\n  0x0100\n  exp\n  dup2\n  sload\n  dup2\n  0xff\n  mul\n  not\n  and\n  swap1\n  dup4\n  iszero\n  iszero\n  mul\n  or\n  swap1\n  sstore\n  pop\n    /* \"Hospital.sol\":249:451  constructor(string memory hospitalName,string memory doctorname){... */\n  pop\n  pop\n    /* \"Hospital.sol\":59:732  contract Hospital{... */\n  jump(tag_9)\n    /* \"#utility.yul\":7:82   */\ntag_10:\n    /* \"#utility.yul\":40:46   */\n  0x00\n    /* \"#utility.yul\":73:75   */\n  0x40\n    /* \"#utility.yul\":67:76   */\n  mload\n    /* \"#utility.yul\":57:76   */\n  swap1\n  pop\n    /* \"#utility.yul\":7:82   */\n  swap1\n  jump\t// out\n    /* \"#utility.yul\":88:205   */\ntag_11:\n    /* \"#utility.yul\":197:198   */\n  0x00\n    /* \"#utility.yul\":194:195   */\n  0x00\n    /* \"#utility.yul\":187:199   */\n  revert\n    /* \"#utility.yul\":211:328   */\ntag_12:\n    /* \"#utility.yul\":320:321   */\n  0x00\n    /* \"#utility.yul\":317:318   */\n  0x00\n    /* \"#utility.yul\":310:322   */\n  revert\n    /* \"#utility.yul\":334:451   */\ntag_13:\n    /* \"#utility.yul\":443:444   */\n  0x00\n    /* \"#utility.yul\":440:441   */\n  0x00\n    /* \"#utility.yul\":433:445   */\n  revert\n    /* \"#utility.yul\":457:574   */\ntag_14:\n    /* \"#utility.yul\":566:567   */\n  0x00\n    /* \"#utility.yul\":563:564   */\n  0x00\n    /* \"#utility.yul\":556:568   */\n  revert\n    /* \"#utility.yul\":580:682   */\ntag_15:\n    /* \"#utility.yul\":621:627   */\n  0x00\n    /* \"#utility.yul\":672:674   */\n  0x1f\n    /* \"#utility.yul\":668:675   */\n  not\n    /* \"#utility.yul\":663:665   */\n  0x1f\n    /* \"#utility.yul\":656:661   */\n  dup4\n    /* \"#utility.yul\":652:666   */\n  add\n    /* \"#utility.yul\":648:676   */\n  and\n    /* \"#utility.yul\":638:676   */\n  swap1\n  pop\n    /* \"#utility.yul\":580:682   */\n  swap2\n  swap1\n  pop\n  jump\t// out\n    /* \"#utility.yul\":688:868   */\ntag_16:\n    /* \"#utility.yul\":736:813   */\n  0x4e487b7100000000000000000000000000000000000000000000000000000000\n    /* \"#utility.yul\":733:734   */\n  0x00\n    /* \"#utility.yul\":726:814   */\n  mstore\n    /* \"#utility.yul\":833:837   */\n  0x41\n    /* \"#utility.yul\":830:831   */\n  0x04\n    /* \"#utility.yul\":823:838   */\n  mstore\n    /* \"#utility.yul\":857:861   */\n  0x24\n    /* \"#utility.yul\":854:855   */\n  0x00\n    /* \"#utility.yul\":847:862   */\n  revert\n    /* \"#utility.yul\":874:1155   */\ntag_17:\n    /* \"#utility.yul\":957:984   */\n  tag_51\n    /* \"#utility.yul\":979:983   */\n  dup3\n    /* \"#utility.yul\":957:984   */\n  tag_15\n  jump\t// in\ntag_51:\n    /* \"#utility.yul\":949:955   */\n  dup2\n    /* \"#utility.yul\":945:985   */\n  add\n    /* \"#utility.yul\":1087:1093   */\n  dup2\n    /* \"#utility.yul\":1075:1085   */\n  dup2\n    /* \"#utility.yul\":1072:1094   */\n  lt\n    /* \"#utility.yul\":1051:1069   */\n  0xffffffffffffffff\n    /* \"#utility.yul\":1039:1049   */\n  dup3\n    /* \"#utility.yul\":1036:1070   */\n  gt\n    /* \"#utility.yul\":1033:1095   */\n  or\n    /* \"#utility.yul\":1030:1118   */\n  iszero\n  tag_52\n  jumpi\n    /* \"#utility.yul\":1098:1116   */\n  tag_53\n  tag_16\n  jump\t// in\ntag_53:\n    /* \"#utility.yul\":1030:1118   */\ntag_52:\n    /* \"#utility.yul\":1138:1148   */\n  dup1\n    /* \"#utility.yul\":1134:1136   */\n  0x40\n    /* \"#utility.yul\":1127:1149   */\n  mstore\n    /* \"#utility.yul\":917:1155   */\n  pop\n    /* \"#utility.yul\":874:1155   */\n  pop\n  pop\n  jump\t// out\n    /* \"#utility.yul\":1161:1290   */\ntag_18:\n    /* \"#utility.yul\":1195:1201   */\n  0x00\n    /* \"#utility.yul\":1222:1242   */\n  tag_55\n  tag_10\n  jump\t// in\ntag_55:\n    /* \"#utility.yul\":1212:1242   */\n  swap1\n  pop\n    /* \"#utility.yul\":1251:1284   */\n  tag_56\n    /* \"#utility.yul\":1279:1283   */\n  dup3\n    /* \"#utility.yul\":1271:1277   */\n  dup3\n    /* \"#utility.yul\":1251:1284   */\n  tag_17\n  jump\t// in\ntag_56:\n    /* \"#utility.yul\":1161:1290   */\n  swap2\n  swap1\n  pop\n  jump\t// out\n    /* \"#utility.yul\":1296:1604   */\ntag_19:\n    /* \"#utility.yul\":1358:1362   */\n  0x00\n    /* \"#utility.yul\":1448:1466   */\n  0xffffffffffffffff\n    /* \"#utility.yul\":1440:1446   */\n  dup3\n    /* \"#utility.yul\":1437:1467   */\n  gt\n    /* \"#utility.yul\":1434:1490   */\n  iszero\n  tag_58\n  jumpi\n    /* \"#utility.yul\":1470:1488   */\n  tag_59\n  tag_16\n  jump\t// in\ntag_59:\n    /* \"#utility.yul\":1434:1490   */\ntag_58:\n    /* \"#utility.yul\":1508:1537   */\n  tag_60\n    /* \"#utility.yul\":1530:1536   */\n  dup3\n    /* \"#utility.yul\":1508:1537   */\n  tag_15\n  jump\t// in\ntag_60:\n    /* \"#utility.yul\":1500:1537   */\n  swap1\n  pop\n    /* \"#utility.yul\":1592:1596   */\n  0x20\n    /* \"#utility.yul\":1586:1590   */\n  dup2\n    /* \"#utility.yul\":1582:1597   */\n  add\n    /* \"#utility.yul\":1574:1597   */\n  swap1\n  pop\n    /* \"#utility.yul\":1296:1604   */\n  swap2\n  swap1\n  pop\n  jump\t// out\n    /* \"#utility.yul\":1610:1749   */\ntag_20:\n    /* \"#utility.yul\":1699:1705   */\n  dup3\n    /* \"#utility.yul\":1694:1697   */\n  dup2\n    /* \"#utility.yul\":1689:1692   */\n  dup4\n    /* \"#utility.yul\":1683:1706   */\n  mcopy\n    /* \"#utility.yul\":1740:1741   */\n  0x00\n    /* \"#utility.yul\":1731:1737   */\n  dup4\n    /* \"#utility.yul\":1726:1729   */\n  dup4\n    /* \"#utility.yul\":1722:1738   */\n  add\n    /* \"#utility.yul\":1715:1742   */\n  mstore\n    /* \"#utility.yul\":1610:1749   */\n  pop\n  pop\n  pop\n  jump\t// out\n    /* \"#utility.yul\":1755:2189   */\ntag_21:\n    /* \"#utility.yul\":1844:1849   */\n  0x00\n    /* \"#utility.yul\":1869:1935   */\n  tag_63\n    /* \"#utility.yul\":1885:1934   */\n  tag_64\n    /* \"#utility.yul\":1927:1933   */\n  dup5\n    /* \"#utility.yul\":1885:1934   */\n  tag_19\n  jump\t// in\ntag_64:\n    /* \"#utility.yul\":1869:1935   */\n  tag_18\n  jump\t// in\ntag_63:\n    /* \"#utility.yul\":1860:1935   */\n  swap1\n  pop\n    /* \"#utility.yul\":1958:1964   */\n  dup3\n    /* \"#utility.yul\":1951:1956   */\n  dup2\n    /* \"#utility.yul\":1944:1965   */\n  mstore\n    /* \"#utility.yul\":1996:2000   */\n  0x20\n    /* \"#utility.yul\":1989:1994   */\n  dup2\n    /* \"#utility.yul\":1985:2001   */\n  add\n    /* \"#utility.yul\":2034:2037   */\n  dup5\n    /* \"#utility.yul\":2025:2031   */\n  dup5\n    /* \"#utility.yul\":2020:2023   */\n  dup5\n    /* \"#utility.yul\":2016:2032   */\n  add\n    /* \"#utility.yul\":2013:2038   */\n  gt\n    /* \"#utility.yul\":2010:2122   */\n  iszero\n  tag_65\n  jumpi\n    /* \"#utility.yul\":2041:2120   */\n  tag_66\n  tag_14\n  jump\t// in\ntag_66:\n    /* \"#utility.yul\":2010:2122   */\ntag_65:\n    /* \"#utility.yul\":2131:2183   */\n  tag_67\n    /* \"#utility.yul\":2176:2182   */\n  dup5\n    /* \"#utility.yul\":2171:2174   */\n  dup3\n    /* \"#utility.yul\":2166:2169   */\n  dup6\n    /* \"#utility.yul\":2131:2183   */\n  tag_20\n  jump\t// in\ntag_67:\n    /* \"#utility.yul\":1850:2189   */\n  pop\n    /* \"#utility.yul\":1755:2189   */\n  swap4\n  swap3\n  pop\n  pop\n  pop\n  jump\t// out\n    /* \"#utility.yul\":2209:2564   */\ntag_22:\n    /* \"#utility.yul\":2276:2281   */\n  0x00\n    /* \"#utility.yul\":2325:2328   */\n  dup3\n    /* \"#utility.yul\":2318:2322   */\n  0x1f\n    /* \"#utility.yul\":2310:2316   */\n  dup4\n    /* \"#utility.yul\":2306:2323   */\n  add\n    /* \"#utility.yul\":2302:2329   */\n  slt\n    /* \"#utility.yul\":2292:2414   */\n  tag_69\n  jumpi\n    /* \"#utility.yul\":2333:2412   */\n  tag_70\n  tag_13\n  jump\t// in\ntag_70:\n    /* \"#utility.yul\":2292:2414   */\ntag_69:\n    /* \"#utility.yul\":2443:2449   */\n  dup2\n    /* \"#utility.yul\":2437:2450   */\n  mload\n    /* \"#utility.yul\":2468:2558   */\n  tag_71\n    /* \"#utility.yul\":2554:2557   */\n  dup5\n    /* \"#utility.yul\":2546:2552   */\n  dup3\n    /* \"#utility.yul\":2539:2543   */\n  0x20\n    /* \"#utility.yul\":2531:2537   */\n  dup7\n    /* \"#utility.yul\":2527:2544   */\n  add\n    /* \"#utility.yul\":2468:2558   */\n  tag_21\n  jump\t// in\ntag_71:\n    /* \"#utility.yul\":2459:2558   */\n  swap2\n  pop\n    /* \"#utility.yul\":2282:2564   */\n  pop\n    /* \"#utility.yul\":2209:2564   */\n  swap3\n  swap2\n  pop\n  pop\n  jump\t// out\n    /* \"#utility.yul\":2570:3423   */\ntag_3:\n    /* \"#utility.yul\":2669:2675   */\n  0x00\n    /* \"#utility.yul\":2677:2683   */\n  0x00\n    /* \"#utility.yul\":2726:2728   */\n  0x40\n    /* \"#utility.yul\":2714:2723   */\n  dup4\n    /* \"#utility.yul\":2705:2712   */\n  dup6\n    /* \"#utility.yul\":2701:2724   */\n  sub\n    /* \"#utility.yul\":2697:2729   */\n  slt\n    /* \"#utility.yul\":2694:2813   */\n  iszero\n  tag_73\n  jumpi\n    /* \"#utility.yul\":2732:2811   */\n  tag_74\n  tag_11\n  jump\t// in\ntag_74:\n    /* \"#utility.yul\":2694:2813   */\ntag_73:\n    /* \"#utility.yul\":2873:2874   */\n  0x00\n    /* \"#utility.yul\":2862:2871   */\n  dup4\n    /* \"#utility.yul\":2858:2875   */\n  add\n    /* \"#utility.yul\":2852:2876   */\n  mload\n    /* \"#utility.yul\":2903:2921   */\n  0xffffffffffffffff\n    /* \"#utility.yul\":2895:2901   */\n  dup2\n    /* \"#utility.yul\":2892:2922   */\n  gt\n    /* \"#utility.yul\":2889:3006   */\n  iszero\n  tag_75\n  jumpi\n    /* \"#utility.yul\":2925:3004   */\n  tag_76\n  tag_12\n  jump\t// in\ntag_76:\n    /* \"#utility.yul\":2889:3006   */\ntag_75:\n    /* \"#utility.yul\":3030:3104   */\n  tag_77\n    /* \"#utility.yul\":3096:3103   */\n  dup6\n    /* \"#utility.yul\":3087:3093   */\n  dup3\n    /* \"#utility.yul\":3076:3085   */\n  dup7\n    /* \"#utility.yul\":3072:3094   */\n  add\n    /* \"#utility.yul\":3030:3104   */\n  tag_22\n  jump\t// in\ntag_77:\n    /* \"#utility.yul\":3020:3104   */\n  swap3\n  pop\n    /* \"#utility.yul\":2823:3114   */\n  pop\n    /* \"#utility.yul\":3174:3176   */\n  0x20\n    /* \"#utility.yul\":3163:3172   */\n  dup4\n    /* \"#utility.yul\":3159:3177   */\n  add\n    /* \"#utility.yul\":3153:3178   */\n  mload\n    /* \"#utility.yul\":3205:3223   */\n  0xffffffffffffffff\n    /* \"#utility.yul\":3197:3203   */\n  dup2\n    /* \"#utility.yul\":3194:3224   */\n  gt\n    /* \"#utility.yul\":3191:3308   */\n  iszero\n  tag_78\n  jumpi\n    /* \"#utility.yul\":3227:3306   */\n  tag_79\n  tag_12\n  jump\t// in\ntag_79:\n    /* \"#utility.yul\":3191:3308   */\ntag_78:\n    /* \"#utility.yul\":3332:3406   */\n  tag_80\n    /* \"#utility.yul\":3398:3405   */\n  dup6\n    /* \"#utility.yul\":3389:3395   */\n  dup3\n    /* \"#utility.yul\":3378:3387   */\n  dup7\n    /* \"#utility.yul\":3374:3396   */\n  add\n    /* \"#utility.yul\":3332:3406   */\n  tag_22\n  jump\t// in\ntag_80:\n    /* \"#utility.yul\":3322:3406   */\n  swap2\n  pop\n    /* \"#utility.yul\":3124:3416   */\n  pop\n    /* \"#utility.yul\":2570:3423   */\n  swap3\n  pop\n  swap3\n  swap1\n  pop\n  jump\t// out\n    /* \"#utility.yul\":3429:3528   */\ntag_23:\n    /* \"#utility.yul\":3481:3487   */\n  0x00\n    /* \"#utility.yul\":3515:3520   */\n  dup2\n    /* \"#utility.yul\":3509:3521   */\n  mload\n    /* \"#utility.yul\":3499:3521   */\n  swap1\n  pop\n    /* \"#utility.yul\":3429:3528   */\n  swap2\n  swap1\n  pop\n  jump\t// out\n    /* \"#utility.yul\":3534:3714   */\ntag_24:\n    /* \"#utility.yul\":3582:3659   */\n  0x4e487b7100000000000000000000000000000000000000000000000000000000\n    /* \"#utility.yul\":3579:3580   */\n  0x00\n    /* \"#utility.yul\":3572:3660   */\n  mstore\n    /* \"#utility.yul\":3679:3683   */\n  0x22\n    /* \"#utility.yul\":3676:3677   */\n  0x04\n    /* \"#utility.yul\":3669:3684   */\n  mstore\n    /* \"#utility.yul\":3703:3707   */\n  0x24\n    /* \"#utility.yul\":3700:3701   */\n  0x00\n    /* \"#utility.yul\":3693:3708   */\n  revert\n    /* \"#utility.yul\":3720:4040   */\ntag_25:\n    /* \"#utility.yul\":3764:3770   */\n  0x00\n    /* \"#utility.yul\":3801:3802   */\n  0x02\n    /* \"#utility.yul\":3795:3799   */\n  dup3\n    /* \"#utility.yul\":3791:3803   */\n  div\n    /* \"#utility.yul\":3781:3803   */\n  swap1\n  pop\n    /* \"#utility.yul\":3848:3849   */\n  0x01\n    /* \"#utility.yul\":3842:3846   */\n  dup3\n    /* \"#utility.yul\":3838:3850   */\n  and\n    /* \"#utility.yul\":3869:3887   */\n  dup1\n    /* \"#utility.yul\":3859:3940   */\n  tag_84\n  jumpi\n    /* \"#utility.yul\":3925:3929   */\n  0x7f\n    /* \"#utility.yul\":3917:3923   */\n  dup3\n    /* \"#utility.yul\":3913:3930   */\n  and\n    /* \"#utility.yul\":3903:3930   */\n  swap2\n  pop\n    /* \"#utility.yul\":3859:3940   */\ntag_84:\n    /* \"#utility.yul\":3987:3989   */\n  0x20\n    /* \"#utility.yul\":3979:3985   */\n  dup3\n    /* \"#utility.yul\":3976:3990   */\n  lt\n    /* \"#utility.yul\":3956:3974   */\n  dup2\n    /* \"#utility.yul\":3953:3991   */\n  sub\n    /* \"#utility.yul\":3950:4034   */\n  tag_85\n  jumpi\n    /* \"#utility.yul\":4006:4024   */\n  tag_86\n  tag_24\n  jump\t// in\ntag_86:\n    /* \"#utility.yul\":3950:4034   */\ntag_85:\n    /* \"#utility.yul\":3771:4040   */\n  pop\n    /* \"#utility.yul\":3720:4040   */\n  swap2\n  swap1\n  pop\n  jump\t// out\n    /* \"#utility.yul\":4046:4187   */\ntag_26:\n    /* \"#utility.yul\":4095:4099   */\n  0x00\n    /* \"#utility.yul\":4118:4121   */\n  dup2\n    /* \"#utility.yul\":4110:4121   */\n  swap1\n  pop\n    /* \"#utility.yul\":4141:4144   */\n  dup2\n    /* \"#utility.yul\":4138:4139   */\n  0x00\n    /* \"#utility.yul\":4131:4145   */\n  mstore\n    /* \"#utility.yul\":4175:4179   */\n  0x20\n    /* \"#utility.yul\":4172:4173   */\n  0x00\n    /* \"#utility.yul\":4162:4180   */\n  keccak256\n    /* \"#utility.yul\":4154:4180   */\n  swap1\n  pop\n    /* \"#utility.yul\":4046:4187   */\n  swap2\n  swap1\n  pop\n  jump\t// out\n    /* \"#utility.yul\":4193:4286   */\ntag_27:\n    /* \"#utility.yul\":4230:4236   */\n  0x00\n    /* \"#utility.yul\":4277:4279   */\n  0x20\n    /* \"#utility.yul\":4272:4274   */\n  0x1f\n    /* \"#utility.yul\":4265:4270   */\n  dup4\n    /* \"#utility.yul\":4261:4275   */\n  add\n    /* \"#utility.yul\":4257:4280   */\n  div\n    /* \"#utility.yul\":4247:4280   */\n  swap1\n  pop\n    /* \"#utility.yul\":4193:4286   */\n  swap2\n  swap1\n  pop\n  jump\t// out\n    /* \"#utility.yul\":4292:4399   */\ntag_28:\n    /* \"#utility.yul\":4336:4344   */\n  0x00\n    /* \"#utility.yul\":4386:4391   */\n  dup3\n    /* \"#utility.yul\":4380:4384   */\n  dup3\n    /* \"#utility.yul\":4376:4392   */\n  shl\n    /* \"#utility.yul\":4355:4392   */\n  swap1\n  pop\n    /* \"#utility.yul\":4292:4399   */\n  swap3\n  swap2\n  pop\n  pop\n  jump\t// out\n    /* \"#utility.yul\":4405:4798   */\ntag_29:\n    /* \"#utility.yul\":4474:4480   */\n  0x00\n    /* \"#utility.yul\":4524:4525   */\n  0x08\n    /* \"#utility.yul\":4512:4522   */\n  dup4\n    /* \"#utility.yul\":4508:4526   */\n  mul\n    /* \"#utility.yul\":4547:4644   */\n  tag_91\n    /* \"#utility.yul\":4577:4643   */\n  0xffffffffffffffffffffffffffffffffffffffffffffffffffffffffffffffff\n    /* \"#utility.yul\":4566:4575   */\n  dup3\n    /* \"#utility.yul\":4547:4644   */\n  tag_28\n  jump\t// in\ntag_91:\n    /* \"#utility.yul\":4665:4704   */\n  tag_92\n    /* \"#utility.yul\":4695:4703   */\n  dup7\n    /* \"#utility.yul\":4684:4693   */\n  dup4\n    /* \"#utility.yul\":4665:4704   */\n  tag_28\n  jump\t// in\ntag_92:\n    /* \"#utility.yul\":4653:4704   */\n  swap6\n  pop\n    /* \"#utility.yul\":4737:4741   */\n  dup1\n    /* \"#utility.yul\":4733:4742   */\n  not\n    /* \"#utility.yul\":4726:4731   */\n  dup5\n    /* \"#utility.yul\":4722:4743   */\n  and\n    /* \"#utility.yul\":4713:4743   */\n  swap4\n  pop\n    /* \"#utility.yul\":4786:4790   */\n  dup1\n    /* \"#utility.yul\":4776:4784   */\n  dup7\n    /* \"#utility.yul\":4772:4791   */\n  and\n    /* \"#utility.yul\":4765:4770   */\n  dup5\n    /* \"#utility.yul\":4762:4792   */\n  or\n    /* \"#utility.yul\":4752:4792   */\n  swap3\n  pop\n    /* \"#utility.yul\":4481:4798   */\n  pop\n  pop\n    /* \"#utility.yul\":4405:4798   */\n  swap4\n  swap3\n  pop\n  pop\n  pop\n  jump\t// out\n    /* \"#utility.yul\":4804:4881   */\ntag_30:\n    /* \"#utility.yul\":4841:4848   */\n  0x00\n    /* \"#utility.yul\":4870:4875   */\n  dup2\n    /* \"#utility.yul\":4859:4875   */\n  swap1\n  pop\n    /* \"#utility.yul\":4804:4881   */\n  swap2\n  swap1\n  pop\n  jump\t// out\n    /* \"#utility.yul\":4887:4947   */\ntag_31:\n    /* \"#utility.yul\":4915:4918   */\n  0x00\n    /* \"#utility.yul\":4936:4941   */\n  dup2\n    /* \"#utility.yul\":4929:4941   */\n  swap1\n  pop\n    /* \"#utility.yul\":4887:4947   */\n  swap2\n  swap1\n  pop\n  jump\t// out\n    /* \"#utility.yul\":4953:5095   */\ntag_32:\n    /* \"#utility.yul\":5003:5012   */\n  0x00\n    /* \"#utility.yul\":5036:5089   */\n  tag_96\n    /* \"#utility.yul\":5054:5088   */\n  tag_97\n    /* \"#utility.yul\":5063:5087   */\n  tag_98\n    /* \"#utility.yul\":5081:5086   */\n  dup5\n    /* \"#utility.yul\":5063:5087   */\n  tag_30\n  jump\t// in\ntag_98:\n    /* \"#utility.yul\":5054:5088   */\n  tag_31\n  jump\t// in\ntag_97:\n    /* \"#utility.yul\":5036:5089   */\n  tag_30\n  jump\t// in\ntag_96:\n    /* \"#utility.yul\":5023:5089   */\n  swap1\n  pop\n    /* \"#utility.yul\":4953:5095   */\n  swap2\n  swap1\n  pop\n  jump\t// out\n    /* \"#utility.yul\":5101:5176   */\ntag_33:\n    /* \"#utility.yul\":5144:5147   */\n  0x00\n    /* \"#utility.yul\":5165:5170   */\n  dup2\n    /* \"#utility.yul\":5158:5170   */\n  swap1\n  pop\n    /* \"#utility.yul\":5101:5176   */\n  swap2\n  swap1\n  pop\n  jump\t// out\n    /* \"#utility.yul\":5182:5451   */\ntag_34:\n    /* \"#utility.yul\":5292:5331   */\n  tag_101\n    /* \"#utility.yul\":5323:5330   */\n  dup4\n    /* \"#utility.yul\":5292:5331   */\n  tag_32\n  jump\t// in\ntag_101:\n    /* \"#utility.yul\":5353:5444   */\n  tag_102\n    /* \"#utility.yul\":5402:5443   */\n  tag_103\n    /* \"#utility.yul\":5426:5442   */\n  dup3\n    /* \"#utility.yul\":5402:5443   */\n  tag_33\n  jump\t// in\ntag_103:\n    /* \"#utility.yul\":5394:5400   */\n  dup5\n    /* \"#utility.yul\":5387:5391   */\n  dup5\n    /* \"#utility.yul\":5381:5392   */\n  sload\n    /* \"#utility.yul\":5353:5444   */\n  tag_29\n  jump\t// in\ntag_102:\n    /* \"#utility.yul\":5347:5351   */\n  dup3\n    /* \"#utility.yul\":5340:5445   */\n  sstore\n    /* \"#utility.yul\":5258:5451   */\n  pop\n    /* \"#utility.yul\":5182:5451   */\n  pop\n  pop\n  pop\n  jump\t// out\n    /* \"#utility.yul\":5457:5530   */\ntag_35:\n    /* \"#utility.yul\":5502:5505   */\n  0x00\n    /* \"#utility.yul\":5523:5524   */\n  0x00\n    /* \"#utility.yul\":5516:5524   */\n  swap1\n  pop\n    /* \"#utility.yul\":5457:5530   */\n  swap1\n  jump\t// out\n    /* \"#utility.yul\":5536:5725   */\ntag_36:\n    /* \"#utility.yul\":5613:5645   */\n  tag_106\n  tag_35\n  jump\t// in\ntag_106:\n    /* \"#utility.yul\":5654:5719   */\n  tag_107\n    /* \"#utility.yul\":5712:5718   */\n  dup2\n    /* \"#utility.yul\":5704:5710   */\n  dup5\n    /* \"#utility.yul\":5698:5702   */\n  dup5\n    /* \"#utility.yul\":5654:5719   */\n  tag_34\n  jump\t// in\ntag_107:\n    /* \"#utility.yul\":5589:5725   */\n  pop\n    /* \"#utility.yul\":5536:5725   */\n  pop\n  pop\n  jump\t// out\n    /* \"#utility.yul\":5731:5917   */\ntag_37:\n    /* \"#utility.yul\":5791:5911   */\ntag_109:\n    /* \"#utility.yul\":5808:5811   */\n  dup2\n    /* \"#utility.yul\":5801:5806   */\n  dup2\n    /* \"#utility.yul\":5798:5812   */\n  lt\n    /* \"#utility.yul\":5791:5911   */\n  iszero\n  tag_111\n  jumpi\n    /* \"#utility.yul\":5862:5901   */\n  tag_112\n    /* \"#utility.yul\":5899:5900   */\n  0x00\n    /* \"#utility.yul\":5892:5897   */\n  dup3\n    /* \"#utility.yul\":5862:5901   */\n  tag_36\n  jump\t// in\ntag_112:\n    /* \"#utility.yul\":5835:5836   */\n  0x01\n    /* \"#utility.yul\":5828:5833   */\n  dup2\n    /* \"#utility.yul\":5824:5837   */\n  add\n    /* \"#utility.yul\":5815:5837   */\n  swap1\n  pop\n    /* \"#utility.yul\":5791:5911   */\n  jump(tag_109)\ntag_111:\n    /* \"#utility.yul\":5731:5917   */\n  pop\n  pop\n  jump\t// out\n    /* \"#utility.yul\":5923:6466   */\ntag_38:\n    /* \"#utility.yul\":6024:6026   */\n  0x1f\n    /* \"#utility.yul\":6019:6022   */\n  dup3\n    /* \"#utility.yul\":6016:6027   */\n  gt\n    /* \"#utility.yul\":6013:6459   */\n  iszero\n  tag_114\n  jumpi\n    /* \"#utility.yul\":6058:6096   */\n  tag_115\n    /* \"#utility.yul\":6090:6095   */\n  dup2\n    /* \"#utility.yul\":6058:6096   */\n  tag_26\n  jump\t// in\ntag_115:\n    /* \"#utility.yul\":6142:6171   */\n  tag_116\n    /* \"#utility.yul\":6160:6170   */\n  dup5\n    /* \"#utility.yul\":6142:6171   */\n  tag_27\n  jump\t// in\ntag_116:\n    /* \"#utility.yul\":6132:6140   */\n  dup2\n    /* \"#utility.yul\":6128:6172   */\n  add\n    /* \"#utility.yul\":6325:6327   */\n  0x20\n    /* \"#utility.yul\":6313:6323   */\n  dup6\n    /* \"#utility.yul\":6310:6328   */\n  lt\n    /* \"#utility.yul\":6307:6356   */\n  iszero\n  tag_117\n  jumpi\n    /* \"#utility.yul\":6346:6354   */\n  dup2\n    /* \"#utility.yul\":6331:6354   */\n  swap1\n  pop\n    /* \"#utility.yul\":6307:6356   */\ntag_117:\n    /* \"#utility.yul\":6369:6449   */\n  tag_118\n    /* \"#utility.yul\":6425:6447   */\n  tag_119\n    /* \"#utility.yul\":6443:6446   */\n  dup6\n    /* \"#utility.yul\":6425:6447   */\n  tag_27\n  jump\t// in\ntag_119:\n    /* \"#utility.yul\":6415:6423   */\n  dup4\n    /* \"#utility.yul\":6411:6448   */\n  add\n    /* \"#utility.yul\":6398:6409   */\n  dup3\n    /* \"#utility.yul\":6369:6449   */\n  tag_37\n  jump\t// in\ntag_118:\n    /* \"#utility.yul\":6028:6459   */\n  pop\n  pop\n    /* \"#utility.yul\":6013:6459   */\ntag_114:\n    /* \"#utility.yul\":5923:6466   */\n  pop\n  pop\n  pop\n  jump\t// out\n    /* \"#utility.yul\":6472:6589   */\ntag_39:\n    /* \"#utility.yul\":6526:6534   */\n  0x00\n    /* \"#utility.yul\":6576:6581   */\n  dup3\n    /* \"#utility.yul\":6570:6574   */\n  dup3\n    /* \"#utility.yul\":6566:6582   */\n  shr\n    /* \"#utility.yul\":6545:6582   */\n  swap1\n  pop\n    /* \"#utility.yul\":6472:6589   */\n  swap3\n  swap2\n  pop\n  pop\n  jump\t// out\n    /* \"#utility.yul\":6595:6764   */\ntag_40:\n    /* \"#utility.yul\":6639:6645   */\n  0x00\n    /* \"#utility.yul\":6672:6723   */\n  tag_122\n    /* \"#utility.yul\":6720:6721   */\n  0x00\n    /* \"#utility.yul\":6716:6722   */\n  not\n    /* \"#utility.yul\":6708:6713   */\n  dup5\n    /* \"#utility.yul\":6705:6706   */\n  0x08\n    /* \"#utility.yul\":6701:6714   */\n  mul\n    /* \"#utility.yul\":6672:6723   */\n  tag_39\n  jump\t// in\ntag_122:\n    /* \"#utility.yul\":6668:6724   */\n  not\n    /* \"#utility.yul\":6753:6757   */\n  dup1\n    /* \"#utility.yul\":6747:6751   */\n  dup4\n    /* \"#utility.yul\":6743:6758   */\n  and\n    /* \"#utility.yul\":6733:6758   */\n  swap2\n  pop\n    /* \"#utility.yul\":6646:6764   */\n  pop\n    /* \"#utility.yul\":6595:6764   */\n  swap3\n  swap2\n  pop\n  pop\n  jump\t// out\n    /* \"#utility.yul\":6769:7064   */\ntag_41:\n    /* \"#utility.yul\":6845:6849   */\n  0x00\n    /* \"#utility.yul\":6991:7020   */\n  tag_124\n    /* \"#utility.yul\":7016:7019   */\n  dup4\n    /* \"#utility.yul\":7010:7014   */\n  dup4\n    /* \"#utility.yul\":6991:7020   */\n  tag_40\n  jump\t// in\ntag_124:\n    /* \"#utility.yul\":6983:7020   */\n  swap2\n  pop\n    /* \"#utility.yul\":7053:7056   */\n  dup3\n    /* \"#utility.yul\":7050:7051   */\n  0x02\n    /* \"#utility.yul\":7046:7057   */\n  mul\n    /* \"#utility.yul\":7040:7044   */\n  dup3\n    /* \"#utility.yul\":7037:7058   */\n  or\n    /* \"#utility.yul\":7029:7058   */\n  swap1\n  pop\n    /* \"#utility.yul\":6769:7064   */\n  swap3\n  swap2\n  pop\n  pop\n  jump\t// out\n    /* \"#utility.yul\":7069:8464   */\ntag_7:\n    /* \"#utility.yul\":7186:7223   */\n  tag_126\n    /* \"#utility.yul\":7219:7222   */\n  dup3\n    /* \"#utility.yul\":7186:7223   */\n  tag_23\n  jump\t// in\ntag_126:\n    /* \"#utility.yul\":7288:7306   */\n  0xffffffffffffffff\n    /* \"#utility.yul\":7280:7286   */\n  dup2\n    /* \"#utility.yul\":7277:7307   */\n  gt\n    /* \"#utility.yul\":7274:7330   */\n  iszero\n  tag_127\n  jumpi\n    /* \"#utility.yul\":7310:7328   */\n  tag_128\n  tag_16\n  jump\t// in\ntag_128:\n    /* \"#utility.yul\":7274:7330   */\ntag_127:\n    /* \"#utility.yul\":7354:7392   */\n  tag_129\n    /* \"#utility.yul\":7386:7390   */\n  dup3\n    /* \"#utility.yul\":7380:7391   */\n  sload\n    /* \"#utility.yul\":7354:7392   */\n  tag_25\n  jump\t// in\ntag_129:\n    /* \"#utility.yul\":7439:7506   */\n  tag_130\n    /* \"#utility.yul\":7499:7505   */\n  dup3\n    /* \"#utility.yul\":7491:7497   */\n  dup3\n    /* \"#utility.yul\":7485:7489   */\n  dup6\n    /* \"#utility.yul\":7439:7506   */\n  tag_38\n  jump\t// in\ntag_130:\n    /* \"#utility.yul\":7533:7534   */\n  0x00\n    /* \"#utility.yul\":7557:7561   */\n  0x20\n    /* \"#utility.yul\":7544:7561   */\n  swap1\n  pop\n    /* \"#utility.yul\":7589:7591   */\n  0x1f\n    /* \"#utility.yul\":7581:7587   */\n  dup4\n    /* \"#utility.yul\":7578:7592   */\n  gt\n    /* \"#utility.yul\":7606:7607   */\n  0x01\n    /* \"#utility.yul\":7601:8219   */\n  dup2\n  eq\n  tag_132\n  jumpi\n    /* \"#utility.yul\":8263:8264   */\n  0x00\n    /* \"#utility.yul\":8280:8286   */\n  dup5\n    /* \"#utility.yul\":8277:8354   */\n  iszero\n  tag_133\n  jumpi\n    /* \"#utility.yul\":8329:8338   */\n  dup3\n    /* \"#utility.yul\":8324:8327   */\n  dup8\n    /* \"#utility.yul\":8320:8339   */\n  add\n    /* \"#utility.yul\":8314:8340   */\n  mload\n    /* \"#utility.yul\":8305:8340   */\n  swap1\n  pop\n    /* \"#utility.yul\":8277:8354   */\ntag_133:\n    /* \"#utility.yul\":8380:8447   */\n  tag_134\n    /* \"#utility.yul\":8440:8446   */\n  dup6\n    /* \"#utility.yul\":8433:8438   */\n  dup3\n    /* \"#utility.yul\":8380:8447   */\n  tag_41\n  jump\t// in\ntag_134:\n    /* \"#utility.yul\":8374:8378   */\n  dup7\n    /* \"#utility.yul\":8367:8448   */\n  sstore\n    /* \"#utility.yul\":8236:8458   */\n  pop\n    /* \"#utility.yul\":7571:8458   */\n  jump(tag_131)\n    /* \"#utility.yul\":7601:8219   */\ntag_132:\n    /* \"#utility.yul\":7653:7657   */\n  0x1f\n    /* \"#utility.yul\":7649:7658   */\n  not\n    /* \"#utility.yul\":7641:7647   */\n  dup5\n    /* \"#utility.yul\":7637:7659   */\n  and\n    /* \"#utility.yul\":7687:7724   */\n  tag_135\n    /* \"#utility.yul\":7719:7723   */\n  dup7\n    /* \"#utility.yul\":7687:7724   */\n  tag_26\n  jump\t// in\ntag_135:\n    /* \"#utility.yul\":7746:7747   */\n  0x00\n    /* \"#utility.yul\":7760:7968   */\ntag_136:\n    /* \"#utility.yul\":7774:7781   */\n  dup3\n    /* \"#utility.yul\":7771:7772   */\n  dup2\n    /* \"#utility.yul\":7768:7782   */\n  lt\n    /* \"#utility.yul\":7760:7968   */\n  iszero\n  tag_138\n  jumpi\n    /* \"#utility.yul\":7853:7862   */\n  dup5\n    /* \"#utility.yul\":7848:7851   */\n  dup10\n    /* \"#utility.yul\":7844:7863   */\n  add\n    /* \"#utility.yul\":7838:7864   */\n  mload\n    /* \"#utility.yul\":7830:7836   */\n  dup3\n    /* \"#utility.yul\":7823:7865   */\n  sstore\n    /* \"#utility.yul\":7904:7905   */\n  0x01\n    /* \"#utility.yul\":7896:7902   */\n  dup3\n    /* \"#utility.yul\":7892:7906   */\n  add\n    /* \"#utility.yul\":7882:7906   */\n  swap2\n  pop\n    /* \"#utility.yul\":7951:7953   */\n  0x20\n    /* \"#utility.yul\":7940:7949   */\n  dup6\n    /* \"#utility.yul\":7936:7954   */\n  add\n    /* \"#utility.yul\":7923:7954   */\n  swap5\n  pop\n    /* \"#utility.yul\":7797:7801   */\n  0x20\n    /* \"#utility.yul\":7794:7795   */\n  dup2\n    /* \"#utility.yul\":7790:7802   */\n  add\n    /* \"#utility.yul\":7785:7802   */\n  swap1\n  pop\n    /* \"#utility.yul\":7760:7968   */\n  jump(tag_136)\ntag_138:\n    /* \"#utility.yul\":7996:8002   */\n  dup7\n    /* \"#utility.yul\":7987:7994   */\n  dup4\n    /* \"#utility.yul\":7984:8003   */\n  lt\n    /* \"#utility.yul\":7981:8160   */\n  iszero\n  tag_139\n  jumpi\n    /* \"#utility.yul\":8054:8063   */\n  dup5\n    /* \"#utility.yul\":8049:8052   */\n  dup10\n    /* \"#utility.yul\":8045:8064   */\n  add\n    /* \"#utility.yul\":8039:8065   */\n  mload\n    /* \"#utility.yul\":8097:8145   */\n  tag_140\n    /* \"#utility.yul\":8139:8143   */\n  0x1f\n    /* \"#utility.yul\":8131:8137   */\n  dup10\n    /* \"#utility.yul\":8127:8144   */\n  and\n    /* \"#utility.yul\":8116:8125   */\n  dup3\n    /* \"#utility.yul\":8097:8145   */\n  tag_40\n  jump\t// in\ntag_140:\n    /* \"#utility.yul\":8089:8095   */\n  dup4\n    /* \"#utility.yul\":8082:8146   */\n  sstore\n    /* \"#utility.yul\":8004:8160   */\n  pop\n    /* \"#utility.yul\":7981:8160   */\ntag_139:\n    /* \"#utility.yul\":8206:8207   */\n  0x01\n    /* \"#utility.yul\":8202:8203   */\n  0x02\n    /* \"#utility.yul\":8194:8200   */\n  dup9\n    /* \"#utility.yul\":8190:8204   */\n  mul\n    /* \"#utility.yul\":8186:8208   */\n  add\n    /* \"#utility.yul\":8180:8184   */\n  dup9\n    /* \"#utility.yul\":8173:8209   */\n  sstore\n    /* \"#utility.yul\":7608:8219   */\n  pop\n  pop\n  pop\n    /* \"#utility.yul\":7571:8458   */\ntag_131:\n  pop\n    /* \"#utility.yul\":7161:8464   */\n  pop\n  pop\n  pop\n    /* \"#utility.yul\":7069:8464   */\n  pop\n  pop\n  jump\t// out\n    /* \"Hospital.sol\":59:732  contract Hospital{... */\ntag_9:\n  dataSize(sub_0)\n  dup1\n  dataOffset(sub_0)\n  0x00\n  codecopy\n  0x00\n  return\nstop\n\nsub_0: assembly {\n        /* \"Hospital.sol\":59:732  contract Hospital{... */\n      mstore(0x40, 0x80)\n      callvalue\n      dup1\n      iszero\n      tag_1\n      jumpi\n      revert(0x00, 0x00)\n    tag_1:\n      pop\n      jumpi(tag_2, lt(calldatasize, 0x04))\n      shr(0xe0, calldataload(0x00))\n      dup1\n      0x3696b780\n      eq\n      tag_3\n      jumpi\n      dup1\n      0x6cc652a0\n      eq\n      tag_4\n      jumpi\n      dup1\n      0x8a054ac2\n      eq\n      tag_5\n      jumpi\n      dup1\n      0xafb090c8\n      eq\n      tag_6\n      jumpi\n    tag_2:\n      revert(0x00, 0x00)\n        /* \"Hospital.sol\":635:725  function CalculateBill(uint day)public pure returns(uint){... */\n    tag_3:\n      tag_7\n      0x04\n      dup1\n      calldatasize\n      sub\n      dup2\n      add\n      swap1\n      tag_8\n      swap2\n      swap1\n      tag_9\n      jump\t// in\n    tag_8:\n      tag_10\n      jump\t// in\n    tag_7:\n      mload(0x40)\n      tag_11\n      swap2\n      swap1\n      tag_12\n      jump\t// in\n    tag_11:\n      mload(0x40)\n      dup1\n      swap2\n      sub\n      swap1\n      return\n        /* \"Hospital.sol\":457:547  function admitpatient()public {... */\n    tag_4:\n      tag_13\n      tag_14\n      jump\t// in\n    tag_13:\n      stop\n        /* \"Hospital.sol\":226:242  Details public d */\n    tag_5:\n      tag_15\n      tag_16\n      jump\t// in\n    tag_15:\n      mload(0x40)\n      tag_17\n      swap5\n      swap4\n      swap3\n      swap2\n      swap1\n      tag_18\n      jump\t// in\n    tag_17:\n      mload(0x40)\n      dup1\n      swap2\n      sub\n      swap1\n      return\n        /* \"Hospital.sol\":553:629  function discharge()public{... */\n    tag_6:\n      tag_19\n      tag_20\n      jump\t// in\n    tag_19:\n      stop\n        /* \"Hospital.sol\":635:725  function CalculateBill(uint day)public pure returns(uint){... */\n    tag_10:\n        /* \"Hospital.sol\":687:691  uint */\n      0x00\n        /* \"Hospital.sol\":714:717  500 */\n      0x01f4\n        /* \"Hospital.sol\":710:713  day */\n      dup3\n        /* \"Hospital.sol\":710:717  day*500 */\n      tag_22\n      swap2\n      swap1\n      tag_23\n      jump\t// in\n    tag_22:\n        /* \"Hospital.sol\":703:717  return day*500 */\n      swap1\n      pop\n        /* \"Hospital.sol\":635:725  function CalculateBill(uint day)public pure returns(uint){... */\n      swap2\n      swap1\n      pop\n      jump\t// out\n        /* \"Hospital.sol\":457:547  function admitpatient()public {... */\n    tag_14:\n        /* \"Hospital.sol\":528:529  1 */\n      0x01\n        /* \"Hospital.sol\":513:514  d */\n      0x00\n        /* \"Hospital.sol\":513:527  d.patientCount */\n      0x02\n      add\n      sload\n        /* \"Hospital.sol\":513:529  d.patientCount+1 */\n      tag_25\n      swap2\n      swap1\n      tag_26\n      jump\t// in\n    tag_25:\n        /* \"Hospital.sol\":498:499  d */\n      0x00\n        /* \"Hospital.sol\":498:512  d.patientCount */\n      0x02\n      add\n        /* \"Hospital.sol\":498:529  d.patientCount=d.patientCount+1 */\n      dup2\n      swap1\n      sstore\n      pop\n        /* \"Hospital.sol\":457:547  function admitpatient()public {... */\n      jump\t// out\n        /* \"Hospital.sol\":226:242  Details public d */\n    tag_16:\n      0x00\n      dup1\n      0x00\n      add\n      dup1\n      sload\n      tag_27\n      swap1\n      tag_28\n      jump\t// in\n    tag_27:\n      dup1\n      0x1f\n      add\n      0x20\n      dup1\n      swap2\n      div\n      mul\n      0x20\n      add\n      mload(0x40)\n      swap1\n      dup2\n      add\n      0x40\n      mstore\n      dup1\n      swap3\n      swap2\n      swap1\n      dup2\n      dup2\n      mstore\n      0x20\n      add\n      dup3\n      dup1\n      sload\n      tag_29\n      swap1\n      tag_28\n      jump\t// in\n    tag_29:\n      dup1\n      iszero\n      tag_30\n      jumpi\n      dup1\n      0x1f\n      lt\n      tag_31\n      jumpi\n      0x0100\n      dup1\n      dup4\n      sload\n      div\n      mul\n      dup4\n      mstore\n      swap2\n      0x20\n      add\n      swap2\n      jump(tag_30)\n    tag_31:\n      dup3\n      add\n      swap2\n      swap1\n      0x00\n      mstore\n      keccak256(0x00, 0x20)\n      swap1\n    tag_32:\n      dup2\n      sload\n      dup2\n      mstore\n      swap1\n      0x01\n      add\n      swap1\n      0x20\n      add\n      dup1\n      dup4\n      gt\n      tag_32\n      jumpi\n      dup3\n      swap1\n      sub\n      0x1f\n      and\n      dup3\n      add\n      swap2\n    tag_30:\n      pop\n      pop\n      pop\n      pop\n      pop\n      swap1\n      dup1\n      0x01\n      add\n      dup1\n      sload\n      tag_33\n      swap1\n      tag_28\n      jump\t// in\n    tag_33:\n      dup1\n      0x1f\n      add\n      0x20\n      dup1\n      swap2\n      div\n      mul\n      0x20\n      add\n      mload(0x40)\n      swap1\n      dup2\n      add\n      0x40\n      mstore\n      dup1\n      swap3\n      swap2\n      swap1\n      dup2\n      dup2\n      mstore\n      0x20\n      add\n      dup3\n      dup1\n      sload\n      tag_34\n      swap1\n      tag_28\n      jump\t// in\n    tag_34:\n      dup1\n      iszero\n      tag_35\n      jumpi\n      dup1\n      0x1f\n      lt\n      tag_36\n      jumpi\n      0x0100\n      dup1\n      dup4\n      sload\n      div\n      mul\n      dup4\n      mstore\n      swap2\n      0x20\n      add\n      swap2\n      jump(tag_35)\n    tag_36:\n      dup3\n      add\n      swap2\n      swap1\n      0x00\n      mstore\n      keccak256(0x00, 0x20)\n      swap1\n    tag_37:\n      dup2\n      sload\n      dup2\n      mstore\n      swap1\n      0x01\n      add\n      swap1\n      0x20\n      add\n      dup1\n      dup4\n      gt\n      tag_37\n      jumpi\n      dup3\n      swap1\n      sub\n      0x1f\n      and\n      dup3\n      add\n      swap2\n    tag_35:\n      pop\n      pop\n      pop\n      pop\n      pop\n      swap1\n      dup1\n      0x02\n      add\n      sload\n      swap1\n      dup1\n      0x03\n      add\n      0x00\n      swap1\n      sload\n      swap1\n      0x0100\n      exp\n      swap1\n      div\n      0xff\n      and\n      swap1\n      pop\n      dup5\n      jump\t// out\n        /* \"Hospital.sol\":553:629  function discharge()public{... */\n    tag_20:\n        /* \"Hospital.sol\":620:621  1 */\n      0x01\n        /* \"Hospital.sol\":605:606  d */\n      0x00\n        /* \"Hospital.sol\":605:619  d.patientCount */\n      0x02\n      add\n      sload\n        /* \"Hospital.sol\":605:621  d.patientCount-1 */\n      tag_39\n      swap2\n      swap1\n      tag_40\n      jump\t// in\n    tag_39:\n        /* \"Hospital.sol\":590:591  d */\n      0x00\n        /* \"Hospital.sol\":590:604  d.patientCount */\n      0x02\n      add\n        /* \"Hospital.sol\":590:621  d.patientCount=d.patientCount-1 */\n      dup2\n      swap1\n      sstore\n      pop\n        /* \"Hospital.sol\":553:629  function discharge()public{... */\n      jump\t// out\n        /* \"#utility.yul\":88:205   */\n    tag_42:\n        /* \"#utility.yul\":197:198   */\n      0x00\n        /* \"#utility.yul\":194:195   */\n      0x00\n        /* \"#utility.yul\":187:199   */\n      revert\n        /* \"#utility.yul\":334:411   */\n    tag_44:\n        /* \"#utility.yul\":371:378   */\n      0x00\n        /* \"#utility.yul\":400:405   */\n      dup2\n        /* \"#utility.yul\":389:405   */\n      swap1\n      pop\n        /* \"#utility.yul\":334:411   */\n      swap2\n      swap1\n      pop\n      jump\t// out\n        /* \"#utility.yul\":417:539   */\n    tag_45:\n        /* \"#utility.yul\":490:514   */\n      tag_63\n        /* \"#utility.yul\":508:513   */\n      dup2\n        /* \"#utility.yul\":490:514   */\n      tag_44\n      jump\t// in\n    tag_63:\n        /* \"#utility.yul\":483:488   */\n      dup2\n        /* \"#utility.yul\":480:515   */\n      eq\n        /* \"#utility.yul\":470:533   */\n      tag_64\n      jumpi\n        /* \"#utility.yul\":529:530   */\n      0x00\n        /* \"#utility.yul\":526:527   */\n      0x00\n        /* \"#utility.yul\":519:531   */\n      revert\n        /* \"#utility.yul\":470:533   */\n    tag_64:\n        /* \"#utility.yul\":417:539   */\n      pop\n      jump\t// out\n        /* \"#utility.yul\":545:684   */\n    tag_46:\n        /* \"#utility.yul\":591:596   */\n      0x00\n        /* \"#utility.yul\":629:635   */\n      dup2\n        /* \"#utility.yul\":616:636   */\n      calldataload\n        /* \"#utility.yul\":607:636   */\n      swap1\n      pop\n        /* \"#utility.yul\":645:678   */\n      tag_66\n        /* \"#utility.yul\":672:677   */\n      dup2\n        /* \"#utility.yul\":645:678   */\n      tag_45\n      jump\t// in\n    tag_66:\n        /* \"#utility.yul\":545:684   */\n      swap3\n      swap2\n      pop\n      pop\n      jump\t// out\n        /* \"#utility.yul\":690:1019   */\n    tag_9:\n        /* \"#utility.yul\":749:755   */\n      0x00\n        /* \"#utility.yul\":798:800   */\n      0x20\n        /* \"#utility.yul\":786:795   */\n      dup3\n        /* \"#utility.yul\":777:784   */\n      dup5\n        /* \"#utility.yul\":773:796   */\n      sub\n        /* \"#utility.yul\":769:801   */\n      slt\n        /* \"#utility.yul\":766:885   */\n      iszero\n      tag_68\n      jumpi\n        /* \"#utility.yul\":804:883   */\n      tag_69\n      tag_42\n      jump\t// in\n    tag_69:\n        /* \"#utility.yul\":766:885   */\n    tag_68:\n        /* \"#utility.yul\":924:925   */\n      0x00\n        /* \"#utility.yul\":949:1002   */\n      tag_70\n        /* \"#utility.yul\":994:1001   */\n      dup5\n        /* \"#utility.yul\":985:991   */\n      dup3\n        /* \"#utility.yul\":974:983   */\n      dup6\n        /* \"#utility.yul\":970:992   */\n      add\n        /* \"#utility.yul\":949:1002   */\n      tag_46\n      jump\t// in\n    tag_70:\n        /* \"#utility.yul\":939:1002   */\n      swap2\n      pop\n        /* \"#utility.yul\":895:1012   */\n      pop\n        /* \"#utility.yul\":690:1019   */\n      swap3\n      swap2\n      pop\n      pop\n      jump\t// out\n        /* \"#utility.yul\":1025:1143   */\n    tag_47:\n        /* \"#utility.yul\":1112:1136   */\n      tag_72\n        /* \"#utility.yul\":1130:1135   */\n      dup2\n        /* \"#utility.yul\":1112:1136   */\n      tag_44\n      jump\t// in\n    tag_72:\n        /* \"#utility.yul\":1107:1110   */\n      dup3\n        /* \"#utility.yul\":1100:1137   */\n      mstore\n        /* \"#utility.yul\":1025:1143   */\n      pop\n      pop\n      jump\t// out\n        /* \"#utility.yul\":1149:1371   */\n    tag_12:\n        /* \"#utility.yul\":1242:1246   */\n      0x00\n        /* \"#utility.yul\":1280:1282   */\n      0x20\n        /* \"#utility.yul\":1269:1278   */\n      dup3\n        /* \"#utility.yul\":1265:1283   */\n      add\n        /* \"#utility.yul\":1257:1283   */\n      swap1\n      pop\n        /* \"#utility.yul\":1293:1364   */\n      tag_74\n        /* \"#utility.yul\":1361:1362   */\n      0x00\n        /* \"#utility.yul\":1350:1359   */\n      dup4\n        /* \"#utility.yul\":1346:1363   */\n      add\n        /* \"#utility.yul\":1337:1343   */\n      dup5\n        /* \"#utility.yul\":1293:1364   */\n      tag_47\n      jump\t// in\n    tag_74:\n        /* \"#utility.yul\":1149:1371   */\n      swap3\n      swap2\n      pop\n      pop\n      jump\t// out\n        /* \"#utility.yul\":1377:1476   */\n    tag_48:\n        /* \"#utility.yul\":1429:1435   */\n      0x00\n        /* \"#utility.yul\":1463:1468   */\n      dup2\n        /* \"#utility.yul\":1457:1469   */\n      mload\n        /* \"#utility.yul\":1447:1469   */\n      swap1\n      pop\n        /* \"#utility.yul\":1377:1476   */\n      swap2\n      swap1\n      pop\n      jump\t// out\n        /* \"#utility.yul\":1482:1651   */\n    tag_49:\n        /* \"#utility.yul\":1566:1577   */\n      0x00\n        /* \"#utility.yul\":1600:1606   */\n      dup3\n        /* \"#utility.yul\":1595:1598   */\n      dup3\n        /* \"#utility.yul\":1588:1607   */\n      mstore\n        /* \"#utility.yul\":1640:1644   */\n      0x20\n        /* \"#utility.yul\":1635:1638   */\n      dup3\n        /* \"#utility.yul\":1631:1645   */\n      add\n        /* \"#utility.yul\":1616:1645   */\n      swap1\n      pop\n        /* \"#utility.yul\":1482:1651   */\n      swap3\n      swap2\n      pop\n      pop\n      jump\t// out\n        /* \"#utility.yul\":1657:1796   */\n    tag_50:\n        /* \"#utility.yul\":1746:1752   */\n      dup3\n        /* \"#utility.yul\":1741:1744   */\n      dup2\n        /* \"#utility.yul\":1736:1739   */\n      dup4\n        /* \"#utility.yul\":1730:1753   */\n      mcopy\n        /* \"#utility.yul\":1787:1788   */\n      0x00\n        /* \"#utility.yul\":1778:1784   */\n      dup4\n        /* \"#utility.yul\":1773:1776   */\n      dup4\n        /* \"#utility.yul\":1769:1785   */\n      add\n        /* \"#utility.yul\":1762:1789   */\n      mstore\n        /* \"#utility.yul\":1657:1796   */\n      pop\n      pop\n      pop\n      jump\t// out\n        /* \"#utility.yul\":1802:1904   */\n    tag_51:\n        /* \"#utility.yul\":1843:1849   */\n      0x00\n        /* \"#utility.yul\":1894:1896   */\n      0x1f\n        /* \"#utility.yul\":1890:1897   */\n      not\n        /* \"#utility.yul\":1885:1887   */\n      0x1f\n        /* \"#utility.yul\":1878:1883   */\n      dup4\n        /* \"#utility.yul\":1874:1888   */\n      add\n        /* \"#utility.yul\":1870:1898   */\n      and\n        /* \"#utility.yul\":1860:1898   */\n      swap1\n      pop\n        /* \"#utility.yul\":1802:1904   */\n      swap2\n      swap1\n      pop\n      jump\t// out\n        /* \"#utility.yul\":1910:2287   */\n    tag_52:\n        /* \"#utility.yul\":1998:2001   */\n      0x00\n        /* \"#utility.yul\":2026:2065   */\n      tag_80\n        /* \"#utility.yul\":2059:2064   */\n      dup3\n        /* \"#utility.yul\":2026:2065   */\n      tag_48\n      jump\t// in\n    tag_80:\n        /* \"#utility.yul\":2081:2152   */\n      tag_81\n        /* \"#utility.yul\":2145:2151   */\n      dup2\n        /* \"#utility.yul\":2140:2143   */\n      dup6\n        /* \"#utility.yul\":2081:2152   */\n      tag_49\n      jump\t// in\n    tag_81:\n        /* \"#utility.yul\":2074:2152   */\n      swap4\n      pop\n        /* \"#utility.yul\":2161:2226   */\n      tag_82\n        /* \"#utility.yul\":2219:2225   */\n      dup2\n        /* \"#utility.yul\":2214:2217   */\n      dup6\n        /* \"#utility.yul\":2207:2211   */\n      0x20\n        /* \"#utility.yul\":2200:2205   */\n      dup7\n        /* \"#utility.yul\":2196:2212   */\n      add\n        /* \"#utility.yul\":2161:2226   */\n      tag_50\n      jump\t// in\n    tag_82:\n        /* \"#utility.yul\":2251:2280   */\n      tag_83\n        /* \"#utility.yul\":2273:2279   */\n      dup2\n        /* \"#utility.yul\":2251:2280   */\n      tag_51\n      jump\t// in\n    tag_83:\n        /* \"#utility.yul\":2246:2249   */\n      dup5\n        /* \"#utility.yul\":2242:2281   */\n      add\n        /* \"#utility.yul\":2235:2281   */\n      swap2\n      pop\n        /* \"#utility.yul\":2002:2287   */\n      pop\n        /* \"#utility.yul\":1910:2287   */\n      swap3\n      swap2\n      pop\n      pop\n      jump\t// out\n        /* \"#utility.yul\":2293:2383   */\n    tag_53:\n        /* \"#utility.yul\":2327:2334   */\n      0x00\n        /* \"#utility.yul\":2370:2375   */\n      dup2\n        /* \"#utility.yul\":2363:2376   */\n      iszero\n        /* \"#utility.yul\":2356:2377   */\n      iszero\n        /* \"#utility.yul\":2345:2377   */\n      swap1\n      pop\n        /* \"#utility.yul\":2293:2383   */\n      swap2\n      swap1\n      pop\n      jump\t// out\n        /* \"#utility.yul\":2389:2498   */\n    tag_54:\n        /* \"#utility.yul\":2470:2491   */\n      tag_86\n        /* \"#utility.yul\":2485:2490   */\n      dup2\n        /* \"#utility.yul\":2470:2491   */\n      tag_53\n      jump\t// in\n    tag_86:\n        /* \"#utility.yul\":2465:2468   */\n      dup3\n        /* \"#utility.yul\":2458:2492   */\n      mstore\n        /* \"#utility.yul\":2389:2498   */\n      pop\n      pop\n      jump\t// out\n        /* \"#utility.yul\":2504:3227   */\n    tag_18:\n        /* \"#utility.yul\":2715:2719   */\n      0x00\n        /* \"#utility.yul\":2753:2756   */\n      0x80\n        /* \"#utility.yul\":2742:2751   */\n      dup3\n        /* \"#utility.yul\":2738:2757   */\n      add\n        /* \"#utility.yul\":2730:2757   */\n      swap1\n      pop\n        /* \"#utility.yul\":2803:2812   */\n      dup2\n        /* \"#utility.yul\":2797:2801   */\n      dup2\n        /* \"#utility.yul\":2793:2813   */\n      sub\n        /* \"#utility.yul\":2789:2790   */\n      0x00\n        /* \"#utility.yul\":2778:2787   */\n      dup4\n        /* \"#utility.yul\":2774:2791   */\n      add\n        /* \"#utility.yul\":2767:2814   */\n      mstore\n        /* \"#utility.yul\":2831:2909   */\n      tag_88\n        /* \"#utility.yul\":2904:2908   */\n      dup2\n        /* \"#utility.yul\":2895:2901   */\n      dup8\n        /* \"#utility.yul\":2831:2909   */\n      tag_52\n      jump\t// in\n    tag_88:\n        /* \"#utility.yul\":2823:2909   */\n      swap1\n      pop\n        /* \"#utility.yul\":2956:2965   */\n      dup2\n        /* \"#utility.yul\":2950:2954   */\n      dup2\n        /* \"#utility.yul\":2946:2966   */\n      sub\n        /* \"#utility.yul\":2941:2943   */\n      0x20\n        /* \"#utility.yul\":2930:2939   */\n      dup4\n        /* \"#utility.yul\":2926:2944   */\n      add\n        /* \"#utility.yul\":2919:2967   */\n      mstore\n        /* \"#utility.yul\":2984:3062   */\n      tag_89\n        /* \"#utility.yul\":3057:3061   */\n      dup2\n        /* \"#utility.yul\":3048:3054   */\n      dup7\n        /* \"#utility.yul\":2984:3062   */\n      tag_52\n      jump\t// in\n    tag_89:\n        /* \"#utility.yul\":2976:3062   */\n      swap1\n      pop\n        /* \"#utility.yul\":3072:3144   */\n      tag_90\n        /* \"#utility.yul\":3140:3142   */\n      0x40\n        /* \"#utility.yul\":3129:3138   */\n      dup4\n        /* \"#utility.yul\":3125:3143   */\n      add\n        /* \"#utility.yul\":3116:3122   */\n      dup6\n        /* \"#utility.yul\":3072:3144   */\n      tag_47\n      jump\t// in\n    tag_90:\n        /* \"#utility.yul\":3154:3220   */\n      tag_91\n        /* \"#utility.yul\":3216:3218   */\n      0x60\n        /* \"#utility.yul\":3205:3214   */\n      dup4\n        /* \"#utility.yul\":3201:3219   */\n      add\n        /* \"#utility.yul\":3192:3198   */\n      dup5\n        /* \"#utility.yul\":3154:3220   */\n      tag_54\n      jump\t// in\n    tag_91:\n        /* \"#utility.yul\":2504:3227   */\n      swap6\n      swap5\n      pop\n      pop\n      pop\n      pop\n      pop\n      jump\t// out\n        /* \"#utility.yul\":3233:3413   */\n    tag_55:\n        /* \"#utility.yul\":3281:3358   */\n      0x4e487b7100000000000000000000000000000000000000000000000000000000\n        /* \"#utility.yul\":3278:3279   */\n      0x00\n        /* \"#utility.yul\":3271:3359   */\n      mstore\n        /* \"#utility.yul\":3378:3382   */\n      0x11\n        /* \"#utility.yul\":3375:3376   */\n      0x04\n        /* \"#utility.yul\":3368:3383   */\n      mstore\n        /* \"#utility.yul\":3402:3406   */\n      0x24\n        /* \"#utility.yul\":3399:3400   */\n      0x00\n        /* \"#utility.yul\":3392:3407   */\n      revert\n        /* \"#utility.yul\":3419:3829   */\n    tag_23:\n        /* \"#utility.yul\":3459:3466   */\n      0x00\n        /* \"#utility.yul\":3482:3502   */\n      tag_94\n        /* \"#utility.yul\":3500:3501   */\n      dup3\n        /* \"#utility.yul\":3482:3502   */\n      tag_44\n      jump\t// in\n    tag_94:\n        /* \"#utility.yul\":3477:3502   */\n      swap2\n      pop\n        /* \"#utility.yul\":3516:3536   */\n      tag_95\n        /* \"#utility.yul\":3534:3535   */\n      dup4\n        /* \"#utility.yul\":3516:3536   */\n      tag_44\n      jump\t// in\n    tag_95:\n        /* \"#utility.yul\":3511:3536   */\n      swap3\n      pop\n        /* \"#utility.yul\":3571:3572   */\n      dup3\n        /* \"#utility.yul\":3568:3569   */\n      dup3\n        /* \"#utility.yul\":3564:3573   */\n      mul\n        /* \"#utility.yul\":3593:3623   */\n      tag_96\n        /* \"#utility.yul\":3611:3622   */\n      dup2\n        /* \"#utility.yul\":3593:3623   */\n      tag_44\n      jump\t// in\n    tag_96:\n        /* \"#utility.yul\":3582:3623   */\n      swap2\n      pop\n        /* \"#utility.yul\":3772:3773   */\n      dup3\n        /* \"#utility.yul\":3763:3770   */\n      dup3\n        /* \"#utility.yul\":3759:3774   */\n      div\n        /* \"#utility.yul\":3756:3757   */\n      dup5\n        /* \"#utility.yul\":3753:3775   */\n      eq\n        /* \"#utility.yul\":3733:3734   */\n      dup4\n        /* \"#utility.yul\":3726:3735   */\n      iszero\n        /* \"#utility.yul\":3706:3789   */\n      or\n        /* \"#utility.yul\":3683:3822   */\n      tag_97\n      jumpi\n        /* \"#utility.yul\":3802:3820   */\n      tag_98\n      tag_55\n      jump\t// in\n    tag_98:\n        /* \"#utility.yul\":3683:3822   */\n    tag_97:\n        /* \"#utility.yul\":3467:3829   */\n      pop\n        /* \"#utility.yul\":3419:3829   */\n      swap3\n      swap2\n      pop\n      pop\n      jump\t// out\n        /* \"#utility.yul\":3835:4026   */\n    tag_26:\n        /* \"#utility.yul\":3875:3878   */\n      0x00\n        /* \"#utility.yul\":3894:3914   */\n      tag_100\n        /* \"#utility.yul\":3912:3913   */\n      dup3\n        /* \"#utility.yul\":3894:3914   */\n      tag_44\n      jump\t// in\n    tag_100:\n        /* \"#utility.yul\":3889:3914   */\n      swap2\n      pop\n        /* \"#utility.yul\":3928:3948   */\n      tag_101\n        /* \"#utility.yul\":3946:3947   */\n      dup4\n        /* \"#utility.yul\":3928:3948   */\n      tag_44\n      jump\t// in\n    tag_101:\n        /* \"#utility.yul\":3923:3948   */\n      swap3\n      pop\n        /* \"#utility.yul\":3971:3972   */\n      dup3\n        /* \"#utility.yul\":3968:3969   */\n      dup3\n        /* \"#utility.yul\":3964:3973   */\n      add\n        /* \"#utility.yul\":3957:3973   */\n      swap1\n      pop\n        /* \"#utility.yul\":3992:3995   */\n      dup1\n        /* \"#utility.yul\":3989:3990   */\n      dup3\n        /* \"#utility.yul\":3986:3996   */\n      gt\n        /* \"#utility.yul\":3983:4019   */\n      iszero\n      tag_102\n      jumpi\n        /* \"#utility.yul\":3999:4017   */\n      tag_103\n      tag_55\n      jump\t// in\n    tag_103:\n        /* \"#utility.yul\":3983:4019   */\n    tag_102:\n        /* \"#utility.yul\":3835:4026   */\n      swap3\n      swap2\n      pop\n      pop\n      jump\t// out\n        /* \"#utility.yul\":4032:4212   */\n    tag_56:\n        /* \"#utility.yul\":4080:4157   */\n      0x4e487b7100000000000000000000000000000000000000000000000000000000\n        /* \"#utility.yul\":4077:4078   */\n      0x00\n        /* \"#utility.yul\":4070:4158   */\n      mstore\n        /* \"#utility.yul\":4177:4181   */\n      0x22\n        /* \"#utility.yul\":4174:4175   */\n      0x04\n        /* \"#utility.yul\":4167:4182   */\n      mstore\n        /* \"#utility.yul\":4201:4205   */\n      0x24\n        /* \"#utility.yul\":4198:4199   */\n      0x00\n        /* \"#utility.yul\":4191:4206   */\n      revert\n        /* \"#utility.yul\":4218:4538   */\n    tag_28:\n        /* \"#utility.yul\":4262:4268   */\n      0x00\n        /* \"#utility.yul\":4299:4300   */\n      0x02\n        /* \"#utility.yul\":4293:4297   */\n      dup3\n        /* \"#utility.yul\":4289:4301   */\n      div\n        /* \"#utility.yul\":4279:4301   */\n      swap1\n      pop\n        /* \"#utility.yul\":4346:4347   */\n      0x01\n        /* \"#utility.yul\":4340:4344   */\n      dup3\n        /* \"#utility.yul\":4336:4348   */\n      and\n        /* \"#utility.yul\":4367:4385   */\n      dup1\n        /* \"#utility.yul\":4357:4438   */\n      tag_106\n      jumpi\n        /* \"#utility.yul\":4423:4427   */\n      0x7f\n        /* \"#utility.yul\":4415:4421   */\n      dup3\n        /* \"#utility.yul\":4411:4428   */\n      and\n        /* \"#utility.yul\":4401:4428   */\n      swap2\n      pop\n        /* \"#utility.yul\":4357:4438   */\n    tag_106:\n        /* \"#utility.yul\":4485:4487   */\n      0x20\n        /* \"#utility.yul\":4477:4483   */\n      dup3\n        /* \"#utility.yul\":4474:4488   */\n      lt\n        /* \"#utility.yul\":4454:4472   */\n      dup2\n        /* \"#utility.yul\":4451:4489   */\n      sub\n        /* \"#utility.yul\":4448:4532   */\n      tag_107\n      jumpi\n        /* \"#utility.yul\":4504:4522   */\n      tag_108\n      tag_56\n      jump\t// in\n    tag_108:\n        /* \"#utility.yul\":4448:4532   */\n    tag_107:\n        /* \"#utility.yul\":4269:4538   */\n      pop\n        /* \"#utility.yul\":4218:4538   */\n      swap2\n      swap1\n      pop\n      jump\t// out\n        /* \"#utility.yul\":4544:4738   */\n    tag_40:\n        /* \"#utility.yul\":4584:4588   */\n      0x00\n        /* \"#utility.yul\":4604:4624   */\n      tag_110\n        /* \"#utility.yul\":4622:4623   */\n      dup3\n        /* \"#utility.yul\":4604:4624   */\n      tag_44\n      jump\t// in\n    tag_110:\n        /* \"#utility.yul\":4599:4624   */\n      swap2\n      pop\n        /* \"#utility.yul\":4638:4658   */\n      tag_111\n        /* \"#utility.yul\":4656:4657   */\n      dup4\n        /* \"#utility.yul\":4638:4658   */\n      tag_44\n      jump\t// in\n    tag_111:\n        /* \"#utility.yul\":4633:4658   */\n      swap3\n      pop\n        /* \"#utility.yul\":4682:4683   */\n      dup3\n        /* \"#utility.yul\":4679:4680   */\n      dup3\n        /* \"#utility.yul\":4675:4684   */\n      sub\n        /* \"#utility.yul\":4667:4684   */\n      swap1\n      pop\n        /* \"#utility.yul\":4706:4707   */\n      dup2\n        /* \"#utility.yul\":4700:4704   */\n      dup2\n        /* \"#utility.yul\":4697:4708   */\n      gt\n        /* \"#utility.yul\":4694:4731   */\n      iszero\n      tag_112\n      jumpi\n        /* \"#utility.yul\":4711:4729   */\n      tag_113\n      tag_55\n      jump\t// in\n    tag_113:\n        /* \"#utility.yul\":4694:4731   */\n    tag_112:\n        /* \"#utility.yul\":4544:4738   */\n      swap3\n      swap2\n      pop\n      pop\n      jump\t// out\n\n    auxdata: 0xa26469706673582212204f406aec550d3c36ca320227cd03e148fbaeba6f3838e9d35aff761472ed88c264736f6c634300081e0033\n}\n",
				"bytecode": {
					"linkReferences": {},
					"object": "608060405234801561000f575f5ffd5b50604051610a2e380380610a2e833981810160405281019061003191906101cd565b815f5f0190816100419190610453565b50805f60010190816100539190610453565b505f5f6002018190555060015f6003015f6101000a81548160ff0219169083151502179055505050610522565b5f604051905090565b5f5ffd5b5f5ffd5b5f5ffd5b5f5ffd5b5f601f19601f8301169050919050565b7f4e487b71000000000000000000000000000000000000000000000000000000005f52604160045260245ffd5b6100df82610099565b810181811067ffffffffffffffff821117156100fe576100fd6100a9565b5b80604052505050565b5f610110610080565b905061011c82826100d6565b919050565b5f67ffffffffffffffff82111561013b5761013a6100a9565b5b61014482610099565b9050602081019050919050565b8281835e5f83830152505050565b5f61017161016c84610121565b610107565b90508281526020810184848401111561018d5761018c610095565b5b610198848285610151565b509392505050565b5f82601f8301126101b4576101b3610091565b5b81516101c484826020860161015f565b91505092915050565b5f5f604083850312156101e3576101e2610089565b5b5f83015167ffffffffffffffff811115610200576101ff61008d565b5b61020c858286016101a0565b925050602083015167ffffffffffffffff81111561022d5761022c61008d565b5b610239858286016101a0565b9150509250929050565b5f81519050919050565b7f4e487b71000000000000000000000000000000000000000000000000000000005f52602260045260245ffd5b5f600282049050600182168061029157607f821691505b6020821081036102a4576102a361024d565b5b50919050565b5f819050815f5260205f209050919050565b5f6020601f8301049050919050565b5f82821b905092915050565b5f600883026103067fffffffffffffffffffffffffffffffffffffffffffffffffffffffffffffffff826102cb565b61031086836102cb565b95508019841693508086168417925050509392505050565b5f819050919050565b5f819050919050565b5f61035461034f61034a84610328565b610331565b610328565b9050919050565b5f819050919050565b61036d8361033a565b6103816103798261035b565b8484546102d7565b825550505050565b5f5f905090565b610398610389565b6103a3818484610364565b505050565b5b818110156103c6576103bb5f82610390565b6001810190506103a9565b5050565b601f82111561040b576103dc816102aa565b6103e5846102bc565b810160208510156103f4578190505b610408610400856102bc565b8301826103a8565b50505b505050565b5f82821c905092915050565b5f61042b5f1984600802610410565b1980831691505092915050565b5f610443838361041c565b9150826002028217905092915050565b61045c82610243565b67ffffffffffffffff811115610475576104746100a9565b5b61047f825461027a565b61048a8282856103ca565b5f60209050601f8311600181146104bb575f84156104a9578287015190505b6104b38582610438565b86555061051a565b601f1984166104c9866102aa565b5f5b828110156104f0578489015182556001820191506020850194506020810190506104cb565b8683101561050d5784890151610509601f89168261041c565b8355505b6001600288020188555050505b505050505050565b6104ff8061052f5f395ff3fe608060405234801561000f575f5ffd5b506004361061004a575f3560e01c80633696b7801461004e5780636cc652a01461007e5780638a054ac214610088578063afb090c8146100a9575b5f5ffd5b6100686004803603810190610063919061026a565b6100b3565b60405161007591906102a4565b60405180910390f35b6100866100c9565b005b6100906100e4565b6040516100a09493929190610347565b60405180910390f35b6100b1610218565b005b5f6101f4826100c291906103c5565b9050919050565b60015f600201546100da9190610406565b5f60020181905550565b5f805f0180546100f390610466565b80601f016020809104026020016040519081016040528092919081815260200182805461011f90610466565b801561016a5780601f106101415761010080835404028352916020019161016a565b820191905f5260205f20905b81548152906001019060200180831161014d57829003601f168201915b50505050509080600101805461017f90610466565b80601f01602080910402602001604051908101604052809291908181526020018280546101ab90610466565b80156101f65780601f106101cd576101008083540402835291602001916101f6565b820191905f5260205f20905b8154815290600101906020018083116101d957829003601f168201915b505050505090806002015490806003015f9054906101000a900460ff16905084565b60015f600201546102299190610496565b5f60020181905550565b5f5ffd5b5f819050919050565b61024981610237565b8114610253575f5ffd5b50565b5f8135905061026481610240565b92915050565b5f6020828403121561027f5761027e610233565b5b5f61028c84828501610256565b91505092915050565b61029e81610237565b82525050565b5f6020820190506102b75f830184610295565b92915050565b5f81519050919050565b5f82825260208201905092915050565b8281835e5f83830152505050565b5f601f19601f8301169050919050565b5f6102ff826102bd565b61030981856102c7565b93506103198185602086016102d7565b610322816102e5565b840191505092915050565b5f8115159050919050565b6103418161032d565b82525050565b5f6080820190508181035f83015261035f81876102f5565b9050818103602083015261037381866102f5565b90506103826040830185610295565b61038f6060830184610338565b95945050505050565b7f4e487b71000000000000000000000000000000000000000000000000000000005f52601160045260245ffd5b5f6103cf82610237565b91506103da83610237565b92508282026103e881610237565b915082820484148315176103ff576103fe610398565b5b5092915050565b5f61041082610237565b915061041b83610237565b925082820190508082111561043357610432610398565b5b92915050565b7f4e487b71000000000000000000000000000000000000000000000000000000005f52602260045260245ffd5b5f600282049050600182168061047d57607f821691505b6020821081036104905761048f610439565b5b50919050565b5f6104a082610237565b91506104ab83610237565b92508282039050818111156104c3576104c2610398565b5b9291505056fea26469706673582212204f406aec550d3c36ca320227cd03e148fbaeba6f3838e9d35aff761472ed88c264736f6c634300081e0033",
					"opcodes": "PUSH1 0x80 PUSH1 0x40 MSTORE CALLVALUE DUP1 ISZERO PUSH2 0xF JUMPI PUSH0 PUSH0 REVERT JUMPDEST POP PUSH1 0x40 MLOAD PUSH2 0xA2E CODESIZE SUB DUP1 PUSH2 0xA2E DUP4 CODECOPY DUP2 DUP2 ADD PUSH1 0x40 MSTORE DUP2 ADD SWAP1 PUSH2 0x31 SWAP2 SWAP1 PUSH2 0x1CD JUMP JUMPDEST DUP2 PUSH0 PUSH0 ADD SWAP1 DUP2 PUSH2 0x41 SWAP2 SWAP1 PUSH2 0x453 JUMP JUMPDEST POP DUP1 PUSH0 PUSH1 0x1 ADD SWAP1 DUP2 PUSH2 0x53 SWAP2 SWAP1 PUSH2 0x453 JUMP JUMPDEST POP PUSH0 PUSH0 PUSH1 0x2 ADD DUP2 SWAP1 SSTORE POP PUSH1 0x1 PUSH0 PUSH1 0x3 ADD PUSH0 PUSH2 0x100 EXP DUP2 SLOAD DUP2 PUSH1 0xFF MUL NOT AND SWAP1 DUP4 ISZERO ISZERO MUL OR SWAP1 SSTORE POP POP POP PUSH2 0x522 JUMP JUMPDEST PUSH0 PUSH1 0x40 MLOAD SWAP1 POP SWAP1 JUMP JUMPDEST PUSH0 PUSH0 REVERT JUMPDEST PUSH0 PUSH0 REVERT JUMPDEST PUSH0 PUSH0 REVERT JUMPDEST PUSH0 PUSH0 REVERT JUMPDEST PUSH0 PUSH1 0x1F NOT PUSH1 0x1F DUP4 ADD AND SWAP1 POP SWAP2 SWAP1 POP JUMP JUMPDEST PUSH32 0x4E487B7100000000000000000000000000000000000000000000000000000000 PUSH0 MSTORE PUSH1 0x41 PUSH1 0x4 MSTORE PUSH1 0x24 PUSH0 REVERT JUMPDEST PUSH2 0xDF DUP3 PUSH2 0x99 JUMP JUMPDEST DUP2 ADD DUP2 DUP2 LT PUSH8 0xFFFFFFFFFFFFFFFF DUP3 GT OR ISZERO PUSH2 0xFE JUMPI PUSH2 0xFD PUSH2 0xA9 JUMP JUMPDEST JUMPDEST DUP1 PUSH1 0x40 MSTORE POP POP POP JUMP JUMPDEST PUSH0 PUSH2 0x110 PUSH2 0x80 JUMP JUMPDEST SWAP1 POP PUSH2 0x11C DUP3 DUP3 PUSH2 0xD6 JUMP JUMPDEST SWAP2 SWAP1 POP JUMP JUMPDEST PUSH0 PUSH8 0xFFFFFFFFFFFFFFFF DUP3 GT ISZERO PUSH2 0x13B JUMPI PUSH2 0x13A PUSH2 0xA9 JUMP JUMPDEST JUMPDEST PUSH2 0x144 DUP3 PUSH2 0x99 JUMP JUMPDEST SWAP1 POP PUSH1 0x20 DUP2 ADD SWAP1 POP SWAP2 SWAP1 POP JUMP JUMPDEST DUP3 DUP2 DUP4 MCOPY PUSH0 DUP4 DUP4 ADD MSTORE POP POP POP JUMP JUMPDEST PUSH0 PUSH2 0x171 PUSH2 0x16C DUP5 PUSH2 0x121 JUMP JUMPDEST PUSH2 0x107 JUMP JUMPDEST SWAP1 POP DUP3 DUP2 MSTORE PUSH1 0x20 DUP2 ADD DUP5 DUP5 DUP5 ADD GT ISZERO PUSH2 0x18D JUMPI PUSH2 0x18C PUSH2 0x95 JUMP JUMPDEST JUMPDEST PUSH2 0x198 DUP5 DUP3 DUP6 PUSH2 0x151 JUMP JUMPDEST POP SWAP4 SWAP3 POP POP POP JUMP JUMPDEST PUSH0 DUP3 PUSH1 0x1F DUP4 ADD SLT PUSH2 0x1B4 JUMPI PUSH2 0x1B3 PUSH2 0x91 JUMP JUMPDEST JUMPDEST DUP2 MLOAD PUSH2 0x1C4 DUP5 DUP3 PUSH1 0x20 DUP7 ADD PUSH2 0x15F JUMP JUMPDEST SWAP2 POP POP SWAP3 SWAP2 POP POP JUMP JUMPDEST PUSH0 PUSH0 PUSH1 0x40 DUP4 DUP6 SUB SLT ISZERO PUSH2 0x1E3 JUMPI PUSH2 0x1E2 PUSH2 0x89 JUMP JUMPDEST JUMPDEST PUSH0 DUP4 ADD MLOAD PUSH8 0xFFFFFFFFFFFFFFFF DUP2 GT ISZERO PUSH2 0x200 JUMPI PUSH2 0x1FF PUSH2 0x8D JUMP JUMPDEST JUMPDEST PUSH2 0x20C DUP6 DUP3 DUP7 ADD PUSH2 0x1A0 JUMP JUMPDEST SWAP3 POP POP PUSH1 0x20 DUP4 ADD MLOAD PUSH8 0xFFFFFFFFFFFFFFFF DUP2 GT ISZERO PUSH2 0x22D JUMPI PUSH2 0x22C PUSH2 0x8D JUMP JUMPDEST JUMPDEST PUSH2 0x239 DUP6 DUP3 DUP7 ADD PUSH2 0x1A0 JUMP JUMPDEST SWAP2 POP POP SWAP3 POP SWAP3 SWAP1 POP JUMP JUMPDEST PUSH0 DUP2 MLOAD SWAP1 POP SWAP2 SWAP1 POP JUMP JUMPDEST PUSH32 0x4E487B7100000000000000000000000000000000000000000000000000000000 PUSH0 MSTORE PUSH1 0x22 PUSH1 0x4 MSTORE PUSH1 0x24 PUSH0 REVERT JUMPDEST PUSH0 PUSH1 0x2 DUP3 DIV SWAP1 POP PUSH1 0x1 DUP3 AND DUP1 PUSH2 0x291 JUMPI PUSH1 0x7F DUP3 AND SWAP2 POP JUMPDEST PUSH1 0x20 DUP3 LT DUP2 SUB PUSH2 0x2A4 JUMPI PUSH2 0x2A3 PUSH2 0x24D JUMP JUMPDEST JUMPDEST POP SWAP2 SWAP1 POP JUMP JUMPDEST PUSH0 DUP2 SWAP1 POP DUP2 PUSH0 MSTORE PUSH1 0x20 PUSH0 KECCAK256 SWAP1 POP SWAP2 SWAP1 POP JUMP JUMPDEST PUSH0 PUSH1 0x20 PUSH1 0x1F DUP4 ADD DIV SWAP1 POP SWAP2 SWAP1 POP JUMP JUMPDEST PUSH0 DUP3 DUP3 SHL SWAP1 POP SWAP3 SWAP2 POP POP JUMP JUMPDEST PUSH0 PUSH1 0x8 DUP4 MUL PUSH2 0x306 PUSH32 0xFFFFFFFFFFFFFFFFFFFFFFFFFFFFFFFFFFFFFFFFFFFFFFFFFFFFFFFFFFFFFFFF DUP3 PUSH2 0x2CB JUMP JUMPDEST PUSH2 0x310 DUP7 DUP4 PUSH2 0x2CB JUMP JUMPDEST SWAP6 POP DUP1 NOT DUP5 AND SWAP4 POP DUP1 DUP7 AND DUP5 OR SWAP3 POP POP POP SWAP4 SWAP3 POP POP POP JUMP JUMPDEST PUSH0 DUP2 SWAP1 POP SWAP2 SWAP1 POP JUMP JUMPDEST PUSH0 DUP2 SWAP1 POP SWAP2 SWAP1 POP JUMP JUMPDEST PUSH0 PUSH2 0x354 PUSH2 0x34F PUSH2 0x34A DUP5 PUSH2 0x328 JUMP JUMPDEST PUSH2 0x331 JUMP JUMPDEST PUSH2 0x328 JUMP JUMPDEST SWAP1 POP SWAP2 SWAP1 POP JUMP JUMPDEST PUSH0 DUP2 SWAP1 POP SWAP2 SWAP1 POP JUMP JUMPDEST PUSH2 0x36D DUP4 PUSH2 0x33A JUMP JUMPDEST PUSH2 0x381 PUSH2 0x379 DUP3 PUSH2 0x35B JUMP JUMPDEST DUP5 DUP5 SLOAD PUSH2 0x2D7 JUMP JUMPDEST DUP3 SSTORE POP POP POP POP JUMP JUMPDEST PUSH0 PUSH0 SWAP1 POP SWAP1 JUMP JUMPDEST PUSH2 0x398 PUSH2 0x389 JUMP JUMPDEST PUSH2 0x3A3 DUP2 DUP5 DUP5 PUSH2 0x364 JUMP JUMPDEST POP POP POP JUMP JUMPDEST JUMPDEST DUP2 DUP2 LT ISZERO PUSH2 0x3C6 JUMPI PUSH2 0x3BB PUSH0 DUP3 PUSH2 0x390 JUMP JUMPDEST PUSH1 0x1 DUP2 ADD SWAP1 POP PUSH2 0x3A9 JUMP JUMPDEST POP POP JUMP JUMPDEST PUSH1 0x1F DUP3 GT ISZERO PUSH2 0x40B JUMPI PUSH2 0x3DC DUP2 PUSH2 0x2AA JUMP JUMPDEST PUSH2 0x3E5 DUP5 PUSH2 0x2BC JUMP JUMPDEST DUP2 ADD PUSH1 0x20 DUP6 LT ISZERO PUSH2 0x3F4 JUMPI DUP2 SWAP1 POP JUMPDEST PUSH2 0x408 PUSH2 0x400 DUP6 PUSH2 0x2BC JUMP JUMPDEST DUP4 ADD DUP3 PUSH2 0x3A8 JUMP JUMPDEST POP POP JUMPDEST POP POP POP JUMP JUMPDEST PUSH0 DUP3 DUP3 SHR SWAP1 POP SWAP3 SWAP2 POP POP JUMP JUMPDEST PUSH0 PUSH2 0x42B PUSH0 NOT DUP5 PUSH1 0x8 MUL PUSH2 0x410 JUMP JUMPDEST NOT DUP1 DUP4 AND SWAP2 POP POP SWAP3 SWAP2 POP POP JUMP JUMPDEST PUSH0 PUSH2 0x443 DUP4 DUP4 PUSH2 0x41C JUMP JUMPDEST SWAP2 POP DUP3 PUSH1 0x2 MUL DUP3 OR SWAP1 POP SWAP3 SWAP2 POP POP JUMP JUMPDEST PUSH2 0x45C DUP3 PUSH2 0x243 JUMP JUMPDEST PUSH8 0xFFFFFFFFFFFFFFFF DUP2 GT ISZERO PUSH2 0x475 JUMPI PUSH2 0x474 PUSH2 0xA9 JUMP JUMPDEST JUMPDEST PUSH2 0x47F DUP3 SLOAD PUSH2 0x27A JUMP JUMPDEST PUSH2 0x48A DUP3 DUP3 DUP6 PUSH2 0x3CA JUMP JUMPDEST PUSH0 PUSH1 0x20 SWAP1 POP PUSH1 0x1F DUP4 GT PUSH1 0x1 DUP2 EQ PUSH2 0x4BB JUMPI PUSH0 DUP5 ISZERO PUSH2 0x4A9 JUMPI DUP3 DUP8 ADD MLOAD SWAP1 POP JUMPDEST PUSH2 0x4B3 DUP6 DUP3 PUSH2 0x438 JUMP JUMPDEST DUP7 SSTORE POP PUSH2 0x51A JUMP JUMPDEST PUSH1 0x1F NOT DUP5 AND PUSH2 0x4C9 DUP7 PUSH2 0x2AA JUMP JUMPDEST PUSH0 JUMPDEST DUP3 DUP2 LT ISZERO PUSH2 0x4F0 JUMPI DUP5 DUP10 ADD MLOAD DUP3 SSTORE PUSH1 0x1 DUP3 ADD SWAP2 POP PUSH1 0x20 DUP6 ADD SWAP5 POP PUSH1 0x20 DUP2 ADD SWAP1 POP PUSH2 0x4CB JUMP JUMPDEST DUP7 DUP4 LT ISZERO PUSH2 0x50D JUMPI DUP5 DUP10 ADD MLOAD PUSH2 0x509 PUSH1 0x1F DUP10 AND DUP3 PUSH2 0x41C JUMP JUMPDEST DUP4 SSTORE POP JUMPDEST PUSH1 0x1 PUSH1 0x2 DUP9 MUL ADD DUP9 SSTORE POP POP POP JUMPDEST POP POP POP POP POP POP JUMP JUMPDEST PUSH2 0x4FF DUP1 PUSH2 0x52F PUSH0 CODECOPY PUSH0 RETURN INVALID PUSH1 0x80 PUSH1 0x40 MSTORE CALLVALUE DUP1 ISZERO PUSH2 0xF JUMPI PUSH0 PUSH0 REVERT JUMPDEST POP PUSH1 0x4 CALLDATASIZE LT PUSH2 0x4A JUMPI PUSH0 CALLDATALOAD PUSH1 0xE0 SHR DUP1 PUSH4 0x3696B780 EQ PUSH2 0x4E JUMPI DUP1 PUSH4 0x6CC652A0 EQ PUSH2 0x7E JUMPI DUP1 PUSH4 0x8A054AC2 EQ PUSH2 0x88 JUMPI DUP1 PUSH4 0xAFB090C8 EQ PUSH2 0xA9 JUMPI JUMPDEST PUSH0 PUSH0 REVERT JUMPDEST PUSH2 0x68 PUSH1 0x4 DUP1 CALLDATASIZE SUB DUP2 ADD SWAP1 PUSH2 0x63 SWAP2 SWAP1 PUSH2 0x26A JUMP JUMPDEST PUSH2 0xB3 JUMP JUMPDEST PUSH1 0x40 MLOAD PUSH2 0x75 SWAP2 SWAP1 PUSH2 0x2A4 JUMP JUMPDEST PUSH1 0x40 MLOAD DUP1 SWAP2 SUB SWAP1 RETURN JUMPDEST PUSH2 0x86 PUSH2 0xC9 JUMP JUMPDEST STOP JUMPDEST PUSH2 0x90 PUSH2 0xE4 JUMP JUMPDEST PUSH1 0x40 MLOAD PUSH2 0xA0 SWAP5 SWAP4 SWAP3 SWAP2 SWAP1 PUSH2 0x347 JUMP JUMPDEST PUSH1 0x40 MLOAD DUP1 SWAP2 SUB SWAP1 RETURN JUMPDEST PUSH2 0xB1 PUSH2 0x218 JUMP JUMPDEST STOP JUMPDEST PUSH0 PUSH2 0x1F4 DUP3 PUSH2 0xC2 SWAP2 SWAP1 PUSH2 0x3C5 JUMP JUMPDEST SWAP1 POP SWAP2 SWAP1 POP JUMP JUMPDEST PUSH1 0x1 PUSH0 PUSH1 0x2 ADD SLOAD PUSH2 0xDA SWAP2 SWAP1 PUSH2 0x406 JUMP JUMPDEST PUSH0 PUSH1 0x2 ADD DUP2 SWAP1 SSTORE POP JUMP JUMPDEST PUSH0 DUP1 PUSH0 ADD DUP1 SLOAD PUSH2 0xF3 SWAP1 PUSH2 0x466 JUMP JUMPDEST DUP1 PUSH1 0x1F ADD PUSH1 0x20 DUP1 SWAP2 DIV MUL PUSH1 0x20 ADD PUSH1 0x40 MLOAD SWAP1 DUP2 ADD PUSH1 0x40 MSTORE DUP1 SWAP3 SWAP2 SWAP1 DUP2 DUP2 MSTORE PUSH1 0x20 ADD DUP3 DUP1 SLOAD PUSH2 0x11F SWAP1 PUSH2 0x466 JUMP JUMPDEST DUP1 ISZERO PUSH2 0x16A JUMPI DUP1 PUSH1 0x1F LT PUSH2 0x141 JUMPI PUSH2 0x100 DUP1 DUP4 SLOAD DIV MUL DUP4 MSTORE SWAP2 PUSH1 0x20 ADD SWAP2 PUSH2 0x16A JUMP JUMPDEST DUP3 ADD SWAP2 SWAP1 PUSH0 MSTORE PUSH1 0x20 PUSH0 KECCAK256 SWAP1 JUMPDEST DUP2 SLOAD DUP2 MSTORE SWAP1 PUSH1 0x1 ADD SWAP1 PUSH1 0x20 ADD DUP1 DUP4 GT PUSH2 0x14D JUMPI DUP3 SWAP1 SUB PUSH1 0x1F AND DUP3 ADD SWAP2 JUMPDEST POP POP POP POP POP SWAP1 DUP1 PUSH1 0x1 ADD DUP1 SLOAD PUSH2 0x17F SWAP1 PUSH2 0x466 JUMP JUMPDEST DUP1 PUSH1 0x1F ADD PUSH1 0x20 DUP1 SWAP2 DIV MUL PUSH1 0x20 ADD PUSH1 0x40 MLOAD SWAP1 DUP2 ADD PUSH1 0x40 MSTORE DUP1 SWAP3 SWAP2 SWAP1 DUP2 DUP2 MSTORE PUSH1 0x20 ADD DUP3 DUP1 SLOAD PUSH2 0x1AB SWAP1 PUSH2 0x466 JUMP JUMPDEST DUP1 ISZERO PUSH2 0x1F6 JUMPI DUP1 PUSH1 0x1F LT PUSH2 0x1CD JUMPI PUSH2 0x100 DUP1 DUP4 SLOAD DIV MUL DUP4 MSTORE SWAP2 PUSH1 0x20 ADD SWAP2 PUSH2 0x1F6 JUMP JUMPDEST DUP3 ADD SWAP2 SWAP1 PUSH0 MSTORE PUSH1 0x20 PUSH0 KECCAK256 SWAP1 JUMPDEST DUP2 SLOAD DUP2 MSTORE SWAP1 PUSH1 0x1 ADD SWAP1 PUSH1 0x20 ADD DUP1 DUP4 GT PUSH2 0x1D9 JUMPI DUP3 SWAP1 SUB PUSH1 0x1F AND DUP3 ADD SWAP2 JUMPDEST POP POP POP POP POP SWAP1 DUP1 PUSH1 0x2 ADD SLOAD SWAP1 DUP1 PUSH1 0x3 ADD PUSH0 SWAP1 SLOAD SWAP1 PUSH2 0x100 EXP SWAP1 DIV PUSH1 0xFF AND SWAP1 POP DUP5 JUMP JUMPDEST PUSH1 0x1 PUSH0 PUSH1 0x2 ADD SLOAD PUSH2 0x229 SWAP2 SWAP1 PUSH2 0x496 JUMP JUMPDEST PUSH0 PUSH1 0x2 ADD DUP2 SWAP1 SSTORE POP JUMP JUMPDEST PUSH0 PUSH0 REVERT JUMPDEST PUSH0 DUP2 SWAP1 POP SWAP2 SWAP1 POP JUMP JUMPDEST PUSH2 0x249 DUP2 PUSH2 0x237 JUMP JUMPDEST DUP2 EQ PUSH2 0x253 JUMPI PUSH0 PUSH0 REVERT JUMPDEST POP JUMP JUMPDEST PUSH0 DUP2 CALLDATALOAD SWAP1 POP PUSH2 0x264 DUP2 PUSH2 0x240 JUMP JUMPDEST SWAP3 SWAP2 POP POP JUMP JUMPDEST PUSH0 PUSH1 0x20 DUP3 DUP5 SUB SLT ISZERO PUSH2 0x27F JUMPI PUSH2 0x27E PUSH2 0x233 JUMP JUMPDEST JUMPDEST PUSH0 PUSH2 0x28C DUP5 DUP3 DUP6 ADD PUSH2 0x256 JUMP JUMPDEST SWAP2 POP POP SWAP3 SWAP2 POP POP JUMP JUMPDEST PUSH2 0x29E DUP2 PUSH2 0x237 JUMP JUMPDEST DUP3 MSTORE POP POP JUMP JUMPDEST PUSH0 PUSH1 0x20 DUP3 ADD SWAP1 POP PUSH2 0x2B7 PUSH0 DUP4 ADD DUP5 PUSH2 0x295 JUMP JUMPDEST SWAP3 SWAP2 POP POP JUMP JUMPDEST PUSH0 DUP2 MLOAD SWAP1 POP SWAP2 SWAP1 POP JUMP JUMPDEST PUSH0 DUP3 DUP3 MSTORE PUSH1 0x20 DUP3 ADD SWAP1 POP SWAP3 SWAP2 POP POP JUMP JUMPDEST DUP3 DUP2 DUP4 MCOPY PUSH0 DUP4 DUP4 ADD MSTORE POP POP POP JUMP JUMPDEST PUSH0 PUSH1 0x1F NOT PUSH1 0x1F DUP4 ADD AND SWAP1 POP SWAP2 SWAP1 POP JUMP JUMPDEST PUSH0 PUSH2 0x2FF DUP3 PUSH2 0x2BD JUMP JUMPDEST PUSH2 0x309 DUP2 DUP6 PUSH2 0x2C7 JUMP JUMPDEST SWAP4 POP PUSH2 0x319 DUP2 DUP6 PUSH1 0x20 DUP7 ADD PUSH2 0x2D7 JUMP JUMPDEST PUSH2 0x322 DUP2 PUSH2 0x2E5 JUMP JUMPDEST DUP5 ADD SWAP2 POP POP SWAP3 SWAP2 POP POP JUMP JUMPDEST PUSH0 DUP2 ISZERO ISZERO SWAP1 POP SWAP2 SWAP1 POP JUMP JUMPDEST PUSH2 0x341 DUP2 PUSH2 0x32D JUMP JUMPDEST DUP3 MSTORE POP POP JUMP JUMPDEST PUSH0 PUSH1 0x80 DUP3 ADD SWAP1 POP DUP2 DUP2 SUB PUSH0 DUP4 ADD MSTORE PUSH2 0x35F DUP2 DUP8 PUSH2 0x2F5 JUMP JUMPDEST SWAP1 POP DUP2 DUP2 SUB PUSH1 0x20 DUP4 ADD MSTORE PUSH2 0x373 DUP2 DUP7 PUSH2 0x2F5 JUMP JUMPDEST SWAP1 POP PUSH2 0x382 PUSH1 0x40 DUP4 ADD DUP6 PUSH2 0x295 JUMP JUMPDEST PUSH2 0x38F PUSH1 0x60 DUP4 ADD DUP5 PUSH2 0x338 JUMP JUMPDEST SWAP6 SWAP5 POP POP POP POP POP JUMP JUMPDEST PUSH32 0x4E487B7100000000000000000000000000000000000000000000000000000000 PUSH0 MSTORE PUSH1 0x11 PUSH1 0x4 MSTORE PUSH1 0x24 PUSH0 REVERT JUMPDEST PUSH0 PUSH2 0x3CF DUP3 PUSH2 0x237 JUMP JUMPDEST SWAP2 POP PUSH2 0x3DA DUP4 PUSH2 0x237 JUMP JUMPDEST SWAP3 POP DUP3 DUP3 MUL PUSH2 0x3E8 DUP2 PUSH2 0x237 JUMP JUMPDEST SWAP2 POP DUP3 DUP3 DIV DUP5 EQ DUP4 ISZERO OR PUSH2 0x3FF JUMPI PUSH2 0x3FE PUSH2 0x398 JUMP JUMPDEST JUMPDEST POP SWAP3 SWAP2 POP POP JUMP JUMPDEST PUSH0 PUSH2 0x410 DUP3 PUSH2 0x237 JUMP JUMPDEST SWAP2 POP PUSH2 0x41B DUP4 PUSH2 0x237 JUMP JUMPDEST SWAP3 POP DUP3 DUP3 ADD SWAP1 POP DUP1 DUP3 GT ISZERO PUSH2 0x433 JUMPI PUSH2 0x432 PUSH2 0x398 JUMP JUMPDEST JUMPDEST SWAP3 SWAP2 POP POP JUMP JUMPDEST PUSH32 0x4E487B7100000000000000000000000000000000000000000000000000000000 PUSH0 MSTORE PUSH1 0x22 PUSH1 0x4 MSTORE PUSH1 0x24 PUSH0 REVERT JUMPDEST PUSH0 PUSH1 0x2 DUP3 DIV SWAP1 POP PUSH1 0x1 DUP3 AND DUP1 PUSH2 0x47D JUMPI PUSH1 0x7F DUP3 AND SWAP2 POP JUMPDEST PUSH1 0x20 DUP3 LT DUP2 SUB PUSH2 0x490 JUMPI PUSH2 0x48F PUSH2 0x439 JUMP JUMPDEST JUMPDEST POP SWAP2 SWAP1 POP JUMP JUMPDEST PUSH0 PUSH2 0x4A0 DUP3 PUSH2 0x237 JUMP JUMPDEST SWAP2 POP PUSH2 0x4AB DUP4 PUSH2 0x237 JUMP JUMPDEST SWAP3 POP DUP3 DUP3 SUB SWAP1 POP DUP2 DUP2 GT ISZERO PUSH2 0x4C3 JUMPI PUSH2 0x4C2 PUSH2 0x398 JUMP JUMPDEST JUMPDEST SWAP3 SWAP2 POP POP JUMP INVALID LOG2 PUSH5 0x6970667358 0x22 SLT KECCAK256 0x4F BLOCKHASH PUSH11 0xEC550D3C36CA320227CD03 RJUMPI 0x48FB 0xAE 0xBA PUSH16 0x3838E9D35AFF761472ED88C264736F6C PUSH4 0x4300081E STOP CALLER "
				},
				"gasEstimates": {
					"creation": {
						"codeDepositCost": "255800",
						"executionCost": "infinite",
						"totalCost": "infinite"
					},
					"external": {
						"CalculateBill(uint256)": "infinite",
						"admitpatient()": "infinite",
						"d()": "infinite",
						"discharge()": "infinite"
					}
				},
				"methodIdentifiers": {
					"CalculateBill(uint256)": "3696b780",
					"admitpatient()": "6cc652a0",
					"d()": "8a054ac2",
					"discharge()": "afb090c8"
				}
			},
			"storageLayout": {
				"storage": [
					{
						"astId": 13,
						"contract": "Hospital.sol:Hospital",
						"label": "d",
						"offset": 0,
						"slot": "0",
						"type": "t_struct(Details)10_storage"
					}
				],
				"types": {
					"t_bool": {
						"encoding": "inplace",
						"label": "bool",
						"numberOfBytes": "1"
					},
					"t_string_storage": {
						"encoding": "bytes",
						"label": "string",
						"numberOfBytes": "32"
					},
					"t_struct(Details)10_storage": {
						"encoding": "inplace",
						"label": "struct Hospital.Details",
						"members": [
							{
								"astId": 3,
								"contract": "Hospital.sol:Hospital",
								"label": "hospitalName",
								"offset": 0,
								"slot": "0",
								"type": "t_string_storage"
							},
							{
								"astId": 5,
								"contract": "Hospital.sol:Hospital",
								"label": "DoctorName",
								"offset": 0,
								"slot": "1",
								"type": "t_string_storage"
							},
							{
								"astId": 7,
								"contract": "Hospital.sol:Hospital",
								"label": "patientCount",
								"offset": 0,
								"slot": "2",
								"type": "t_uint256"
							},
							{
								"astId": 9,
								"contract": "Hospital.sol:Hospital",
								"label": "EmergencyOpen",
								"offset": 0,
								"slot": "3",
								"type": "t_bool"
							}
						],
						"numberOfBytes": "128"
					},
					"t_uint256": {
						"encoding": "inplace",
						"label": "uint256",
						"numberOfBytes": "32"
					}
				}
			},
			"userdoc": {
				"kind": "user",
				"methods": {},
				"version": 1
			}
		}
	}
}