{
	"bankAccountRequire.sol": {
		"Bankaccount": {
			"abi": [
				{
					"inputs": [
						{
							"internalType": "string",
							"name": "_bankname",
							"type": "string"
						},
						{
							"internalType": "uint256",
							"name": "_pin",
							"type": "uint256"
						}
					],
					"stateMutability": "nonpayable",
					"type": "constructor"
				},
				{
					"inputs": [],
					"name": "d",
					"outputs": [
						{
							"internalType": "string",
							"name": "BankName",
							"type": "string"
						},
						{
							"internalType": "uint256",
							"name": "pin",
							"type": "uint256"
						},
						{
							"internalType": "uint256",
							"name": "balance",
							"type": "uint256"
						},
						{
							"internalType": "uint256",
							"name": "deposit",
							"type": "uint256"
						},
						{
							"internalType": "uint256",
							"name": "withdraw",
							"type": "uint256"
						},
						{
							"internalType": "bool",
							"name": "isOpen",
							"type": "bool"
						}
					],
					"stateMutability": "view",
					"type": "function"
				},
				{
					"inputs": [
						{
							"internalType": "uint256",
							"name": "amount",
							"type": "uint256"
						}
					],
					"name": "deposits",
					"outputs": [],
					"stateMutability": "nonpayable",
					"type": "function"
				},
				{
					"inputs": [
						{
							"internalType": "uint256",
							"name": "amount",
							"type": "uint256"
						}
					],
					"name": "withDraws",
					"outputs": [],
					"stateMutability": "nonpayable",
					"type": "function"
				}
			],
			"devdoc": {
				"kind": "dev",
				"methods": {},
				"version": 1
			},
			"evm": {
				"assembly": "    /* \"bankAccountRequire.sol\":59:816  contract Bankaccount{... */\n  mstore(0x40, 0x80)\n    /* \"bankAccountRequire.sol\":276:428  constructor(string memory _bankname,uint _pin){... */\n  callvalue\n  dup1\n  iszero\n  tag_1\n  jumpi\n  revert(0x00, 0x00)\ntag_1:\n  pop\n  mload(0x40)\n  sub(codesize, bytecodeSize)\n  dup1\n  bytecodeSize\n  dup4\n  codecopy\n  dup2\n  dup2\n  add\n  0x40\n  mstore\n  dup2\n  add\n  swap1\n  tag_2\n  swap2\n  swap1\n  tag_3\n  jump\t// in\ntag_2:\n    /* \"bankAccountRequire.sol\":344:353  _bankname */\n  dup2\n    /* \"bankAccountRequire.sol\":333:334  d */\n  0x00\n    /* \"bankAccountRequire.sol\":333:343  d.BankName */\n  0x00\n  add\n    /* \"bankAccountRequire.sol\":333:353  d.BankName=_bankname */\n  swap1\n  dup2\n  tag_6\n  swap2\n  swap1\n  tag_7\n  jump\t// in\ntag_6:\n  pop\n    /* \"bankAccountRequire.sol\":370:374  _pin */\n  dup1\n    /* \"bankAccountRequire.sol\":364:365  d */\n  0x00\n    /* \"bankAccountRequire.sol\":364:369  d.pin */\n  0x01\n  add\n    /* \"bankAccountRequire.sol\":364:374  d.pin=_pin */\n  dup2\n  swap1\n  sstore\n  pop\n    /* \"bankAccountRequire.sol\":395:396  0 */\n  0x00\n    /* \"bankAccountRequire.sol\":385:386  d */\n  0x00\n    /* \"bankAccountRequire.sol\":385:394  d.balance */\n  0x02\n  add\n    /* \"bankAccountRequire.sol\":385:396  d.balance=0 */\n  dup2\n  swap1\n  sstore\n  pop\n    /* \"bankAccountRequire.sol\":416:420  true */\n  0x01\n    /* \"bankAccountRequire.sol\":407:408  d */\n  0x00\n    /* \"bankAccountRequire.sol\":407:415  d.isOpen */\n  0x05\n  add\n  0x00\n    /* \"bankAccountRequire.sol\":407:420  d.isOpen=true */\n  0x0100\n  exp\n  dup2\n  sload\n  dup2\n  0xff\n  mul\n  not\n  and\n  swap1\n  dup4\n  iszero\n  iszero\n  mul\n  or\n  swap1\n  sstore\n  pop\n    /* \"bankAccountRequire.sol\":276:428  constructor(string memory _bankname,uint _pin){... */\n  pop\n  pop\n    /* \"bankAccountRequire.sol\":59:816  contract Bankaccount{... */\n  jump(tag_8)\n    /* \"#utility.yul\":7:82   */\ntag_9:\n    /* \"#utility.yul\":40:46   */\n  0x00\n    /* \"#utility.yul\":73:75   */\n  0x40\n    /* \"#utility.yul\":67:76   */\n  mload\n    /* \"#utility.yul\":57:76   */\n  swap1\n  pop\n    /* \"#utility.yul\":7:82   */\n  swap1\n  jump\t// out\n    /* \"#utility.yul\":88:205   */\ntag_10:\n    /* \"#utility.yul\":197:198   */\n  0x00\n    /* \"#utility.yul\":194:195   */\n  0x00\n    /* \"#utility.yul\":187:199   */\n  revert\n    /* \"#utility.yul\":211:328   */\ntag_11:\n    /* \"#utility.yul\":320:321   */\n  0x00\n    /* \"#utility.yul\":317:318   */\n  0x00\n    /* \"#utility.yul\":310:322   */\n  revert\n    /* \"#utility.yul\":334:451   */\ntag_12:\n    /* \"#utility.yul\":443:444   */\n  0x00\n    /* \"#utility.yul\":440:441   */\n  0x00\n    /* \"#utility.yul\":433:445   */\n  revert\n    /* \"#utility.yul\":457:574   */\ntag_13:\n    /* \"#utility.yul\":566:567   */\n  0x00\n    /* \"#utility.yul\":563:564   */\n  0x00\n    /* \"#utility.yul\":556:568   */\n  revert\n    /* \"#utility.yul\":580:682   */\ntag_14:\n    /* \"#utility.yul\":621:627   */\n  0x00\n    /* \"#utility.yul\":672:674   */\n  0x1f\n    /* \"#utility.yul\":668:675   */\n  not\n    /* \"#utility.yul\":663:665   */\n  0x1f\n    /* \"#utility.yul\":656:661   */\n  dup4\n    /* \"#utility.yul\":652:666   */\n  add\n    /* \"#utility.yul\":648:676   */\n  and\n    /* \"#utility.yul\":638:676   */\n  swap1\n  pop\n    /* \"#utility.yul\":580:682   */\n  swap2\n  swap1\n  pop\n  jump\t// out\n    /* \"#utility.yul\":688:868   */\ntag_15:\n    /* \"#utility.yul\":736:813   */\n  0x4e487b7100000000000000000000000000000000000000000000000000000000\n    /* \"#utility.yul\":733:734   */\n  0x00\n    /* \"#utility.yul\":726:814   */\n  mstore\n    /* \"#utility.yul\":833:837   */\n  0x41\n    /* \"#utility.yul\":830:831   */\n  0x04\n    /* \"#utility.yul\":823:838   */\n  mstore\n    /* \"#utility.yul\":857:861   */\n  0x24\n    /* \"#utility.yul\":854:855   */\n  0x00\n    /* \"#utility.yul\":847:862   */\n  revert\n    /* \"#utility.yul\":874:1155   */\ntag_16:\n    /* \"#utility.yul\":957:984   */\n  tag_52\n    /* \"#utility.yul\":979:983   */\n  dup3\n    /* \"#utility.yul\":957:984   */\n  tag_14\n  jump\t// in\ntag_52:\n    /* \"#utility.yul\":949:955   */\n  dup2\n    /* \"#utility.yul\":945:985   */\n  add\n    /* \"#utility.yul\":1087:1093   */\n  dup2\n    /* \"#utility.yul\":1075:1085   */\n  dup2\n    /* \"#utility.yul\":1072:1094   */\n  lt\n    /* \"#utility.yul\":1051:1069   */\n  0xffffffffffffffff\n    /* \"#utility.yul\":1039:1049   */\n  dup3\n    /* \"#utility.yul\":1036:1070   */\n  gt\n    /* \"#utility.yul\":1033:1095   */\n  or\n    /* \"#utility.yul\":1030:1118   */\n  iszero\n  tag_53\n  jumpi\n    /* \"#utility.yul\":1098:1116   */\n  tag_54\n  tag_15\n  jump\t// in\ntag_54:\n    /* \"#utility.yul\":1030:1118   */\ntag_53:\n    /* \"#utility.yul\":1138:1148   */\n  dup1\n    /* \"#utility.yul\":1134:1136   */\n  0x40\n    /* \"#utility.yul\":1127:1149   */\n  mstore\n    /* \"#utility.yul\":917:1155   */\n  pop\n    /* \"#utility.yul\":874:1155   */\n  pop\n  pop\n  jump\t// out\n    /* \"#utility.yul\":1161:1290   */\ntag_17:\n    /* \"#utility.yul\":1195:1201   */\n  0x00\n    /* \"#utility.yul\":1222:1242   */\n  tag_56\n  tag_9\n  jump\t// in\ntag_56:\n    /* \"#utility.yul\":1212:1242   */\n  swap1\n  pop\n    /* \"#utility.yul\":1251:1284   */\n  tag_57\n    /* \"#utility.yul\":1279:1283   */\n  dup3\n    /* \"#utility.yul\":1271:1277   */\n  dup3\n    /* \"#utility.yul\":1251:1284   */\n  tag_16\n  jump\t// in\ntag_57:\n    /* \"#utility.yul\":1161:1290   */\n  swap2\n  swap1\n  pop\n  jump\t// out\n    /* \"#utility.yul\":1296:1604   */\ntag_18:\n    /* \"#utility.yul\":1358:1362   */\n  0x00\n    /* \"#utility.yul\":1448:1466   */\n  0xffffffffffffffff\n    /* \"#utility.yul\":1440:1446   */\n  dup3\n    /* \"#utility.yul\":1437:1467   */\n  gt\n    /* \"#utility.yul\":1434:1490   */\n  iszero\n  tag_59\n  jumpi\n    /* \"#utility.yul\":1470:1488   */\n  tag_60\n  tag_15\n  jump\t// in\ntag_60:\n    /* \"#utility.yul\":1434:1490   */\ntag_59:\n    /* \"#utility.yul\":1508:1537   */\n  tag_61\n    /* \"#utility.yul\":1530:1536   */\n  dup3\n    /* \"#utility.yul\":1508:1537   */\n  tag_14\n  jump\t// in\ntag_61:\n    /* \"#utility.yul\":1500:1537   */\n  swap1\n  pop\n    /* \"#utility.yul\":1592:1596   */\n  0x20\n    /* \"#utility.yul\":1586:1590   */\n  dup2\n    /* \"#utility.yul\":1582:1597   */\n  add\n    /* \"#utility.yul\":1574:1597   */\n  swap1\n  pop\n    /* \"#utility.yul\":1296:1604   */\n  swap2\n  swap1\n  pop\n  jump\t// out\n    /* \"#utility.yul\":1610:1749   */\ntag_19:\n    /* \"#utility.yul\":1699:1705   */\n  dup3\n    /* \"#utility.yul\":1694:1697   */\n  dup2\n    /* \"#utility.yul\":1689:1692   */\n  dup4\n    /* \"#utility.yul\":1683:1706   */\n  mcopy\n    /* \"#utility.yul\":1740:1741   */\n  0x00\n    /* \"#utility.yul\":1731:1737   */\n  dup4\n    /* \"#utility.yul\":1726:1729   */\n  dup4\n    /* \"#utility.yul\":1722:1738   */\n  add\n    /* \"#utility.yul\":1715:1742   */\n  mstore\n    /* \"#utility.yul\":1610:1749   */\n  pop\n  pop\n  pop\n  jump\t// out\n    /* \"#utility.yul\":1755:2189   */\ntag_20:\n    /* \"#utility.yul\":1844:1849   */\n  0x00\n    /* \"#utility.yul\":1869:1935   */\n  tag_64\n    /* \"#utility.yul\":1885:1934   */\n  tag_65\n    /* \"#utility.yul\":1927:1933   */\n  dup5\n    /* \"#utility.yul\":1885:1934   */\n  tag_18\n  jump\t// in\ntag_65:\n    /* \"#utility.yul\":1869:1935   */\n  tag_17\n  jump\t// in\ntag_64:\n    /* \"#utility.yul\":1860:1935   */\n  swap1\n  pop\n    /* \"#utility.yul\":1958:1964   */\n  dup3\n    /* \"#utility.yul\":1951:1956   */\n  dup2\n    /* \"#utility.yul\":1944:1965   */\n  mstore\n    /* \"#utility.yul\":1996:2000   */\n  0x20\n    /* \"#utility.yul\":1989:1994   */\n  dup2\n    /* \"#utility.yul\":1985:2001   */\n  add\n    /* \"#utility.yul\":2034:2037   */\n  dup5\n    /* \"#utility.yul\":2025:2031   */\n  dup5\n    /* \"#utility.yul\":2020:2023   */\n  dup5\n    /* \"#utility.yul\":2016:2032   */\n  add\n    /* \"#utility.yul\":2013:2038   */\n  gt\n    /* \"#utility.yul\":2010:2122   */\n  iszero\n  tag_66\n  jumpi\n    /* \"#utility.yul\":2041:2120   */\n  tag_67\n  tag_13\n  jump\t// in\ntag_67:\n    /* \"#utility.yul\":2010:2122   */\ntag_66:\n    /* \"#utility.yul\":2131:2183   */\n  tag_68\n    /* \"#utility.yul\":2176:2182   */\n  dup5\n    /* \"#utility.yul\":2171:2174   */\n  dup3\n    /* \"#utility.yul\":2166:2169   */\n  dup6\n    /* \"#utility.yul\":2131:2183   */\n  tag_19\n  jump\t// in\ntag_68:\n    /* \"#utility.yul\":1850:2189   */\n  pop\n    /* \"#utility.yul\":1755:2189   */\n  swap4\n  swap3\n  pop\n  pop\n  pop\n  jump\t// out\n    /* \"#utility.yul\":2209:2564   */\ntag_21:\n    /* \"#utility.yul\":2276:2281   */\n  0x00\n    /* \"#utility.yul\":2325:2328   */\n  dup3\n    /* \"#utility.yul\":2318:2322   */\n  0x1f\n    /* \"#utility.yul\":2310:2316   */\n  dup4\n    /* \"#utility.yul\":2306:2323   */\n  add\n    /* \"#utility.yul\":2302:2329   */\n  slt\n    /* \"#utility.yul\":2292:2414   */\n  tag_70\n  jumpi\n    /* \"#utility.yul\":2333:2412   */\n  tag_71\n  tag_12\n  jump\t// in\ntag_71:\n    /* \"#utility.yul\":2292:2414   */\ntag_70:\n    /* \"#utility.yul\":2443:2449   */\n  dup2\n    /* \"#utility.yul\":2437:2450   */\n  mload\n    /* \"#utility.yul\":2468:2558   */\n  tag_72\n    /* \"#utility.yul\":2554:2557   */\n  dup5\n    /* \"#utility.yul\":2546:2552   */\n  dup3\n    /* \"#utility.yul\":2539:2543   */\n  0x20\n    /* \"#utility.yul\":2531:2537   */\n  dup7\n    /* \"#utility.yul\":2527:2544   */\n  add\n    /* \"#utility.yul\":2468:2558   */\n  tag_20\n  jump\t// in\ntag_72:\n    /* \"#utility.yul\":2459:2558   */\n  swap2\n  pop\n    /* \"#utility.yul\":2282:2564   */\n  pop\n    /* \"#utility.yul\":2209:2564   */\n  swap3\n  swap2\n  pop\n  pop\n  jump\t// out\n    /* \"#utility.yul\":2570:2647   */\ntag_22:\n    /* \"#utility.yul\":2607:2614   */\n  0x00\n    /* \"#utility.yul\":2636:2641   */\n  dup2\n    /* \"#utility.yul\":2625:2641   */\n  swap1\n  pop\n    /* \"#utility.yul\":2570:2647   */\n  swap2\n  swap1\n  pop\n  jump\t// out\n    /* \"#utility.yul\":2653:2775   */\ntag_23:\n    /* \"#utility.yul\":2726:2750   */\n  tag_75\n    /* \"#utility.yul\":2744:2749   */\n  dup2\n    /* \"#utility.yul\":2726:2750   */\n  tag_22\n  jump\t// in\ntag_75:\n    /* \"#utility.yul\":2719:2724   */\n  dup2\n    /* \"#utility.yul\":2716:2751   */\n  eq\n    /* \"#utility.yul\":2706:2769   */\n  tag_76\n  jumpi\n    /* \"#utility.yul\":2765:2766   */\n  0x00\n    /* \"#utility.yul\":2762:2763   */\n  0x00\n    /* \"#utility.yul\":2755:2767   */\n  revert\n    /* \"#utility.yul\":2706:2769   */\ntag_76:\n    /* \"#utility.yul\":2653:2775   */\n  pop\n  jump\t// out\n    /* \"#utility.yul\":2781:2924   */\ntag_24:\n    /* \"#utility.yul\":2838:2843   */\n  0x00\n    /* \"#utility.yul\":2869:2875   */\n  dup2\n    /* \"#utility.yul\":2863:2876   */\n  mload\n    /* \"#utility.yul\":2854:2876   */\n  swap1\n  pop\n    /* \"#utility.yul\":2885:2918   */\n  tag_78\n    /* \"#utility.yul\":2912:2917   */\n  dup2\n    /* \"#utility.yul\":2885:2918   */\n  tag_23\n  jump\t// in\ntag_78:\n    /* \"#utility.yul\":2781:2924   */\n  swap3\n  swap2\n  pop\n  pop\n  jump\t// out\n    /* \"#utility.yul\":2930:3610   */\ntag_3:\n    /* \"#utility.yul\":3019:3025   */\n  0x00\n    /* \"#utility.yul\":3027:3033   */\n  0x00\n    /* \"#utility.yul\":3076:3078   */\n  0x40\n    /* \"#utility.yul\":3064:3073   */\n  dup4\n    /* \"#utility.yul\":3055:3062   */\n  dup6\n    /* \"#utility.yul\":3051:3074   */\n  sub\n    /* \"#utility.yul\":3047:3079   */\n  slt\n    /* \"#utility.yul\":3044:3163   */\n  iszero\n  tag_80\n  jumpi\n    /* \"#utility.yul\":3082:3161   */\n  tag_81\n  tag_10\n  jump\t// in\ntag_81:\n    /* \"#utility.yul\":3044:3163   */\ntag_80:\n    /* \"#utility.yul\":3223:3224   */\n  0x00\n    /* \"#utility.yul\":3212:3221   */\n  dup4\n    /* \"#utility.yul\":3208:3225   */\n  add\n    /* \"#utility.yul\":3202:3226   */\n  mload\n    /* \"#utility.yul\":3253:3271   */\n  0xffffffffffffffff\n    /* \"#utility.yul\":3245:3251   */\n  dup2\n    /* \"#utility.yul\":3242:3272   */\n  gt\n    /* \"#utility.yul\":3239:3356   */\n  iszero\n  tag_82\n  jumpi\n    /* \"#utility.yul\":3275:3354   */\n  tag_83\n  tag_11\n  jump\t// in\ntag_83:\n    /* \"#utility.yul\":3239:3356   */\ntag_82:\n    /* \"#utility.yul\":3380:3454   */\n  tag_84\n    /* \"#utility.yul\":3446:3453   */\n  dup6\n    /* \"#utility.yul\":3437:3443   */\n  dup3\n    /* \"#utility.yul\":3426:3435   */\n  dup7\n    /* \"#utility.yul\":3422:3444   */\n  add\n    /* \"#utility.yul\":3380:3454   */\n  tag_21\n  jump\t// in\ntag_84:\n    /* \"#utility.yul\":3370:3454   */\n  swap3\n  pop\n    /* \"#utility.yul\":3173:3464   */\n  pop\n    /* \"#utility.yul\":3503:3505   */\n  0x20\n    /* \"#utility.yul\":3529:3593   */\n  tag_85\n    /* \"#utility.yul\":3585:3592   */\n  dup6\n    /* \"#utility.yul\":3576:3582   */\n  dup3\n    /* \"#utility.yul\":3565:3574   */\n  dup7\n    /* \"#utility.yul\":3561:3583   */\n  add\n    /* \"#utility.yul\":3529:3593   */\n  tag_24\n  jump\t// in\ntag_85:\n    /* \"#utility.yul\":3519:3593   */\n  swap2\n  pop\n    /* \"#utility.yul\":3474:3603   */\n  pop\n    /* \"#utility.yul\":2930:3610   */\n  swap3\n  pop\n  swap3\n  swap1\n  pop\n  jump\t// out\n    /* \"#utility.yul\":3616:3715   */\ntag_25:\n    /* \"#utility.yul\":3668:3674   */\n  0x00\n    /* \"#utility.yul\":3702:3707   */\n  dup2\n    /* \"#utility.yul\":3696:3708   */\n  mload\n    /* \"#utility.yul\":3686:3708   */\n  swap1\n  pop\n    /* \"#utility.yul\":3616:3715   */\n  swap2\n  swap1\n  pop\n  jump\t// out\n    /* \"#utility.yul\":3721:3901   */\ntag_26:\n    /* \"#utility.yul\":3769:3846   */\n  0x4e487b7100000000000000000000000000000000000000000000000000000000\n    /* \"#utility.yul\":3766:3767   */\n  0x00\n    /* \"#utility.yul\":3759:3847   */\n  mstore\n    /* \"#utility.yul\":3866:3870   */\n  0x22\n    /* \"#utility.yul\":3863:3864   */\n  0x04\n    /* \"#utility.yul\":3856:3871   */\n  mstore\n    /* \"#utility.yul\":3890:3894   */\n  0x24\n    /* \"#utility.yul\":3887:3888   */\n  0x00\n    /* \"#utility.yul\":3880:3895   */\n  revert\n    /* \"#utility.yul\":3907:4227   */\ntag_27:\n    /* \"#utility.yul\":3951:3957   */\n  0x00\n    /* \"#utility.yul\":3988:3989   */\n  0x02\n    /* \"#utility.yul\":3982:3986   */\n  dup3\n    /* \"#utility.yul\":3978:3990   */\n  div\n    /* \"#utility.yul\":3968:3990   */\n  swap1\n  pop\n    /* \"#utility.yul\":4035:4036   */\n  0x01\n    /* \"#utility.yul\":4029:4033   */\n  dup3\n    /* \"#utility.yul\":4025:4037   */\n  and\n    /* \"#utility.yul\":4056:4074   */\n  dup1\n    /* \"#utility.yul\":4046:4127   */\n  tag_89\n  jumpi\n    /* \"#utility.yul\":4112:4116   */\n  0x7f\n    /* \"#utility.yul\":4104:4110   */\n  dup3\n    /* \"#utility.yul\":4100:4117   */\n  and\n    /* \"#utility.yul\":4090:4117   */\n  swap2\n  pop\n    /* \"#utility.yul\":4046:4127   */\ntag_89:\n    /* \"#utility.yul\":4174:4176   */\n  0x20\n    /* \"#utility.yul\":4166:4172   */\n  dup3\n    /* \"#utility.yul\":4163:4177   */\n  lt\n    /* \"#utility.yul\":4143:4161   */\n  dup2\n    /* \"#utility.yul\":4140:4178   */\n  sub\n    /* \"#utility.yul\":4137:4221   */\n  tag_90\n  jumpi\n    /* \"#utility.yul\":4193:4211   */\n  tag_91\n  tag_26\n  jump\t// in\ntag_91:\n    /* \"#utility.yul\":4137:4221   */\ntag_90:\n    /* \"#utility.yul\":3958:4227   */\n  pop\n    /* \"#utility.yul\":3907:4227   */\n  swap2\n  swap1\n  pop\n  jump\t// out\n    /* \"#utility.yul\":4233:4374   */\ntag_28:\n    /* \"#utility.yul\":4282:4286   */\n  0x00\n    /* \"#utility.yul\":4305:4308   */\n  dup2\n    /* \"#utility.yul\":4297:4308   */\n  swap1\n  pop\n    /* \"#utility.yul\":4328:4331   */\n  dup2\n    /* \"#utility.yul\":4325:4326   */\n  0x00\n    /* \"#utility.yul\":4318:4332   */\n  mstore\n    /* \"#utility.yul\":4362:4366   */\n  0x20\n    /* \"#utility.yul\":4359:4360   */\n  0x00\n    /* \"#utility.yul\":4349:4367   */\n  keccak256\n    /* \"#utility.yul\":4341:4367   */\n  swap1\n  pop\n    /* \"#utility.yul\":4233:4374   */\n  swap2\n  swap1\n  pop\n  jump\t// out\n    /* \"#utility.yul\":4380:4473   */\ntag_29:\n    /* \"#utility.yul\":4417:4423   */\n  0x00\n    /* \"#utility.yul\":4464:4466   */\n  0x20\n    /* \"#utility.yul\":4459:4461   */\n  0x1f\n    /* \"#utility.yul\":4452:4457   */\n  dup4\n    /* \"#utility.yul\":4448:4462   */\n  add\n    /* \"#utility.yul\":4444:4467   */\n  div\n    /* \"#utility.yul\":4434:4467   */\n  swap1\n  pop\n    /* \"#utility.yul\":4380:4473   */\n  swap2\n  swap1\n  pop\n  jump\t// out\n    /* \"#utility.yul\":4479:4586   */\ntag_30:\n    /* \"#utility.yul\":4523:4531   */\n  0x00\n    /* \"#utility.yul\":4573:4578   */\n  dup3\n    /* \"#utility.yul\":4567:4571   */\n  dup3\n    /* \"#utility.yul\":4563:4579   */\n  shl\n    /* \"#utility.yul\":4542:4579   */\n  swap1\n  pop\n    /* \"#utility.yul\":4479:4586   */\n  swap3\n  swap2\n  pop\n  pop\n  jump\t// out\n    /* \"#utility.yul\":4592:4985   */\ntag_31:\n    /* \"#utility.yul\":4661:4667   */\n  0x00\n    /* \"#utility.yul\":4711:4712   */\n  0x08\n    /* \"#utility.yul\":4699:4709   */\n  dup4\n    /* \"#utility.yul\":4695:4713   */\n  mul\n    /* \"#utility.yul\":4734:4831   */\n  tag_96\n    /* \"#utility.yul\":4764:4830   */\n  0xffffffffffffffffffffffffffffffffffffffffffffffffffffffffffffffff\n    /* \"#utility.yul\":4753:4762   */\n  dup3\n    /* \"#utility.yul\":4734:4831   */\n  tag_30\n  jump\t// in\ntag_96:\n    /* \"#utility.yul\":4852:4891   */\n  tag_97\n    /* \"#utility.yul\":4882:4890   */\n  dup7\n    /* \"#utility.yul\":4871:4880   */\n  dup4\n    /* \"#utility.yul\":4852:4891   */\n  tag_30\n  jump\t// in\ntag_97:\n    /* \"#utility.yul\":4840:4891   */\n  swap6\n  pop\n    /* \"#utility.yul\":4924:4928   */\n  dup1\n    /* \"#utility.yul\":4920:4929   */\n  not\n    /* \"#utility.yul\":4913:4918   */\n  dup5\n    /* \"#utility.yul\":4909:4930   */\n  and\n    /* \"#utility.yul\":4900:4930   */\n  swap4\n  pop\n    /* \"#utility.yul\":4973:4977   */\n  dup1\n    /* \"#utility.yul\":4963:4971   */\n  dup7\n    /* \"#utility.yul\":4959:4978   */\n  and\n    /* \"#utility.yul\":4952:4957   */\n  dup5\n    /* \"#utility.yul\":4949:4979   */\n  or\n    /* \"#utility.yul\":4939:4979   */\n  swap3\n  pop\n    /* \"#utility.yul\":4668:4985   */\n  pop\n  pop\n    /* \"#utility.yul\":4592:4985   */\n  swap4\n  swap3\n  pop\n  pop\n  pop\n  jump\t// out\n    /* \"#utility.yul\":4991:5051   */\ntag_32:\n    /* \"#utility.yul\":5019:5022   */\n  0x00\n    /* \"#utility.yul\":5040:5045   */\n  dup2\n    /* \"#utility.yul\":5033:5045   */\n  swap1\n  pop\n    /* \"#utility.yul\":4991:5051   */\n  swap2\n  swap1\n  pop\n  jump\t// out\n    /* \"#utility.yul\":5057:5199   */\ntag_33:\n    /* \"#utility.yul\":5107:5116   */\n  0x00\n    /* \"#utility.yul\":5140:5193   */\n  tag_100\n    /* \"#utility.yul\":5158:5192   */\n  tag_101\n    /* \"#utility.yul\":5167:5191   */\n  tag_102\n    /* \"#utility.yul\":5185:5190   */\n  dup5\n    /* \"#utility.yul\":5167:5191   */\n  tag_22\n  jump\t// in\ntag_102:\n    /* \"#utility.yul\":5158:5192   */\n  tag_32\n  jump\t// in\ntag_101:\n    /* \"#utility.yul\":5140:5193   */\n  tag_22\n  jump\t// in\ntag_100:\n    /* \"#utility.yul\":5127:5193   */\n  swap1\n  pop\n    /* \"#utility.yul\":5057:5199   */\n  swap2\n  swap1\n  pop\n  jump\t// out\n    /* \"#utility.yul\":5205:5280   */\ntag_34:\n    /* \"#utility.yul\":5248:5251   */\n  0x00\n    /* \"#utility.yul\":5269:5274   */\n  dup2\n    /* \"#utility.yul\":5262:5274   */\n  swap1\n  pop\n    /* \"#utility.yul\":5205:5280   */\n  swap2\n  swap1\n  pop\n  jump\t// out\n    /* \"#utility.yul\":5286:5555   */\ntag_35:\n    /* \"#utility.yul\":5396:5435   */\n  tag_105\n    /* \"#utility.yul\":5427:5434   */\n  dup4\n    /* \"#utility.yul\":5396:5435   */\n  tag_33\n  jump\t// in\ntag_105:\n    /* \"#utility.yul\":5457:5548   */\n  tag_106\n    /* \"#utility.yul\":5506:5547   */\n  tag_107\n    /* \"#utility.yul\":5530:5546   */\n  dup3\n    /* \"#utility.yul\":5506:5547   */\n  tag_34\n  jump\t// in\ntag_107:\n    /* \"#utility.yul\":5498:5504   */\n  dup5\n    /* \"#utility.yul\":5491:5495   */\n  dup5\n    /* \"#utility.yul\":5485:5496   */\n  sload\n    /* \"#utility.yul\":5457:5548   */\n  tag_31\n  jump\t// in\ntag_106:\n    /* \"#utility.yul\":5451:5455   */\n  dup3\n    /* \"#utility.yul\":5444:5549   */\n  sstore\n    /* \"#utility.yul\":5362:5555   */\n  pop\n    /* \"#utility.yul\":5286:5555   */\n  pop\n  pop\n  pop\n  jump\t// out\n    /* \"#utility.yul\":5561:5634   */\ntag_36:\n    /* \"#utility.yul\":5606:5609   */\n  0x00\n    /* \"#utility.yul\":5627:5628   */\n  0x00\n    /* \"#utility.yul\":5620:5628   */\n  swap1\n  pop\n    /* \"#utility.yul\":5561:5634   */\n  swap1\n  jump\t// out\n    /* \"#utility.yul\":5640:5829   */\ntag_37:\n    /* \"#utility.yul\":5717:5749   */\n  tag_110\n  tag_36\n  jump\t// in\ntag_110:\n    /* \"#utility.yul\":5758:5823   */\n  tag_111\n    /* \"#utility.yul\":5816:5822   */\n  dup2\n    /* \"#utility.yul\":5808:5814   */\n  dup5\n    /* \"#utility.yul\":5802:5806   */\n  dup5\n    /* \"#utility.yul\":5758:5823   */\n  tag_35\n  jump\t// in\ntag_111:\n    /* \"#utility.yul\":5693:5829   */\n  pop\n    /* \"#utility.yul\":5640:5829   */\n  pop\n  pop\n  jump\t// out\n    /* \"#utility.yul\":5835:6021   */\ntag_38:\n    /* \"#utility.yul\":5895:6015   */\ntag_113:\n    /* \"#utility.yul\":5912:5915   */\n  dup2\n    /* \"#utility.yul\":5905:5910   */\n  dup2\n    /* \"#utility.yul\":5902:5916   */\n  lt\n    /* \"#utility.yul\":5895:6015   */\n  iszero\n  tag_115\n  jumpi\n    /* \"#utility.yul\":5966:6005   */\n  tag_116\n    /* \"#utility.yul\":6003:6004   */\n  0x00\n    /* \"#utility.yul\":5996:6001   */\n  dup3\n    /* \"#utility.yul\":5966:6005   */\n  tag_37\n  jump\t// in\ntag_116:\n    /* \"#utility.yul\":5939:5940   */\n  0x01\n    /* \"#utility.yul\":5932:5937   */\n  dup2\n    /* \"#utility.yul\":5928:5941   */\n  add\n    /* \"#utility.yul\":5919:5941   */\n  swap1\n  pop\n    /* \"#utility.yul\":5895:6015   */\n  jump(tag_113)\ntag_115:\n    /* \"#utility.yul\":5835:6021   */\n  pop\n  pop\n  jump\t// out\n    /* \"#utility.yul\":6027:6570   */\ntag_39:\n    /* \"#utility.yul\":6128:6130   */\n  0x1f\n    /* \"#utility.yul\":6123:6126   */\n  dup3\n    /* \"#utility.yul\":6120:6131   */\n  gt\n    /* \"#utility.yul\":6117:6563   */\n  iszero\n  tag_118\n  jumpi\n    /* \"#utility.yul\":6162:6200   */\n  tag_119\n    /* \"#utility.yul\":6194:6199   */\n  dup2\n    /* \"#utility.yul\":6162:6200   */\n  tag_28\n  jump\t// in\ntag_119:\n    /* \"#utility.yul\":6246:6275   */\n  tag_120\n    /* \"#utility.yul\":6264:6274   */\n  dup5\n    /* \"#utility.yul\":6246:6275   */\n  tag_29\n  jump\t// in\ntag_120:\n    /* \"#utility.yul\":6236:6244   */\n  dup2\n    /* \"#utility.yul\":6232:6276   */\n  add\n    /* \"#utility.yul\":6429:6431   */\n  0x20\n    /* \"#utility.yul\":6417:6427   */\n  dup6\n    /* \"#utility.yul\":6414:6432   */\n  lt\n    /* \"#utility.yul\":6411:6460   */\n  iszero\n  tag_121\n  jumpi\n    /* \"#utility.yul\":6450:6458   */\n  dup2\n    /* \"#utility.yul\":6435:6458   */\n  swap1\n  pop\n    /* \"#utility.yul\":6411:6460   */\ntag_121:\n    /* \"#utility.yul\":6473:6553   */\n  tag_122\n    /* \"#utility.yul\":6529:6551   */\n  tag_123\n    /* \"#utility.yul\":6547:6550   */\n  dup6\n    /* \"#utility.yul\":6529:6551   */\n  tag_29\n  jump\t// in\ntag_123:\n    /* \"#utility.yul\":6519:6527   */\n  dup4\n    /* \"#utility.yul\":6515:6552   */\n  add\n    /* \"#utility.yul\":6502:6513   */\n  dup3\n    /* \"#utility.yul\":6473:6553   */\n  tag_38\n  jump\t// in\ntag_122:\n    /* \"#utility.yul\":6132:6563   */\n  pop\n  pop\n    /* \"#utility.yul\":6117:6563   */\ntag_118:\n    /* \"#utility.yul\":6027:6570   */\n  pop\n  pop\n  pop\n  jump\t// out\n    /* \"#utility.yul\":6576:6693   */\ntag_40:\n    /* \"#utility.yul\":6630:6638   */\n  0x00\n    /* \"#utility.yul\":6680:6685   */\n  dup3\n    /* \"#utility.yul\":6674:6678   */\n  dup3\n    /* \"#utility.yul\":6670:6686   */\n  shr\n    /* \"#utility.yul\":6649:6686   */\n  swap1\n  pop\n    /* \"#utility.yul\":6576:6693   */\n  swap3\n  swap2\n  pop\n  pop\n  jump\t// out\n    /* \"#utility.yul\":6699:6868   */\ntag_41:\n    /* \"#utility.yul\":6743:6749   */\n  0x00\n    /* \"#utility.yul\":6776:6827   */\n  tag_126\n    /* \"#utility.yul\":6824:6825   */\n  0x00\n    /* \"#utility.yul\":6820:6826   */\n  not\n    /* \"#utility.yul\":6812:6817   */\n  dup5\n    /* \"#utility.yul\":6809:6810   */\n  0x08\n    /* \"#utility.yul\":6805:6818   */\n  mul\n    /* \"#utility.yul\":6776:6827   */\n  tag_40\n  jump\t// in\ntag_126:\n    /* \"#utility.yul\":6772:6828   */\n  not\n    /* \"#utility.yul\":6857:6861   */\n  dup1\n    /* \"#utility.yul\":6851:6855   */\n  dup4\n    /* \"#utility.yul\":6847:6862   */\n  and\n    /* \"#utility.yul\":6837:6862   */\n  swap2\n  pop\n    /* \"#utility.yul\":6750:6868   */\n  pop\n    /* \"#utility.yul\":6699:6868   */\n  swap3\n  swap2\n  pop\n  pop\n  jump\t// out\n    /* \"#utility.yul\":6873:7168   */\ntag_42:\n    /* \"#utility.yul\":6949:6953   */\n  0x00\n    /* \"#utility.yul\":7095:7124   */\n  tag_128\n    /* \"#utility.yul\":7120:7123   */\n  dup4\n    /* \"#utility.yul\":7114:7118   */\n  dup4\n    /* \"#utility.yul\":7095:7124   */\n  tag_41\n  jump\t// in\ntag_128:\n    /* \"#utility.yul\":7087:7124   */\n  swap2\n  pop\n    /* \"#utility.yul\":7157:7160   */\n  dup3\n    /* \"#utility.yul\":7154:7155   */\n  0x02\n    /* \"#utility.yul\":7150:7161   */\n  mul\n    /* \"#utility.yul\":7144:7148   */\n  dup3\n    /* \"#utility.yul\":7141:7162   */\n  or\n    /* \"#utility.yul\":7133:7162   */\n  swap1\n  pop\n    /* \"#utility.yul\":6873:7168   */\n  swap3\n  swap2\n  pop\n  pop\n  jump\t// out\n    /* \"#utility.yul\":7173:8568   */\ntag_7:\n    /* \"#utility.yul\":7290:7327   */\n  tag_130\n    /* \"#utility.yul\":7323:7326   */\n  dup3\n    /* \"#utility.yul\":7290:7327   */\n  tag_25\n  jump\t// in\ntag_130:\n    /* \"#utility.yul\":7392:7410   */\n  0xffffffffffffffff\n    /* \"#utility.yul\":7384:7390   */\n  dup2\n    /* \"#utility.yul\":7381:7411   */\n  gt\n    /* \"#utility.yul\":7378:7434   */\n  iszero\n  tag_131\n  jumpi\n    /* \"#utility.yul\":7414:7432   */\n  tag_132\n  tag_15\n  jump\t// in\ntag_132:\n    /* \"#utility.yul\":7378:7434   */\ntag_131:\n    /* \"#utility.yul\":7458:7496   */\n  tag_133\n    /* \"#utility.yul\":7490:7494   */\n  dup3\n    /* \"#utility.yul\":7484:7495   */\n  sload\n    /* \"#utility.yul\":7458:7496   */\n  tag_27\n  jump\t// in\ntag_133:\n    /* \"#utility.yul\":7543:7610   */\n  tag_134\n    /* \"#utility.yul\":7603:7609   */\n  dup3\n    /* \"#utility.yul\":7595:7601   */\n  dup3\n    /* \"#utility.yul\":7589:7593   */\n  dup6\n    /* \"#utility.yul\":7543:7610   */\n  tag_39\n  jump\t// in\ntag_134:\n    /* \"#utility.yul\":7637:7638   */\n  0x00\n    /* \"#utility.yul\":7661:7665   */\n  0x20\n    /* \"#utility.yul\":7648:7665   */\n  swap1\n  pop\n    /* \"#utility.yul\":7693:7695   */\n  0x1f\n    /* \"#utility.yul\":7685:7691   */\n  dup4\n    /* \"#utility.yul\":7682:7696   */\n  gt\n    /* \"#utility.yul\":7710:7711   */\n  0x01\n    /* \"#utility.yul\":7705:8323   */\n  dup2\n  eq\n  tag_136\n  jumpi\n    /* \"#utility.yul\":8367:8368   */\n  0x00\n    /* \"#utility.yul\":8384:8390   */\n  dup5\n    /* \"#utility.yul\":8381:8458   */\n  iszero\n  tag_137\n  jumpi\n    /* \"#utility.yul\":8433:8442   */\n  dup3\n    /* \"#utility.yul\":8428:8431   */\n  dup8\n    /* \"#utility.yul\":8424:8443   */\n  add\n    /* \"#utility.yul\":8418:8444   */\n  mload\n    /* \"#utility.yul\":8409:8444   */\n  swap1\n  pop\n    /* \"#utility.yul\":8381:8458   */\ntag_137:\n    /* \"#utility.yul\":8484:8551   */\n  tag_138\n    /* \"#utility.yul\":8544:8550   */\n  dup6\n    /* \"#utility.yul\":8537:8542   */\n  dup3\n    /* \"#utility.yul\":8484:8551   */\n  tag_42\n  jump\t// in\ntag_138:\n    /* \"#utility.yul\":8478:8482   */\n  dup7\n    /* \"#utility.yul\":8471:8552   */\n  sstore\n    /* \"#utility.yul\":8340:8562   */\n  pop\n    /* \"#utility.yul\":7675:8562   */\n  jump(tag_135)\n    /* \"#utility.yul\":7705:8323   */\ntag_136:\n    /* \"#utility.yul\":7757:7761   */\n  0x1f\n    /* \"#utility.yul\":7753:7762   */\n  not\n    /* \"#utility.yul\":7745:7751   */\n  dup5\n    /* \"#utility.yul\":7741:7763   */\n  and\n    /* \"#utility.yul\":7791:7828   */\n  tag_139\n    /* \"#utility.yul\":7823:7827   */\n  dup7\n    /* \"#utility.yul\":7791:7828   */\n  tag_28\n  jump\t// in\ntag_139:\n    /* \"#utility.yul\":7850:7851   */\n  0x00\n    /* \"#utility.yul\":7864:8072   */\ntag_140:\n    /* \"#utility.yul\":7878:7885   */\n  dup3\n    /* \"#utility.yul\":7875:7876   */\n  dup2\n    /* \"#utility.yul\":7872:7886   */\n  lt\n    /* \"#utility.yul\":7864:8072   */\n  iszero\n  tag_142\n  jumpi\n    /* \"#utility.yul\":7957:7966   */\n  dup5\n    /* \"#utility.yul\":7952:7955   */\n  dup10\n    /* \"#utility.yul\":7948:7967   */\n  add\n    /* \"#utility.yul\":7942:7968   */\n  mload\n    /* \"#utility.yul\":7934:7940   */\n  dup3\n    /* \"#utility.yul\":7927:7969   */\n  sstore\n    /* \"#utility.yul\":8008:8009   */\n  0x01\n    /* \"#utility.yul\":8000:8006   */\n  dup3\n    /* \"#utility.yul\":7996:8010   */\n  add\n    /* \"#utility.yul\":7986:8010   */\n  swap2\n  pop\n    /* \"#utility.yul\":8055:8057   */\n  0x20\n    /* \"#utility.yul\":8044:8053   */\n  dup6\n    /* \"#utility.yul\":8040:8058   */\n  add\n    /* \"#utility.yul\":8027:8058   */\n  swap5\n  pop\n    /* \"#utility.yul\":7901:7905   */\n  0x20\n    /* \"#utility.yul\":7898:7899   */\n  dup2\n    /* \"#utility.yul\":7894:7906   */\n  add\n    /* \"#utility.yul\":7889:7906   */\n  swap1\n  pop\n    /* \"#utility.yul\":7864:8072   */\n  jump(tag_140)\ntag_142:\n    /* \"#utility.yul\":8100:8106   */\n  dup7\n    /* \"#utility.yul\":8091:8098   */\n  dup4\n    /* \"#utility.yul\":8088:8107   */\n  lt\n    /* \"#utility.yul\":8085:8264   */\n  iszero\n  tag_143\n  jumpi\n    /* \"#utility.yul\":8158:8167   */\n  dup5\n    /* \"#utility.yul\":8153:8156   */\n  dup10\n    /* \"#utility.yul\":8149:8168   */\n  add\n    /* \"#utility.yul\":8143:8169   */\n  mload\n    /* \"#utility.yul\":8201:8249   */\n  tag_144\n    /* \"#utility.yul\":8243:8247   */\n  0x1f\n    /* \"#utility.yul\":8235:8241   */\n  dup10\n    /* \"#utility.yul\":8231:8248   */\n  and\n    /* \"#utility.yul\":8220:8229   */\n  dup3\n    /* \"#utility.yul\":8201:8249   */\n  tag_41\n  jump\t// in\ntag_144:\n    /* \"#utility.yul\":8193:8199   */\n  dup4\n    /* \"#utility.yul\":8186:8250   */\n  sstore\n    /* \"#utility.yul\":8108:8264   */\n  pop\n    /* \"#utility.yul\":8085:8264   */\ntag_143:\n    /* \"#utility.yul\":8310:8311   */\n  0x01\n    /* \"#utility.yul\":8306:8307   */\n  0x02\n    /* \"#utility.yul\":8298:8304   */\n  dup9\n    /* \"#utility.yul\":8294:8308   */\n  mul\n    /* \"#utility.yul\":8290:8312   */\n  add\n    /* \"#utility.yul\":8284:8288   */\n  dup9\n    /* \"#utility.yul\":8277:8313   */\n  sstore\n    /* \"#utility.yul\":7712:8323   */\n  pop\n  pop\n  pop\n    /* \"#utility.yul\":7675:8562   */\ntag_135:\n  pop\n    /* \"#utility.yul\":7265:8568   */\n  pop\n  pop\n  pop\n    /* \"#utility.yul\":7173:8568   */\n  pop\n  pop\n  jump\t// out\n    /* \"bankAccountRequire.sol\":59:816  contract Bankaccount{... */\ntag_8:\n  dataSize(sub_0)\n  dup1\n  dataOffset(sub_0)\n  0x00\n  codecopy\n  0x00\n  return\nstop\n\nsub_0: assembly {\n        /* \"bankAccountRequire.sol\":59:816  contract Bankaccount{... */\n      mstore(0x40, 0x80)\n      callvalue\n      dup1\n      iszero\n      tag_1\n      jumpi\n      revert(0x00, 0x00)\n    tag_1:\n      pop\n      jumpi(tag_2, lt(calldatasize, 0x04))\n      shr(0xe0, calldataload(0x00))\n      dup1\n      0x487a37d2\n      eq\n      tag_3\n      jumpi\n      dup1\n      0x8a054ac2\n      eq\n      tag_4\n      jumpi\n      dup1\n      0xb02c43d0\n      eq\n      tag_5\n      jumpi\n    tag_2:\n      revert(0x00, 0x00)\n        /* \"bankAccountRequire.sol\":434:644  function withDraws(uint amount)public {... */\n    tag_3:\n      tag_6\n      0x04\n      dup1\n      calldatasize\n      sub\n      dup2\n      add\n      swap1\n      tag_7\n      swap2\n      swap1\n      tag_8\n      jump\t// in\n    tag_7:\n      tag_9\n      jump\t// in\n    tag_6:\n      stop\n        /* \"bankAccountRequire.sol\":251:267  details public d */\n    tag_4:\n      tag_10\n      tag_11\n      jump\t// in\n    tag_10:\n      mload(0x40)\n      tag_12\n      swap7\n      swap6\n      swap5\n      swap4\n      swap3\n      swap2\n      swap1\n      tag_13\n      jump\t// in\n    tag_12:\n      mload(0x40)\n      dup1\n      swap2\n      sub\n      swap1\n      return\n        /* \"bankAccountRequire.sol\":650:799  function deposits(uint amount)public {... */\n    tag_5:\n      tag_14\n      0x04\n      dup1\n      calldatasize\n      sub\n      dup2\n      add\n      swap1\n      tag_15\n      swap2\n      swap1\n      tag_8\n      jump\t// in\n    tag_15:\n      tag_16\n      jump\t// in\n    tag_14:\n      stop\n        /* \"bankAccountRequire.sol\":434:644  function withDraws(uint amount)public {... */\n    tag_9:\n        /* \"bankAccountRequire.sol\":501:502  0 */\n      0x00\n        /* \"bankAccountRequire.sol\":491:492  d */\n      0x00\n        /* \"bankAccountRequire.sol\":491:500  d.balance */\n      0x02\n      add\n      sload\n        /* \"bankAccountRequire.sol\":491:502  d.balance>0 */\n      gt\n        /* \"bankAccountRequire.sol\":483:531  require(d.balance>0,\"inSufficient bank balance\") */\n      tag_18\n      jumpi\n      mload(0x40)\n      0x08c379a000000000000000000000000000000000000000000000000000000000\n      dup2\n      mstore\n      0x04\n      add\n      tag_19\n      swap1\n      tag_20\n      jump\t// in\n    tag_19:\n      mload(0x40)\n      dup1\n      swap2\n      sub\n      swap1\n      revert\n    tag_18:\n        /* \"bankAccountRequire.sol\":557:558  0 */\n      0x00\n        /* \"bankAccountRequire.sol\":550:556  amount */\n      dup2\n        /* \"bankAccountRequire.sol\":550:558  amount>0 */\n      gt\n        /* \"bankAccountRequire.sol\":542:599  require(amount>0,\"withdraw money must be greater than 0\") */\n      tag_21\n      jumpi\n      mload(0x40)\n      0x08c379a000000000000000000000000000000000000000000000000000000000\n      dup2\n      mstore\n      0x04\n      add\n      tag_22\n      swap1\n      tag_23\n      jump\t// in\n    tag_22:\n      mload(0x40)\n      dup1\n      swap2\n      sub\n      swap1\n      revert\n    tag_21:\n        /* \"bankAccountRequire.sol\":630:636  amount */\n      dup1\n        /* \"bankAccountRequire.sol\":620:621  d */\n      0x00\n        /* \"bankAccountRequire.sol\":620:629  d.balance */\n      0x02\n      add\n      sload\n        /* \"bankAccountRequire.sol\":620:636  d.balance-amount */\n      tag_24\n      swap2\n      swap1\n      tag_25\n      jump\t// in\n    tag_24:\n        /* \"bankAccountRequire.sol\":610:611  d */\n      0x00\n        /* \"bankAccountRequire.sol\":610:619  d.balance */\n      0x02\n      add\n        /* \"bankAccountRequire.sol\":610:636  d.balance=d.balance-amount */\n      dup2\n      swap1\n      sstore\n      pop\n        /* \"bankAccountRequire.sol\":434:644  function withDraws(uint amount)public {... */\n      pop\n      jump\t// out\n        /* \"bankAccountRequire.sol\":251:267  details public d */\n    tag_11:\n      0x00\n      dup1\n      0x00\n      add\n      dup1\n      sload\n      tag_26\n      swap1\n      tag_27\n      jump\t// in\n    tag_26:\n      dup1\n      0x1f\n      add\n      0x20\n      dup1\n      swap2\n      div\n      mul\n      0x20\n      add\n      mload(0x40)\n      swap1\n      dup2\n      add\n      0x40\n      mstore\n      dup1\n      swap3\n      swap2\n      swap1\n      dup2\n      dup2\n      mstore\n      0x20\n      add\n      dup3\n      dup1\n      sload\n      tag_28\n      swap1\n      tag_27\n      jump\t// in\n    tag_28:\n      dup1\n      iszero\n      tag_29\n      jumpi\n      dup1\n      0x1f\n      lt\n      tag_30\n      jumpi\n      0x0100\n      dup1\n      dup4\n      sload\n      div\n      mul\n      dup4\n      mstore\n      swap2\n      0x20\n      add\n      swap2\n      jump(tag_29)\n    tag_30:\n      dup3\n      add\n      swap2\n      swap1\n      0x00\n      mstore\n      keccak256(0x00, 0x20)\n      swap1\n    tag_31:\n      dup2\n      sload\n      dup2\n      mstore\n      swap1\n      0x01\n      add\n      swap1\n      0x20\n      add\n      dup1\n      dup4\n      gt\n      tag_31\n      jumpi\n      dup3\n      swap1\n      sub\n      0x1f\n      and\n      dup3\n      add\n      swap2\n    tag_29:\n      pop\n      pop\n      pop\n      pop\n      pop\n      swap1\n      dup1\n      0x01\n      add\n      sload\n      swap1\n      dup1\n      0x02\n      add\n      sload\n      swap1\n      dup1\n      0x03\n      add\n      sload\n      swap1\n      dup1\n      0x04\n      add\n      sload\n      swap1\n      dup1\n      0x05\n      add\n      0x00\n      swap1\n      sload\n      swap1\n      0x0100\n      exp\n      swap1\n      div\n      0xff\n      and\n      swap1\n      pop\n      dup7\n      jump\t// out\n        /* \"bankAccountRequire.sol\":650:799  function deposits(uint amount)public {... */\n    tag_16:\n        /* \"bankAccountRequire.sol\":713:714  0 */\n      0x00\n        /* \"bankAccountRequire.sol\":706:712  amount */\n      dup2\n        /* \"bankAccountRequire.sol\":706:714  amount>0 */\n      gt\n        /* \"bankAccountRequire.sol\":698:754  require(amount>0,\"deposit money must be greater than 0\") */\n      tag_33\n      jumpi\n      mload(0x40)\n      0x08c379a000000000000000000000000000000000000000000000000000000000\n      dup2\n      mstore\n      0x04\n      add\n      tag_34\n      swap1\n      tag_35\n      jump\t// in\n    tag_34:\n      mload(0x40)\n      dup1\n      swap2\n      sub\n      swap1\n      revert\n    tag_33:\n        /* \"bankAccountRequire.sol\":785:791  amount */\n      dup1\n        /* \"bankAccountRequire.sol\":775:776  d */\n      0x00\n        /* \"bankAccountRequire.sol\":775:784  d.balance */\n      0x02\n      add\n      sload\n        /* \"bankAccountRequire.sol\":775:791  d.balance+amount */\n      tag_36\n      swap2\n      swap1\n      tag_37\n      jump\t// in\n    tag_36:\n        /* \"bankAccountRequire.sol\":765:766  d */\n      0x00\n        /* \"bankAccountRequire.sol\":765:774  d.balance */\n      0x02\n      add\n        /* \"bankAccountRequire.sol\":765:791  d.balance=d.balance+amount */\n      dup2\n      swap1\n      sstore\n      pop\n        /* \"bankAccountRequire.sol\":650:799  function deposits(uint amount)public {... */\n      pop\n      jump\t// out\n        /* \"#utility.yul\":88:205   */\n    tag_39:\n        /* \"#utility.yul\":197:198   */\n      0x00\n        /* \"#utility.yul\":194:195   */\n      0x00\n        /* \"#utility.yul\":187:199   */\n      revert\n        /* \"#utility.yul\":334:411   */\n    tag_41:\n        /* \"#utility.yul\":371:378   */\n      0x00\n        /* \"#utility.yul\":400:405   */\n      dup2\n        /* \"#utility.yul\":389:405   */\n      swap1\n      pop\n        /* \"#utility.yul\":334:411   */\n      swap2\n      swap1\n      pop\n      jump\t// out\n        /* \"#utility.yul\":417:539   */\n    tag_42:\n        /* \"#utility.yul\":490:514   */\n      tag_66\n        /* \"#utility.yul\":508:513   */\n      dup2\n        /* \"#utility.yul\":490:514   */\n      tag_41\n      jump\t// in\n    tag_66:\n        /* \"#utility.yul\":483:488   */\n      dup2\n        /* \"#utility.yul\":480:515   */\n      eq\n        /* \"#utility.yul\":470:533   */\n      tag_67\n      jumpi\n        /* \"#utility.yul\":529:530   */\n      0x00\n        /* \"#utility.yul\":526:527   */\n      0x00\n        /* \"#utility.yul\":519:531   */\n      revert\n        /* \"#utility.yul\":470:533   */\n    tag_67:\n        /* \"#utility.yul\":417:539   */\n      pop\n      jump\t// out\n        /* \"#utility.yul\":545:684   */\n    tag_43:\n        /* \"#utility.yul\":591:596   */\n      0x00\n        /* \"#utility.yul\":629:635   */\n      dup2\n        /* \"#utility.yul\":616:636   */\n      calldataload\n        /* \"#utility.yul\":607:636   */\n      swap1\n      pop\n        /* \"#utility.yul\":645:678   */\n      tag_69\n        /* \"#utility.yul\":672:677   */\n      dup2\n        /* \"#utility.yul\":645:678   */\n      tag_42\n      jump\t// in\n    tag_69:\n        /* \"#utility.yul\":545:684   */\n      swap3\n      swap2\n      pop\n      pop\n      jump\t// out\n        /* \"#utility.yul\":690:1019   */\n    tag_8:\n        /* \"#utility.yul\":749:755   */\n      0x00\n        /* \"#utility.yul\":798:800   */\n      0x20\n        /* \"#utility.yul\":786:795   */\n      dup3\n        /* \"#utility.yul\":777:784   */\n      dup5\n        /* \"#utility.yul\":773:796   */\n      sub\n        /* \"#utility.yul\":769:801   */\n      slt\n        /* \"#utility.yul\":766:885   */\n      iszero\n      tag_71\n      jumpi\n        /* \"#utility.yul\":804:883   */\n      tag_72\n      tag_39\n      jump\t// in\n    tag_72:\n        /* \"#utility.yul\":766:885   */\n    tag_71:\n        /* \"#utility.yul\":924:925   */\n      0x00\n        /* \"#utility.yul\":949:1002   */\n      tag_73\n        /* \"#utility.yul\":994:1001   */\n      dup5\n        /* \"#utility.yul\":985:991   */\n      dup3\n        /* \"#utility.yul\":974:983   */\n      dup6\n        /* \"#utility.yul\":970:992   */\n      add\n        /* \"#utility.yul\":949:1002   */\n      tag_43\n      jump\t// in\n    tag_73:\n        /* \"#utility.yul\":939:1002   */\n      swap2\n      pop\n        /* \"#utility.yul\":895:1012   */\n      pop\n        /* \"#utility.yul\":690:1019   */\n      swap3\n      swap2\n      pop\n      pop\n      jump\t// out\n        /* \"#utility.yul\":1025:1124   */\n    tag_44:\n        /* \"#utility.yul\":1077:1083   */\n      0x00\n        /* \"#utility.yul\":1111:1116   */\n      dup2\n        /* \"#utility.yul\":1105:1117   */\n      mload\n        /* \"#utility.yul\":1095:1117   */\n      swap1\n      pop\n        /* \"#utility.yul\":1025:1124   */\n      swap2\n      swap1\n      pop\n      jump\t// out\n        /* \"#utility.yul\":1130:1299   */\n    tag_45:\n        /* \"#utility.yul\":1214:1225   */\n      0x00\n        /* \"#utility.yul\":1248:1254   */\n      dup3\n        /* \"#utility.yul\":1243:1246   */\n      dup3\n        /* \"#utility.yul\":1236:1255   */\n      mstore\n        /* \"#utility.yul\":1288:1292   */\n      0x20\n        /* \"#utility.yul\":1283:1286   */\n      dup3\n        /* \"#utility.yul\":1279:1293   */\n      add\n        /* \"#utility.yul\":1264:1293   */\n      swap1\n      pop\n        /* \"#utility.yul\":1130:1299   */\n      swap3\n      swap2\n      pop\n      pop\n      jump\t// out\n        /* \"#utility.yul\":1305:1444   */\n    tag_46:\n        /* \"#utility.yul\":1394:1400   */\n      dup3\n        /* \"#utility.yul\":1389:1392   */\n      dup2\n        /* \"#utility.yul\":1384:1387   */\n      dup4\n        /* \"#utility.yul\":1378:1401   */\n      mcopy\n        /* \"#utility.yul\":1435:1436   */\n      0x00\n        /* \"#utility.yul\":1426:1432   */\n      dup4\n        /* \"#utility.yul\":1421:1424   */\n      dup4\n        /* \"#utility.yul\":1417:1433   */\n      add\n        /* \"#utility.yul\":1410:1437   */\n      mstore\n        /* \"#utility.yul\":1305:1444   */\n      pop\n      pop\n      pop\n      jump\t// out\n        /* \"#utility.yul\":1450:1552   */\n    tag_47:\n        /* \"#utility.yul\":1491:1497   */\n      0x00\n        /* \"#utility.yul\":1542:1544   */\n      0x1f\n        /* \"#utility.yul\":1538:1545   */\n      not\n        /* \"#utility.yul\":1533:1535   */\n      0x1f\n        /* \"#utility.yul\":1526:1531   */\n      dup4\n        /* \"#utility.yul\":1522:1536   */\n      add\n        /* \"#utility.yul\":1518:1546   */\n      and\n        /* \"#utility.yul\":1508:1546   */\n      swap1\n      pop\n        /* \"#utility.yul\":1450:1552   */\n      swap2\n      swap1\n      pop\n      jump\t// out\n        /* \"#utility.yul\":1558:1935   */\n    tag_48:\n        /* \"#utility.yul\":1646:1649   */\n      0x00\n        /* \"#utility.yul\":1674:1713   */\n      tag_79\n        /* \"#utility.yul\":1707:1712   */\n      dup3\n        /* \"#utility.yul\":1674:1713   */\n      tag_44\n      jump\t// in\n    tag_79:\n        /* \"#utility.yul\":1729:1800   */\n      tag_80\n        /* \"#utility.yul\":1793:1799   */\n      dup2\n        /* \"#utility.yul\":1788:1791   */\n      dup6\n        /* \"#utility.yul\":1729:1800   */\n      tag_45\n      jump\t// in\n    tag_80:\n        /* \"#utility.yul\":1722:1800   */\n      swap4\n      pop\n        /* \"#utility.yul\":1809:1874   */\n      tag_81\n        /* \"#utility.yul\":1867:1873   */\n      dup2\n        /* \"#utility.yul\":1862:1865   */\n      dup6\n        /* \"#utility.yul\":1855:1859   */\n      0x20\n        /* \"#utility.yul\":1848:1853   */\n      dup7\n        /* \"#utility.yul\":1844:1860   */\n      add\n        /* \"#utility.yul\":1809:1874   */\n      tag_46\n      jump\t// in\n    tag_81:\n        /* \"#utility.yul\":1899:1928   */\n      tag_82\n        /* \"#utility.yul\":1921:1927   */\n      dup2\n        /* \"#utility.yul\":1899:1928   */\n      tag_47\n      jump\t// in\n    tag_82:\n        /* \"#utility.yul\":1894:1897   */\n      dup5\n        /* \"#utility.yul\":1890:1929   */\n      add\n        /* \"#utility.yul\":1883:1929   */\n      swap2\n      pop\n        /* \"#utility.yul\":1650:1935   */\n      pop\n        /* \"#utility.yul\":1558:1935   */\n      swap3\n      swap2\n      pop\n      pop\n      jump\t// out\n        /* \"#utility.yul\":1941:2059   */\n    tag_49:\n        /* \"#utility.yul\":2028:2052   */\n      tag_84\n        /* \"#utility.yul\":2046:2051   */\n      dup2\n        /* \"#utility.yul\":2028:2052   */\n      tag_41\n      jump\t// in\n    tag_84:\n        /* \"#utility.yul\":2023:2026   */\n      dup3\n        /* \"#utility.yul\":2016:2053   */\n      mstore\n        /* \"#utility.yul\":1941:2059   */\n      pop\n      pop\n      jump\t// out\n        /* \"#utility.yul\":2065:2155   */\n    tag_50:\n        /* \"#utility.yul\":2099:2106   */\n      0x00\n        /* \"#utility.yul\":2142:2147   */\n      dup2\n        /* \"#utility.yul\":2135:2148   */\n      iszero\n        /* \"#utility.yul\":2128:2149   */\n      iszero\n        /* \"#utility.yul\":2117:2149   */\n      swap1\n      pop\n        /* \"#utility.yul\":2065:2155   */\n      swap2\n      swap1\n      pop\n      jump\t// out\n        /* \"#utility.yul\":2161:2270   */\n    tag_51:\n        /* \"#utility.yul\":2242:2263   */\n      tag_87\n        /* \"#utility.yul\":2257:2262   */\n      dup2\n        /* \"#utility.yul\":2242:2263   */\n      tag_50\n      jump\t// in\n    tag_87:\n        /* \"#utility.yul\":2237:2240   */\n      dup3\n        /* \"#utility.yul\":2230:2264   */\n      mstore\n        /* \"#utility.yul\":2161:2270   */\n      pop\n      pop\n      jump\t// out\n        /* \"#utility.yul\":2276:3130   */\n    tag_13:\n        /* \"#utility.yul\":2523:2527   */\n      0x00\n        /* \"#utility.yul\":2561:2564   */\n      0xc0\n        /* \"#utility.yul\":2550:2559   */\n      dup3\n        /* \"#utility.yul\":2546:2565   */\n      add\n        /* \"#utility.yul\":2538:2565   */\n      swap1\n      pop\n        /* \"#utility.yul\":2611:2620   */\n      dup2\n        /* \"#utility.yul\":2605:2609   */\n      dup2\n        /* \"#utility.yul\":2601:2621   */\n      sub\n        /* \"#utility.yul\":2597:2598   */\n      0x00\n        /* \"#utility.yul\":2586:2595   */\n      dup4\n        /* \"#utility.yul\":2582:2599   */\n      add\n        /* \"#utility.yul\":2575:2622   */\n      mstore\n        /* \"#utility.yul\":2639:2717   */\n      tag_89\n        /* \"#utility.yul\":2712:2716   */\n      dup2\n        /* \"#utility.yul\":2703:2709   */\n      dup10\n        /* \"#utility.yul\":2639:2717   */\n      tag_48\n      jump\t// in\n    tag_89:\n        /* \"#utility.yul\":2631:2717   */\n      swap1\n      pop\n        /* \"#utility.yul\":2727:2799   */\n      tag_90\n        /* \"#utility.yul\":2795:2797   */\n      0x20\n        /* \"#utility.yul\":2784:2793   */\n      dup4\n        /* \"#utility.yul\":2780:2798   */\n      add\n        /* \"#utility.yul\":2771:2777   */\n      dup9\n        /* \"#utility.yul\":2727:2799   */\n      tag_49\n      jump\t// in\n    tag_90:\n        /* \"#utility.yul\":2809:2881   */\n      tag_91\n        /* \"#utility.yul\":2877:2879   */\n      0x40\n        /* \"#utility.yul\":2866:2875   */\n      dup4\n        /* \"#utility.yul\":2862:2880   */\n      add\n        /* \"#utility.yul\":2853:2859   */\n      dup8\n        /* \"#utility.yul\":2809:2881   */\n      tag_49\n      jump\t// in\n    tag_91:\n        /* \"#utility.yul\":2891:2963   */\n      tag_92\n        /* \"#utility.yul\":2959:2961   */\n      0x60\n        /* \"#utility.yul\":2948:2957   */\n      dup4\n        /* \"#utility.yul\":2944:2962   */\n      add\n        /* \"#utility.yul\":2935:2941   */\n      dup7\n        /* \"#utility.yul\":2891:2963   */\n      tag_49\n      jump\t// in\n    tag_92:\n        /* \"#utility.yul\":2973:3046   */\n      tag_93\n        /* \"#utility.yul\":3041:3044   */\n      0x80\n        /* \"#utility.yul\":3030:3039   */\n      dup4\n        /* \"#utility.yul\":3026:3045   */\n      add\n        /* \"#utility.yul\":3017:3023   */\n      dup6\n        /* \"#utility.yul\":2973:3046   */\n      tag_49\n      jump\t// in\n    tag_93:\n        /* \"#utility.yul\":3056:3123   */\n      tag_94\n        /* \"#utility.yul\":3118:3121   */\n      0xa0\n        /* \"#utility.yul\":3107:3116   */\n      dup4\n        /* \"#utility.yul\":3103:3122   */\n      add\n        /* \"#utility.yul\":3094:3100   */\n      dup5\n        /* \"#utility.yul\":3056:3123   */\n      tag_51\n      jump\t// in\n    tag_94:\n        /* \"#utility.yul\":2276:3130   */\n      swap8\n      swap7\n      pop\n      pop\n      pop\n      pop\n      pop\n      pop\n      pop\n      jump\t// out\n        /* \"#utility.yul\":3136:3311   */\n    tag_52:\n        /* \"#utility.yul\":3276:3303   */\n      0x696e53756666696369656e742062616e6b2062616c616e636500000000000000\n        /* \"#utility.yul\":3272:3273   */\n      0x00\n        /* \"#utility.yul\":3264:3270   */\n      dup3\n        /* \"#utility.yul\":3260:3274   */\n      add\n        /* \"#utility.yul\":3253:3304   */\n      mstore\n        /* \"#utility.yul\":3136:3311   */\n      pop\n      jump\t// out\n        /* \"#utility.yul\":3317:3683   */\n    tag_53:\n        /* \"#utility.yul\":3459:3462   */\n      0x00\n        /* \"#utility.yul\":3480:3547   */\n      tag_97\n        /* \"#utility.yul\":3544:3546   */\n      0x19\n        /* \"#utility.yul\":3539:3542   */\n      dup4\n        /* \"#utility.yul\":3480:3547   */\n      tag_45\n      jump\t// in\n    tag_97:\n        /* \"#utility.yul\":3473:3547   */\n      swap2\n      pop\n        /* \"#utility.yul\":3556:3649   */\n      tag_98\n        /* \"#utility.yul\":3645:3648   */\n      dup3\n        /* \"#utility.yul\":3556:3649   */\n      tag_52\n      jump\t// in\n    tag_98:\n        /* \"#utility.yul\":3674:3676   */\n      0x20\n        /* \"#utility.yul\":3669:3672   */\n      dup3\n        /* \"#utility.yul\":3665:3677   */\n      add\n        /* \"#utility.yul\":3658:3677   */\n      swap1\n      pop\n        /* \"#utility.yul\":3317:3683   */\n      swap2\n      swap1\n      pop\n      jump\t// out\n        /* \"#utility.yul\":3689:4108   */\n    tag_20:\n        /* \"#utility.yul\":3855:3859   */\n      0x00\n        /* \"#utility.yul\":3893:3895   */\n      0x20\n        /* \"#utility.yul\":3882:3891   */\n      dup3\n        /* \"#utility.yul\":3878:3896   */\n      add\n        /* \"#utility.yul\":3870:3896   */\n      swap1\n      pop\n        /* \"#utility.yul\":3942:3951   */\n      dup2\n        /* \"#utility.yul\":3936:3940   */\n      dup2\n        /* \"#utility.yul\":3932:3952   */\n      sub\n        /* \"#utility.yul\":3928:3929   */\n      0x00\n        /* \"#utility.yul\":3917:3926   */\n      dup4\n        /* \"#utility.yul\":3913:3930   */\n      add\n        /* \"#utility.yul\":3906:3953   */\n      mstore\n        /* \"#utility.yul\":3970:4101   */\n      tag_100\n        /* \"#utility.yul\":4096:4100   */\n      dup2\n        /* \"#utility.yul\":3970:4101   */\n      tag_53\n      jump\t// in\n    tag_100:\n        /* \"#utility.yul\":3962:4101   */\n      swap1\n      pop\n        /* \"#utility.yul\":3689:4108   */\n      swap2\n      swap1\n      pop\n      jump\t// out\n        /* \"#utility.yul\":4114:4338   */\n    tag_54:\n        /* \"#utility.yul\":4254:4288   */\n      0x7769746864726177206d6f6e6579206d75737420626520677265617465722074\n        /* \"#utility.yul\":4250:4251   */\n      0x00\n        /* \"#utility.yul\":4242:4248   */\n      dup3\n        /* \"#utility.yul\":4238:4252   */\n      add\n        /* \"#utility.yul\":4231:4289   */\n      mstore\n        /* \"#utility.yul\":4323:4330   */\n      0x68616e2030000000000000000000000000000000000000000000000000000000\n        /* \"#utility.yul\":4318:4320   */\n      0x20\n        /* \"#utility.yul\":4310:4316   */\n      dup3\n        /* \"#utility.yul\":4306:4321   */\n      add\n        /* \"#utility.yul\":4299:4331   */\n      mstore\n        /* \"#utility.yul\":4114:4338   */\n      pop\n      jump\t// out\n        /* \"#utility.yul\":4344:4710   */\n    tag_55:\n        /* \"#utility.yul\":4486:4489   */\n      0x00\n        /* \"#utility.yul\":4507:4574   */\n      tag_103\n        /* \"#utility.yul\":4571:4573   */\n      0x25\n        /* \"#utility.yul\":4566:4569   */\n      dup4\n        /* \"#utility.yul\":4507:4574   */\n      tag_45\n      jump\t// in\n    tag_103:\n        /* \"#utility.yul\":4500:4574   */\n      swap2\n      pop\n        /* \"#utility.yul\":4583:4676   */\n      tag_104\n        /* \"#utility.yul\":4672:4675   */\n      dup3\n        /* \"#utility.yul\":4583:4676   */\n      tag_54\n      jump\t// in\n    tag_104:\n        /* \"#utility.yul\":4701:4703   */\n      0x40\n        /* \"#utility.yul\":4696:4699   */\n      dup3\n        /* \"#utility.yul\":4692:4704   */\n      add\n        /* \"#utility.yul\":4685:4704   */\n      swap1\n      pop\n        /* \"#utility.yul\":4344:4710   */\n      swap2\n      swap1\n      pop\n      jump\t// out\n        /* \"#utility.yul\":4716:5135   */\n    tag_23:\n        /* \"#utility.yul\":4882:4886   */\n      0x00\n        /* \"#utility.yul\":4920:4922   */\n      0x20\n        /* \"#utility.yul\":4909:4918   */\n      dup3\n        /* \"#utility.yul\":4905:4923   */\n      add\n        /* \"#utility.yul\":4897:4923   */\n      swap1\n      pop\n        /* \"#utility.yul\":4969:4978   */\n      dup2\n        /* \"#utility.yul\":4963:4967   */\n      dup2\n        /* \"#utility.yul\":4959:4979   */\n      sub\n        /* \"#utility.yul\":4955:4956   */\n      0x00\n        /* \"#utility.yul\":4944:4953   */\n      dup4\n        /* \"#utility.yul\":4940:4957   */\n      add\n        /* \"#utility.yul\":4933:4980   */\n      mstore\n        /* \"#utility.yul\":4997:5128   */\n      tag_106\n        /* \"#utility.yul\":5123:5127   */\n      dup2\n        /* \"#utility.yul\":4997:5128   */\n      tag_55\n      jump\t// in\n    tag_106:\n        /* \"#utility.yul\":4989:5128   */\n      swap1\n      pop\n        /* \"#utility.yul\":4716:5135   */\n      swap2\n      swap1\n      pop\n      jump\t// out\n        /* \"#utility.yul\":5141:5321   */\n    tag_56:\n        /* \"#utility.yul\":5189:5266   */\n      0x4e487b7100000000000000000000000000000000000000000000000000000000\n        /* \"#utility.yul\":5186:5187   */\n      0x00\n        /* \"#utility.yul\":5179:5267   */\n      mstore\n        /* \"#utility.yul\":5286:5290   */\n      0x11\n        /* \"#utility.yul\":5283:5284   */\n      0x04\n        /* \"#utility.yul\":5276:5291   */\n      mstore\n        /* \"#utility.yul\":5310:5314   */\n      0x24\n        /* \"#utility.yul\":5307:5308   */\n      0x00\n        /* \"#utility.yul\":5300:5315   */\n      revert\n        /* \"#utility.yul\":5327:5521   */\n    tag_25:\n        /* \"#utility.yul\":5367:5371   */\n      0x00\n        /* \"#utility.yul\":5387:5407   */\n      tag_109\n        /* \"#utility.yul\":5405:5406   */\n      dup3\n        /* \"#utility.yul\":5387:5407   */\n      tag_41\n      jump\t// in\n    tag_109:\n        /* \"#utility.yul\":5382:5407   */\n      swap2\n      pop\n        /* \"#utility.yul\":5421:5441   */\n      tag_110\n        /* \"#utility.yul\":5439:5440   */\n      dup4\n        /* \"#utility.yul\":5421:5441   */\n      tag_41\n      jump\t// in\n    tag_110:\n        /* \"#utility.yul\":5416:5441   */\n      swap3\n      pop\n        /* \"#utility.yul\":5465:5466   */\n      dup3\n        /* \"#utility.yul\":5462:5463   */\n      dup3\n        /* \"#utility.yul\":5458:5467   */\n      sub\n        /* \"#utility.yul\":5450:5467   */\n      swap1\n      pop\n        /* \"#utility.yul\":5489:5490   */\n      dup2\n        /* \"#utility.yul\":5483:5487   */\n      dup2\n        /* \"#utility.yul\":5480:5491   */\n      gt\n        /* \"#utility.yul\":5477:5514   */\n      iszero\n      tag_111\n      jumpi\n        /* \"#utility.yul\":5494:5512   */\n      tag_112\n      tag_56\n      jump\t// in\n    tag_112:\n        /* \"#utility.yul\":5477:5514   */\n    tag_111:\n        /* \"#utility.yul\":5327:5521   */\n      swap3\n      swap2\n      pop\n      pop\n      jump\t// out\n        /* \"#utility.yul\":5527:5707   */\n    tag_57:\n        /* \"#utility.yul\":5575:5652   */\n      0x4e487b7100000000000000000000000000000000000000000000000000000000\n        /* \"#utility.yul\":5572:5573   */\n      0x00\n        /* \"#utility.yul\":5565:5653   */\n      mstore\n        /* \"#utility.yul\":5672:5676   */\n      0x22\n        /* \"#utility.yul\":5669:5670   */\n      0x04\n        /* \"#utility.yul\":5662:5677   */\n      mstore\n        /* \"#utility.yul\":5696:5700   */\n      0x24\n        /* \"#utility.yul\":5693:5694   */\n      0x00\n        /* \"#utility.yul\":5686:5701   */\n      revert\n        /* \"#utility.yul\":5713:6033   */\n    tag_27:\n        /* \"#utility.yul\":5757:5763   */\n      0x00\n        /* \"#utility.yul\":5794:5795   */\n      0x02\n        /* \"#utility.yul\":5788:5792   */\n      dup3\n        /* \"#utility.yul\":5784:5796   */\n      div\n        /* \"#utility.yul\":5774:5796   */\n      swap1\n      pop\n        /* \"#utility.yul\":5841:5842   */\n      0x01\n        /* \"#utility.yul\":5835:5839   */\n      dup3\n        /* \"#utility.yul\":5831:5843   */\n      and\n        /* \"#utility.yul\":5862:5880   */\n      dup1\n        /* \"#utility.yul\":5852:5933   */\n      tag_115\n      jumpi\n        /* \"#utility.yul\":5918:5922   */\n      0x7f\n        /* \"#utility.yul\":5910:5916   */\n      dup3\n        /* \"#utility.yul\":5906:5923   */\n      and\n        /* \"#utility.yul\":5896:5923   */\n      swap2\n      pop\n        /* \"#utility.yul\":5852:5933   */\n    tag_115:\n        /* \"#utility.yul\":5980:5982   */\n      0x20\n        /* \"#utility.yul\":5972:5978   */\n      dup3\n        /* \"#utility.yul\":5969:5983   */\n      lt\n        /* \"#utility.yul\":5949:5967   */\n      dup2\n        /* \"#utility.yul\":5946:5984   */\n      sub\n        /* \"#utility.yul\":5943:6027   */\n      tag_116\n      jumpi\n        /* \"#utility.yul\":5999:6017   */\n      tag_117\n      tag_57\n      jump\t// in\n    tag_117:\n        /* \"#utility.yul\":5943:6027   */\n    tag_116:\n        /* \"#utility.yul\":5764:6033   */\n      pop\n        /* \"#utility.yul\":5713:6033   */\n      swap2\n      swap1\n      pop\n      jump\t// out\n        /* \"#utility.yul\":6039:6262   */\n    tag_58:\n        /* \"#utility.yul\":6179:6213   */\n      0x6465706f736974206d6f6e6579206d7573742062652067726561746572207468\n        /* \"#utility.yul\":6175:6176   */\n      0x00\n        /* \"#utility.yul\":6167:6173   */\n      dup3\n        /* \"#utility.yul\":6163:6177   */\n      add\n        /* \"#utility.yul\":6156:6214   */\n      mstore\n        /* \"#utility.yul\":6248:6254   */\n      0x616e203000000000000000000000000000000000000000000000000000000000\n        /* \"#utility.yul\":6243:6245   */\n      0x20\n        /* \"#utility.yul\":6235:6241   */\n      dup3\n        /* \"#utility.yul\":6231:6246   */\n      add\n        /* \"#utility.yul\":6224:6255   */\n      mstore\n        /* \"#utility.yul\":6039:6262   */\n      pop\n      jump\t// out\n        /* \"#utility.yul\":6268:6634   */\n    tag_59:\n        /* \"#utility.yul\":6410:6413   */\n      0x00\n        /* \"#utility.yul\":6431:6498   */\n      tag_120\n        /* \"#utility.yul\":6495:6497   */\n      0x24\n        /* \"#utility.yul\":6490:6493   */\n      dup4\n        /* \"#utility.yul\":6431:6498   */\n      tag_45\n      jump\t// in\n    tag_120:\n        /* \"#utility.yul\":6424:6498   */\n      swap2\n      pop\n        /* \"#utility.yul\":6507:6600   */\n      tag_121\n        /* \"#utility.yul\":6596:6599   */\n      dup3\n        /* \"#utility.yul\":6507:6600   */\n      tag_58\n      jump\t// in\n    tag_121:\n        /* \"#utility.yul\":6625:6627   */\n      0x40\n        /* \"#utility.yul\":6620:6623   */\n      dup3\n        /* \"#utility.yul\":6616:6628   */\n      add\n        /* \"#utility.yul\":6609:6628   */\n      swap1\n      pop\n        /* \"#utility.yul\":6268:6634   */\n      swap2\n      swap1\n      pop\n      jump\t// out\n        /* \"#utility.yul\":6640:7059   */\n    tag_35:\n        /* \"#utility.yul\":6806:6810   */\n      0x00\n        /* \"#utility.yul\":6844:6846   */\n      0x20\n        /* \"#utility.yul\":6833:6842   */\n      dup3\n        /* \"#utility.yul\":6829:6847   */\n      add\n        /* \"#utility.yul\":6821:6847   */\n      swap1\n      pop\n        /* \"#utility.yul\":6893:6902   */\n      dup2\n        /* \"#utility.yul\":6887:6891   */\n      dup2\n        /* \"#utility.yul\":6883:6903   */\n      sub\n        /* \"#utility.yul\":6879:6880   */\n      0x00\n        /* \"#utility.yul\":6868:6877   */\n      dup4\n        /* \"#utility.yul\":6864:6881   */\n      add\n        /* \"#utility.yul\":6857:6904   */\n      mstore\n        /* \"#utility.yul\":6921:7052   */\n      tag_123\n        /* \"#utility.yul\":7047:7051   */\n      dup2\n        /* \"#utility.yul\":6921:7052   */\n      tag_59\n      jump\t// in\n    tag_123:\n        /* \"#utility.yul\":6913:7052   */\n      swap1\n      pop\n        /* \"#utility.yul\":6640:7059   */\n      swap2\n      swap1\n      pop\n      jump\t// out\n        /* \"#utility.yul\":7065:7256   */\n    tag_37:\n        /* \"#utility.yul\":7105:7108   */\n      0x00\n        /* \"#utility.yul\":7124:7144   */\n      tag_125\n        /* \"#utility.yul\":7142:7143   */\n      dup3\n        /* \"#utility.yul\":7124:7144   */\n      tag_41\n      jump\t// in\n    tag_125:\n        /* \"#utility.yul\":7119:7144   */\n      swap2\n      pop\n        /* \"#utility.yul\":7158:7178   */\n      tag_126\n        /* \"#utility.yul\":7176:7177   */\n      dup4\n        /* \"#utility.yul\":7158:7178   */\n      tag_41\n      jump\t// in\n    tag_126:\n        /* \"#utility.yul\":7153:7178   */\n      swap3\n      pop\n        /* \"#utility.yul\":7201:7202   */\n      dup3\n        /* \"#utility.yul\":7198:7199   */\n      dup3\n        /* \"#utility.yul\":7194:7203   */\n      add\n        /* \"#utility.yul\":7187:7203   */\n      swap1\n      pop\n        /* \"#utility.yul\":7222:7225   */\n      dup1\n        /* \"#utility.yul\":7219:7220   */\n      dup3\n        /* \"#utility.yul\":7216:7226   */\n      gt\n        /* \"#utility.yul\":7213:7249   */\n      iszero\n      tag_127\n      jumpi\n        /* \"#utility.yul\":7229:7247   */\n      tag_128\n      tag_56\n      jump\t// in\n    tag_128:\n        /* \"#utility.yul\":7213:7249   */\n    tag_127:\n        /* \"#utility.yul\":7065:7256   */\n      swap3\n      swap2\n      pop\n      pop\n      jump\t// out\n\n    auxdata: 0xa264697066735822122078ac58581d4f6cb3352add231150c73c6af4d3aed3333a8e7b5d8c8233c4b9ea64736f6c634300081e0033\n}\n",
				"bytecode": {
					"linkReferences": {},
					"object": "608060405234801561000f575f5ffd5b50604051610b97380380610b97833981810160405281019061003191906101f7565b815f5f0190816100419190610458565b50805f600101819055505f5f6002018190555060015f6005015f6101000a81548160ff0219169083151502179055505050610527565b5f604051905090565b5f5ffd5b5f5ffd5b5f5ffd5b5f5ffd5b5f601f19601f8301169050919050565b7f4e487b71000000000000000000000000000000000000000000000000000000005f52604160045260245ffd5b6100d682610090565b810181811067ffffffffffffffff821117156100f5576100f46100a0565b5b80604052505050565b5f610107610077565b905061011382826100cd565b919050565b5f67ffffffffffffffff821115610132576101316100a0565b5b61013b82610090565b9050602081019050919050565b8281835e5f83830152505050565b5f61016861016384610118565b6100fe565b9050828152602081018484840111156101845761018361008c565b5b61018f848285610148565b509392505050565b5f82601f8301126101ab576101aa610088565b5b81516101bb848260208601610156565b91505092915050565b5f819050919050565b6101d6816101c4565b81146101e0575f5ffd5b50565b5f815190506101f1816101cd565b92915050565b5f5f6040838503121561020d5761020c610080565b5b5f83015167ffffffffffffffff81111561022a57610229610084565b5b61023685828601610197565b9250506020610247858286016101e3565b9150509250929050565b5f81519050919050565b7f4e487b71000000000000000000000000000000000000000000000000000000005f52602260045260245ffd5b5f600282049050600182168061029f57607f821691505b6020821081036102b2576102b161025b565b5b50919050565b5f819050815f5260205f209050919050565b5f6020601f8301049050919050565b5f82821b905092915050565b5f600883026103147fffffffffffffffffffffffffffffffffffffffffffffffffffffffffffffffff826102d9565b61031e86836102d9565b95508019841693508086168417925050509392505050565b5f819050919050565b5f61035961035461034f846101c4565b610336565b6101c4565b9050919050565b5f819050919050565b6103728361033f565b61038661037e82610360565b8484546102e5565b825550505050565b5f5f905090565b61039d61038e565b6103a8818484610369565b505050565b5b818110156103cb576103c05f82610395565b6001810190506103ae565b5050565b601f821115610410576103e1816102b8565b6103ea846102ca565b810160208510156103f9578190505b61040d610405856102ca565b8301826103ad565b50505b505050565b5f82821c905092915050565b5f6104305f1984600802610415565b1980831691505092915050565b5f6104488383610421565b9150826002028217905092915050565b61046182610251565b67ffffffffffffffff81111561047a576104796100a0565b5b6104848254610288565b61048f8282856103cf565b5f60209050601f8311600181146104c0575f84156104ae578287015190505b6104b8858261043d565b86555061051f565b601f1984166104ce866102b8565b5f5b828110156104f5578489015182556001820191506020850194506020810190506104d0565b86831015610512578489015161050e601f891682610421565b8355505b6001600288020188555050505b505050505050565b610663806105345f395ff3fe608060405234801561000f575f5ffd5b506004361061003f575f3560e01c8063487a37d2146100435780638a054ac21461005f578063b02c43d014610082575b5f5ffd5b61005d6004803603810190610058919061028f565b61009e565b005b610067610141565b60405161007996959493929190610353565b60405180910390f35b61009c6004803603810190610097919061028f565b6101fb565b005b5f5f60020154116100e4576040517f08c379a00000000000000000000000000000000000000000000000000000000081526004016100db90610403565b60405180910390fd5b5f8111610126576040517f08c379a000000000000000000000000000000000000000000000000000000000815260040161011d90610491565b60405180910390fd5b805f6002015461013691906104dc565b5f6002018190555050565b5f805f0180546101509061053c565b80601f016020809104026020016040519081016040528092919081815260200182805461017c9061053c565b80156101c75780601f1061019e576101008083540402835291602001916101c7565b820191905f5260205f20905b8154815290600101906020018083116101aa57829003601f168201915b505050505090806001015490806002015490806003015490806004015490806005015f9054906101000a900460ff16905086565b5f811161023d576040517f08c379a0000000000000000000000000000000000000000000000000000000008152600401610234906105dc565b60405180910390fd5b805f6002015461024d91906105fa565b5f6002018190555050565b5f5ffd5b5f819050919050565b61026e8161025c565b8114610278575f5ffd5b50565b5f8135905061028981610265565b92915050565b5f602082840312156102a4576102a3610258565b5b5f6102b18482850161027b565b91505092915050565b5f81519050919050565b5f82825260208201905092915050565b8281835e5f83830152505050565b5f601f19601f8301169050919050565b5f6102fc826102ba565b61030681856102c4565b93506103168185602086016102d4565b61031f816102e2565b840191505092915050565b6103338161025c565b82525050565b5f8115159050919050565b61034d81610339565b82525050565b5f60c0820190508181035f83015261036b81896102f2565b905061037a602083018861032a565b610387604083018761032a565b610394606083018661032a565b6103a1608083018561032a565b6103ae60a0830184610344565b979650505050505050565b7f696e53756666696369656e742062616e6b2062616c616e6365000000000000005f82015250565b5f6103ed6019836102c4565b91506103f8826103b9565b602082019050919050565b5f6020820190508181035f83015261041a816103e1565b9050919050565b7f7769746864726177206d6f6e6579206d757374206265206772656174657220745f8201527f68616e2030000000000000000000000000000000000000000000000000000000602082015250565b5f61047b6025836102c4565b915061048682610421565b604082019050919050565b5f6020820190508181035f8301526104a88161046f565b9050919050565b7f4e487b71000000000000000000000000000000000000000000000000000000005f52601160045260245ffd5b5f6104e68261025c565b91506104f18361025c565b9250828203905081811115610509576105086104af565b5b92915050565b7f4e487b71000000000000000000000000000000000000000000000000000000005f52602260045260245ffd5b5f600282049050600182168061055357607f821691505b6020821081036105665761056561050f565b5b50919050565b7f6465706f736974206d6f6e6579206d75737420626520677265617465722074685f8201527f616e203000000000000000000000000000000000000000000000000000000000602082015250565b5f6105c66024836102c4565b91506105d18261056c565b604082019050919050565b5f6020820190508181035f8301526105f3816105ba565b9050919050565b5f6106048261025c565b915061060f8361025c565b9250828201905080821115610627576106266104af565b5b9291505056fea264697066735822122078ac58581d4f6cb3352add231150c73c6af4d3aed3333a8e7b5d8c8233c4b9ea64736f6c634300081e0033",
					"opcodes": "PUSH1 0x80 PUSH1 0x40 MSTORE CALLVALUE DUP1 ISZERO PUSH2 0xF JUMPI PUSH0 PUSH0 REVERT JUMPDEST POP PUSH1 0x40 MLOAD PUSH2 0xB97 CODESIZE SUB DUP1 PUSH2 0xB97 DUP4 CODECOPY DUP2 DUP2 ADD PUSH1 0x40 MSTORE DUP2 ADD SWAP1 PUSH2 0x31 SWAP2 SWAP1 PUSH2 0x1F7 JUMP JUMPDEST DUP2 PUSH0 PUSH0 ADD SWAP1 DUP2 PUSH2 0x41 SWAP2 SWAP1 PUSH2 0x458 JUMP JUMPDEST POP DUP1 PUSH0 PUSH1 0x1 ADD DUP2 SWAP1 SSTORE POP PUSH0 PUSH0 PUSH1 0x2 ADD DUP2 SWAP1 SSTORE POP PUSH1 0x1 PUSH0 PUSH1 0x5 ADD PUSH0 PUSH2 0x100 EXP DUP2 SLOAD DUP2 PUSH1 0xFF MUL NOT AND SWAP1 DUP4 ISZERO ISZERO MUL OR SWAP1 SSTORE POP POP POP PUSH2 0x527 JUMP JUMPDEST PUSH0 PUSH1 0x40 MLOAD SWAP1 POP SWAP1 JUMP JUMPDEST PUSH0 PUSH0 REVERT JUMPDEST PUSH0 PUSH0 REVERT JUMPDEST PUSH0 PUSH0 REVERT JUMPDEST PUSH0 PUSH0 REVERT JUMPDEST PUSH0 PUSH1 0x1F NOT PUSH1 0x1F DUP4 ADD AND SWAP1 POP SWAP2 SWAP1 POP JUMP JUMPDEST PUSH32 0x4E487B7100000000000000000000000000000000000000000000000000000000 PUSH0 MSTORE PUSH1 0x41 PUSH1 0x4 MSTORE PUSH1 0x24 PUSH0 REVERT JUMPDEST PUSH2 0xD6 DUP3 PUSH2 0x90 JUMP JUMPDEST DUP2 ADD DUP2 DUP2 LT PUSH8 0xFFFFFFFFFFFFFFFF DUP3 GT OR ISZERO PUSH2 0xF5 JUMPI PUSH2 0xF4 PUSH2 0xA0 JUMP JUMPDEST JUMPDEST DUP1 PUSH1 0x40 MSTORE POP POP POP JUMP JUMPDEST PUSH0 PUSH2 0x107 PUSH2 0x77 JUMP JUMPDEST SWAP1 POP PUSH2 0x113 DUP3 DUP3 PUSH2 0xCD JUMP JUMPDEST SWAP2 SWAP1 POP JUMP JUMPDEST PUSH0 PUSH8 0xFFFFFFFFFFFFFFFF DUP3 GT ISZERO PUSH2 0x132 JUMPI PUSH2 0x131 PUSH2 0xA0 JUMP JUMPDEST JUMPDEST PUSH2 0x13B DUP3 PUSH2 0x90 JUMP JUMPDEST SWAP1 POP PUSH1 0x20 DUP2 ADD SWAP1 POP SWAP2 SWAP1 POP JUMP JUMPDEST DUP3 DUP2 DUP4 MCOPY PUSH0 DUP4 DUP4 ADD MSTORE POP POP POP JUMP JUMPDEST PUSH0 PUSH2 0x168 PUSH2 0x163 DUP5 PUSH2 0x118 JUMP JUMPDEST PUSH2 0xFE JUMP JUMPDEST SWAP1 POP DUP3 DUP2 MSTORE PUSH1 0x20 DUP2 ADD DUP5 DUP5 DUP5 ADD GT ISZERO PUSH2 0x184 JUMPI PUSH2 0x183 PUSH2 0x8C JUMP JUMPDEST JUMPDEST PUSH2 0x18F DUP5 DUP3 DUP6 PUSH2 0x148 JUMP JUMPDEST POP SWAP4 SWAP3 POP POP POP JUMP JUMPDEST PUSH0 DUP3 PUSH1 0x1F DUP4 ADD SLT PUSH2 0x1AB JUMPI PUSH2 0x1AA PUSH2 0x88 JUMP JUMPDEST JUMPDEST DUP2 MLOAD PUSH2 0x1BB DUP5 DUP3 PUSH1 0x20 DUP7 ADD PUSH2 0x156 JUMP JUMPDEST SWAP2 POP POP SWAP3 SWAP2 POP POP JUMP JUMPDEST PUSH0 DUP2 SWAP1 POP SWAP2 SWAP1 POP JUMP JUMPDEST PUSH2 0x1D6 DUP2 PUSH2 0x1C4 JUMP JUMPDEST DUP2 EQ PUSH2 0x1E0 JUMPI PUSH0 PUSH0 REVERT JUMPDEST POP JUMP JUMPDEST PUSH0 DUP2 MLOAD SWAP1 POP PUSH2 0x1F1 DUP2 PUSH2 0x1CD JUMP JUMPDEST SWAP3 SWAP2 POP POP JUMP JUMPDEST PUSH0 PUSH0 PUSH1 0x40 DUP4 DUP6 SUB SLT ISZERO PUSH2 0x20D JUMPI PUSH2 0x20C PUSH2 0x80 JUMP JUMPDEST JUMPDEST PUSH0 DUP4 ADD MLOAD PUSH8 0xFFFFFFFFFFFFFFFF DUP2 GT ISZERO PUSH2 0x22A JUMPI PUSH2 0x229 PUSH2 0x84 JUMP JUMPDEST JUMPDEST PUSH2 0x236 DUP6 DUP3 DUP7 ADD PUSH2 0x197 JUMP JUMPDEST SWAP3 POP POP PUSH1 0x20 PUSH2 0x247 DUP6 DUP3 DUP7 ADD PUSH2 0x1E3 JUMP JUMPDEST SWAP2 POP POP SWAP3 POP SWAP3 SWAP1 POP JUMP JUMPDEST PUSH0 DUP2 MLOAD SWAP1 POP SWAP2 SWAP1 POP JUMP JUMPDEST PUSH32 0x4E487B7100000000000000000000000000000000000000000000000000000000 PUSH0 MSTORE PUSH1 0x22 PUSH1 0x4 MSTORE PUSH1 0x24 PUSH0 REVERT JUMPDEST PUSH0 PUSH1 0x2 DUP3 DIV SWAP1 POP PUSH1 0x1 DUP3 AND DUP1 PUSH2 0x29F JUMPI PUSH1 0x7F DUP3 AND SWAP2 POP JUMPDEST PUSH1 0x20 DUP3 LT DUP2 SUB PUSH2 0x2B2 JUMPI PUSH2 0x2B1 PUSH2 0x25B JUMP JUMPDEST JUMPDEST POP SWAP2 SWAP1 POP JUMP JUMPDEST PUSH0 DUP2 SWAP1 POP DUP2 PUSH0 MSTORE PUSH1 0x20 PUSH0 KECCAK256 SWAP1 POP SWAP2 SWAP1 POP JUMP JUMPDEST PUSH0 PUSH1 0x20 PUSH1 0x1F DUP4 ADD DIV SWAP1 POP SWAP2 SWAP1 POP JUMP JUMPDEST PUSH0 DUP3 DUP3 SHL SWAP1 POP SWAP3 SWAP2 POP POP JUMP JUMPDEST PUSH0 PUSH1 0x8 DUP4 MUL PUSH2 0x314 PUSH32 0xFFFFFFFFFFFFFFFFFFFFFFFFFFFFFFFFFFFFFFFFFFFFFFFFFFFFFFFFFFFFFFFF DUP3 PUSH2 0x2D9 JUMP JUMPDEST PUSH2 0x31E DUP7 DUP4 PUSH2 0x2D9 JUMP JUMPDEST SWAP6 POP DUP1 NOT DUP5 AND SWAP4 POP DUP1 DUP7 AND DUP5 OR SWAP3 POP POP POP SWAP4 SWAP3 POP POP POP JUMP JUMPDEST PUSH0 DUP2 SWAP1 POP SWAP2 SWAP1 POP JUMP JUMPDEST PUSH0 PUSH2 0x359 PUSH2 0x354 PUSH2 0x34F DUP5 PUSH2 0x1C4 JUMP JUMPDEST PUSH2 0x336 JUMP JUMPDEST PUSH2 0x1C4 JUMP JUMPDEST SWAP1 POP SWAP2 SWAP1 POP JUMP JUMPDEST PUSH0 DUP2 SWAP1 POP SWAP2 SWAP1 POP JUMP JUMPDEST PUSH2 0x372 DUP4 PUSH2 0x33F JUMP JUMPDEST PUSH2 0x386 PUSH2 0x37E DUP3 PUSH2 0x360 JUMP JUMPDEST DUP5 DUP5 SLOAD PUSH2 0x2E5 JUMP JUMPDEST DUP3 SSTORE POP POP POP POP JUMP JUMPDEST PUSH0 PUSH0 SWAP1 POP SWAP1 JUMP JUMPDEST PUSH2 0x39D PUSH2 0x38E JUMP JUMPDEST PUSH2 0x3A8 DUP2 DUP5 DUP5 PUSH2 0x369 JUMP JUMPDEST POP POP POP JUMP JUMPDEST JUMPDEST DUP2 DUP2 LT ISZERO PUSH2 0x3CB JUMPI PUSH2 0x3C0 PUSH0 DUP3 PUSH2 0x395 JUMP JUMPDEST PUSH1 0x1 DUP2 ADD SWAP1 POP PUSH2 0x3AE JUMP JUMPDEST POP POP JUMP JUMPDEST PUSH1 0x1F DUP3 GT ISZERO PUSH2 0x410 JUMPI PUSH2 0x3E1 DUP2 PUSH2 0x2B8 JUMP JUMPDEST PUSH2 0x3EA DUP5 PUSH2 0x2CA JUMP JUMPDEST DUP2 ADD PUSH1 0x20 DUP6 LT ISZERO PUSH2 0x3F9 JUMPI DUP2 SWAP1 POP JUMPDEST PUSH2 0x40D PUSH2 0x405 DUP6 PUSH2 0x2CA JUMP JUMPDEST DUP4 ADD DUP3 PUSH2 0x3AD JUMP JUMPDEST POP POP JUMPDEST POP POP POP JUMP JUMPDEST PUSH0 DUP3 DUP3 SHR SWAP1 POP SWAP3 SWAP2 POP POP JUMP JUMPDEST PUSH0 PUSH2 0x430 PUSH0 NOT DUP5 PUSH1 0x8 MUL PUSH2 0x415 JUMP JUMPDEST NOT DUP1 DUP4 AND SWAP2 POP POP SWAP3 SWAP2 POP POP JUMP JUMPDEST PUSH0 PUSH2 0x448 DUP4 DUP4 PUSH2 0x421 JUMP JUMPDEST SWAP2 POP DUP3 PUSH1 0x2 MUL DUP3 OR SWAP1 POP SWAP3 SWAP2 POP POP JUMP JUMPDEST PUSH2 0x461 DUP3 PUSH2 0x251 JUMP JUMPDEST PUSH8 0xFFFFFFFFFFFFFFFF DUP2 GT ISZERO PUSH2 0x47A JUMPI PUSH2 0x479 PUSH2 0xA0 JUMP JUMPDEST JUMPDEST PUSH2 0x484 DUP3 SLOAD PUSH2 0x288 JUMP JUMPDEST PUSH2 0x48F DUP3 DUP3 DUP6 PUSH2 0x3CF JUMP JUMPDEST PUSH0 PUSH1 0x20 SWAP1 POP PUSH1 0x1F DUP4 GT PUSH1 0x1 DUP2 EQ PUSH2 0x4C0 JUMPI PUSH0 DUP5 ISZERO PUSH2 0x4AE JUMPI DUP3 DUP8 ADD MLOAD SWAP1 POP JUMPDEST PUSH2 0x4B8 DUP6 DUP3 PUSH2 0x43D JUMP JUMPDEST DUP7 SSTORE POP PUSH2 0x51F JUMP JUMPDEST PUSH1 0x1F NOT DUP5 AND PUSH2 0x4CE DUP7 PUSH2 0x2B8 JUMP JUMPDEST PUSH0 JUMPDEST DUP3 DUP2 LT ISZERO PUSH2 0x4F5 JUMPI DUP5 DUP10 ADD MLOAD DUP3 SSTORE PUSH1 0x1 DUP3 ADD SWAP2 POP PUSH1 0x20 DUP6 ADD SWAP5 POP PUSH1 0x20 DUP2 ADD SWAP1 POP PUSH2 0x4D0 JUMP JUMPDEST DUP7 DUP4 LT ISZERO PUSH2 0x512 JUMPI DUP5 DUP10 ADD MLOAD PUSH2 0x50E PUSH1 0x1F DUP10 AND DUP3 PUSH2 0x421 JUMP JUMPDEST DUP4 SSTORE POP JUMPDEST PUSH1 0x1 PUSH1 0x2 DUP9 MUL ADD DUP9 SSTORE POP POP POP JUMPDEST POP POP POP POP POP POP JUMP JUMPDEST PUSH2 0x663 DUP1 PUSH2 0x534 PUSH0 CODECOPY PUSH0 RETURN INVALID PUSH1 0x80 PUSH1 0x40 MSTORE CALLVALUE DUP1 ISZERO PUSH2 0xF JUMPI PUSH0 PUSH0 REVERT JUMPDEST POP PUSH1 0x4 CALLDATASIZE LT PUSH2 0x3F JUMPI PUSH0 CALLDATALOAD PUSH1 0xE0 SHR DUP1 PUSH4 0x487A37D2 EQ PUSH2 0x43 JUMPI DUP1 PUSH4 0x8A054AC2 EQ PUSH2 0x5F JUMPI DUP1 PUSH4 0xB02C43D0 EQ PUSH2 0x82 JUMPI JUMPDEST PUSH0 PUSH0 REVERT JUMPDEST PUSH2 0x5D PUSH1 0x4 DUP1 CALLDATASIZE SUB DUP2 ADD SWAP1 PUSH2 0x58 SWAP2 SWAP1 PUSH2 0x28F JUMP JUMPDEST PUSH2 0x9E JUMP JUMPDEST STOP JUMPDEST PUSH2 0x67 PUSH2 0x141 JUMP JUMPDEST PUSH1 0x40 MLOAD PUSH2 0x79 SWAP7 SWAP6 SWAP5 SWAP4 SWAP3 SWAP2 SWAP1 PUSH2 0x353 JUMP JUMPDEST PUSH1 0x40 MLOAD DUP1 SWAP2 SUB SWAP1 RETURN JUMPDEST PUSH2 0x9C PUSH1 0x4 DUP1 CALLDATASIZE SUB DUP2 ADD SWAP1 PUSH2 0x97 SWAP2 SWAP1 PUSH2 0x28F JUMP JUMPDEST PUSH2 0x1FB JUMP JUMPDEST STOP JUMPDEST PUSH0 PUSH0 PUSH1 0x2 ADD SLOAD GT PUSH2 0xE4 JUMPI PUSH1 0x40 MLOAD PUSH32 0x8C379A000000000000000000000000000000000000000000000000000000000 DUP2 MSTORE PUSH1 0x4 ADD PUSH2 0xDB SWAP1 PUSH2 0x403 JUMP JUMPDEST PUSH1 0x40 MLOAD DUP1 SWAP2 SUB SWAP1 REVERT JUMPDEST PUSH0 DUP2 GT PUSH2 0x126 JUMPI PUSH1 0x40 MLOAD PUSH32 0x8C379A000000000000000000000000000000000000000000000000000000000 DUP2 MSTORE PUSH1 0x4 ADD PUSH2 0x11D SWAP1 PUSH2 0x491 JUMP JUMPDEST PUSH1 0x40 MLOAD DUP1 SWAP2 SUB SWAP1 REVERT JUMPDEST DUP1 PUSH0 PUSH1 0x2 ADD SLOAD PUSH2 0x136 SWAP2 SWAP1 PUSH2 0x4DC JUMP JUMPDEST PUSH0 PUSH1 0x2 ADD DUP2 SWAP1 SSTORE POP POP JUMP JUMPDEST PUSH0 DUP1 PUSH0 ADD DUP1 SLOAD PUSH2 0x150 SWAP1 PUSH2 0x53C JUMP JUMPDEST DUP1 PUSH1 0x1F ADD PUSH1 0x20 DUP1 SWAP2 DIV MUL PUSH1 0x20 ADD PUSH1 0x40 MLOAD SWAP1 DUP2 ADD PUSH1 0x40 MSTORE DUP1 SWAP3 SWAP2 SWAP1 DUP2 DUP2 MSTORE PUSH1 0x20 ADD DUP3 DUP1 SLOAD PUSH2 0x17C SWAP1 PUSH2 0x53C JUMP JUMPDEST DUP1 ISZERO PUSH2 0x1C7 JUMPI DUP1 PUSH1 0x1F LT PUSH2 0x19E JUMPI PUSH2 0x100 DUP1 DUP4 SLOAD DIV MUL DUP4 MSTORE SWAP2 PUSH1 0x20 ADD SWAP2 PUSH2 0x1C7 JUMP JUMPDEST DUP3 ADD SWAP2 SWAP1 PUSH0 MSTORE PUSH1 0x20 PUSH0 KECCAK256 SWAP1 JUMPDEST DUP2 SLOAD DUP2 MSTORE SWAP1 PUSH1 0x1 ADD SWAP1 PUSH1 0x20 ADD DUP1 DUP4 GT PUSH2 0x1AA JUMPI DUP3 SWAP1 SUB PUSH1 0x1F AND DUP3 ADD SWAP2 JUMPDEST POP POP POP POP POP SWAP1 DUP1 PUSH1 0x1 ADD SLOAD SWAP1 DUP1 PUSH1 0x2 ADD SLOAD SWAP1 DUP1 PUSH1 0x3 ADD SLOAD SWAP1 DUP1 PUSH1 0x4 ADD SLOAD SWAP1 DUP1 PUSH1 0x5 ADD PUSH0 SWAP1 SLOAD SWAP1 PUSH2 0x100 EXP SWAP1 DIV PUSH1 0xFF AND SWAP1 POP DUP7 JUMP JUMPDEST PUSH0 DUP2 GT PUSH2 0x23D JUMPI PUSH1 0x40 MLOAD PUSH32 0x8C379A000000000000000000000000000000000000000000000000000000000 DUP2 MSTORE PUSH1 0x4 ADD PUSH2 0x234 SWAP1 PUSH2 0x5DC JUMP JUMPDEST PUSH1 0x40 MLOAD DUP1 SWAP2 SUB SWAP1 REVERT JUMPDEST DUP1 PUSH0 PUSH1 0x2 ADD SLOAD PUSH2 0x24D SWAP2 SWAP1 PUSH2 0x5FA JUMP JUMPDEST PUSH0 PUSH1 0x2 ADD DUP2 SWAP1 SSTORE POP POP JUMP JUMPDEST PUSH0 PUSH0 REVERT JUMPDEST PUSH0 DUP2 SWAP1 POP SWAP2 SWAP1 POP JUMP JUMPDEST PUSH2 0x26E DUP2 PUSH2 0x25C JUMP JUMPDEST DUP2 EQ PUSH2 0x278 JUMPI PUSH0 PUSH0 REVERT JUMPDEST POP JUMP JUMPDEST PUSH0 DUP2 CALLDATALOAD SWAP1 POP PUSH2 0x289 DUP2 PUSH2 0x265 JUMP JUMPDEST SWAP3 SWAP2 POP POP JUMP JUMPDEST PUSH0 PUSH1 0x20 DUP3 DUP5 SUB SLT ISZERO PUSH2 0x2A4 JUMPI PUSH2 0x2A3 PUSH2 0x258 JUMP JUMPDEST JUMPDEST PUSH0 PUSH2 0x2B1 DUP5 DUP3 DUP6 ADD PUSH2 0x27B JUMP JUMPDEST SWAP2 POP POP SWAP3 SWAP2 POP POP JUMP JUMPDEST PUSH0 DUP2 MLOAD SWAP1 POP SWAP2 SWAP1 POP JUMP JUMPDEST PUSH0 DUP3 DUP3 MSTORE PUSH1 0x20 DUP3 ADD SWAP1 POP SWAP3 SWAP2 POP POP JUMP JUMPDEST DUP3 DUP2 DUP4 MCOPY PUSH0 DUP4 DUP4 ADD MSTORE POP POP POP JUMP JUMPDEST PUSH0 PUSH1 0x1F NOT PUSH1 0x1F DUP4 ADD AND SWAP1 POP SWAP2 SWAP1 POP JUMP JUMPDEST PUSH0 PUSH2 0x2FC DUP3 PUSH2 0x2BA JUMP JUMPDEST PUSH2 0x306 DUP2 DUP6 PUSH2 0x2C4 JUMP JUMPDEST SWAP4 POP PUSH2 0x316 DUP2 DUP6 PUSH1 0x20 DUP7 ADD PUSH2 0x2D4 JUMP JUMPDEST PUSH2 0x31F DUP2 PUSH2 0x2E2 JUMP JUMPDEST DUP5 ADD SWAP2 POP POP SWAP3 SWAP2 POP POP JUMP JUMPDEST PUSH2 0x333 DUP2 PUSH2 0x25C JUMP JUMPDEST DUP3 MSTORE POP POP JUMP JUMPDEST PUSH0 DUP2 ISZERO ISZERO SWAP1 POP SWAP2 SWAP1 POP JUMP JUMPDEST PUSH2 0x34D DUP2 PUSH2 0x339 JUMP JUMPDEST DUP3 MSTORE POP POP JUMP JUMPDEST PUSH0 PUSH1 0xC0 DUP3 ADD SWAP1 POP DUP2 DUP2 SUB PUSH0 DUP4 ADD MSTORE PUSH2 0x36B DUP2 DUP10 PUSH2 0x2F2 JUMP JUMPDEST SWAP1 POP PUSH2 0x37A PUSH1 0x20 DUP4 ADD DUP9 PUSH2 0x32A JUMP JUMPDEST PUSH2 0x387 PUSH1 0x40 DUP4 ADD DUP8 PUSH2 0x32A JUMP JUMPDEST PUSH2 0x394 PUSH1 0x60 DUP4 ADD DUP7 PUSH2 0x32A JUMP JUMPDEST PUSH2 0x3A1 PUSH1 0x80 DUP4 ADD DUP6 PUSH2 0x32A JUMP JUMPDEST PUSH2 0x3AE PUSH1 0xA0 DUP4 ADD DUP5 PUSH2 0x344 JUMP JUMPDEST SWAP8 SWAP7 POP POP POP POP POP POP POP JUMP JUMPDEST PUSH32 0x696E53756666696369656E742062616E6B2062616C616E636500000000000000 PUSH0 DUP3 ADD MSTORE POP JUMP JUMPDEST PUSH0 PUSH2 0x3ED PUSH1 0x19 DUP4 PUSH2 0x2C4 JUMP JUMPDEST SWAP2 POP PUSH2 0x3F8 DUP3 PUSH2 0x3B9 JUMP JUMPDEST PUSH1 0x20 DUP3 ADD SWAP1 POP SWAP2 SWAP1 POP JUMP JUMPDEST PUSH0 PUSH1 0x20 DUP3 ADD SWAP1 POP DUP2 DUP2 SUB PUSH0 DUP4 ADD MSTORE PUSH2 0x41A DUP2 PUSH2 0x3E1 JUMP JUMPDEST SWAP1 POP SWAP2 SWAP1 POP JUMP JUMPDEST PUSH32 0x7769746864726177206D6F6E6579206D75737420626520677265617465722074 PUSH0 DUP3 ADD MSTORE PUSH32 0x68616E2030000000000000000000000000000000000000000000000000000000 PUSH1 0x20 DUP3 ADD MSTORE POP JUMP JUMPDEST PUSH0 PUSH2 0x47B PUSH1 0x25 DUP4 PUSH2 0x2C4 JUMP JUMPDEST SWAP2 POP PUSH2 0x486 DUP3 PUSH2 0x421 JUMP JUMPDEST PUSH1 0x40 DUP3 ADD SWAP1 POP SWAP2 SWAP1 POP JUMP JUMPDEST PUSH0 PUSH1 0x20 DUP3 ADD SWAP1 POP DUP2 DUP2 SUB PUSH0 DUP4 ADD MSTORE PUSH2 0x4A8 DUP2 PUSH2 0x46F JUMP JUMPDEST SWAP1 POP SWAP2 SWAP1 POP JUMP JUMPDEST PUSH32 0x4E487B7100000000000000000000000000000000000000000000000000000000 PUSH0 MSTORE PUSH1 0x11 PUSH1 0x4 MSTORE PUSH1 0x24 PUSH0 REVERT JUMPDEST PUSH0 PUSH2 0x4E6 DUP3 PUSH2 0x25C JUMP JUMPDEST SWAP2 POP PUSH2 0x4F1 DUP4 PUSH2 0x25C JUMP JUMPDEST SWAP3 POP DUP3 DUP3 SUB SWAP1 POP DUP2 DUP2 GT ISZERO PUSH2 0x509 JUMPI PUSH2 0x508 PUSH2 0x4AF JUMP JUMPDEST JUMPDEST SWAP3 SWAP2 POP POP JUMP JUMPDEST PUSH32 0x4E487B7100000000000000000000000000000000000000000000000000000000 PUSH0 MSTORE PUSH1 0x22 PUSH1 0x4 MSTORE PUSH1 0x24 PUSH0 REVERT JUMPDEST PUSH0 PUSH1 0x2 DUP3 DIV SWAP1 POP PUSH1 0x1 DUP3 AND DUP1 PUSH2 0x553 JUMPI PUSH1 0x7F DUP3 AND SWAP2 POP JUMPDEST PUSH1 0x20 DUP3 LT DUP2 SUB PUSH2 0x566 JUMPI PUSH2 0x565 PUSH2 0x50F JUMP JUMPDEST JUMPDEST POP SWAP2 SWAP1 POP JUMP JUMPDEST PUSH32 0x6465706F736974206D6F6E6579206D7573742062652067726561746572207468 PUSH0 DUP3 ADD MSTORE PUSH32 0x616E203000000000000000000000000000000000000000000000000000000000 PUSH1 0x20 DUP3 ADD MSTORE POP JUMP JUMPDEST PUSH0 PUSH2 0x5C6 PUSH1 0x24 DUP4 PUSH2 0x2C4 JUMP JUMPDEST SWAP2 POP PUSH2 0x5D1 DUP3 PUSH2 0x56C JUMP JUMPDEST PUSH1 0x40 DUP3 ADD SWAP1 POP SWAP2 SWAP1 POP JUMP JUMPDEST PUSH0 PUSH1 0x20 DUP3 ADD SWAP1 POP DUP2 DUP2 SUB PUSH0 DUP4 ADD MSTORE PUSH2 0x5F3 DUP2 PUSH2 0x5BA JUMP JUMPDEST SWAP1 POP SWAP2 SWAP1 POP JUMP JUMPDEST PUSH0 PUSH2 0x604 DUP3 PUSH2 0x25C JUMP JUMPDEST SWAP2 POP PUSH2 0x60F DUP4 PUSH2 0x25C JUMP JUMPDEST SWAP3 POP DUP3 DUP3 ADD SWAP1 POP DUP1 DUP3 GT ISZERO PUSH2 0x627 JUMPI PUSH2 0x626 PUSH2 0x4AF JUMP JUMPDEST JUMPDEST SWAP3 SWAP2 POP POP JUMP INVALID LOG2 PUSH5 0x6970667358 0x22 SLT KECCAK256 PUSH25 0xAC58581D4F6CB3352ADD231150C73C6AF4D3AED3333A8E7B5D DUP13 DUP3 CALLER 0xC4 0xB9 0xEA PUSH5 0x736F6C6343 STOP ADDMOD 0x1E STOP CALLER "
				},
				"gasEstimates": {
					"creation": {
						"codeDepositCost": "327000",
						"executionCost": "infinite",
						"totalCost": "infinite"
					},
					"external": {
						"d()": "infinite",
						"deposits(uint256)": "infinite",
						"withDraws(uint256)": "infinite"
					}
				},
				"methodIdentifiers": {
					"d()": "8a054ac2",
					"deposits(uint256)": "b02c43d0",
					"withDraws(uint256)": "487a37d2"
				}
			},
			"storageLayout": {
				"storage": [
					{
						"astId": 17,
						"contract": "bankAccountRequire.sol:Bankaccount",
						"label": "d",
						"offset": 0,
						"slot": "0",
						"type": "t_struct(details)14_storage"
					}
				],
				"types": {
					"t_bool": {
						"encoding": "inplace",
						"label": "bool",
						"numberOfBytes": "1"
					},
					"t_string_storage": {
						"encoding": "bytes",
						"label": "string",
						"numberOfBytes": "32"
					},
					"t_struct(details)14_storage": {
						"encoding": "inplace",
						"label": "struct Bankaccount.details",
						"members": [
							{
								"astId": 3,
								"contract": "bankAccountRequire.sol:Bankaccount",
								"label": "BankName",
								"offset": 0,
								"slot": "0",
								"type": "t_string_storage"
							},
							{
								"astId": 5,
								"contract": "bankAccountRequire.sol:Bankaccount",
								"label": "pin",
								"offset": 0,
								"slot": "1",
								"type": "t_uint256"
							},
							{
								"astId": 7,
								"contract": "bankAccountRequire.sol:Bankaccount",
								"label": "balance",
								"offset": 0,
								"slot": "2",
								"type": "t_uint256"
							},
							{
								"astId": 9,
								"contract": "bankAccountRequire.sol:Bankaccount",
								"label": "deposit",
								"offset": 0,
								"slot": "3",
								"type": "t_uint256"
							},
							{
								"astId": 11,
								"contract": "bankAccountRequire.sol:Bankaccount",
								"label": "withdraw",
								"offset": 0,
								"slot": "4",
								"type": "t_uint256"
							},
							{
								"astId": 13,
								"contract": "bankAccountRequire.sol:Bankaccount",
								"label": "isOpen",
								"offset": 0,
								"slot": "5",
								"type": "t_bool"
							}
						],
						"numberOfBytes": "192"
					},
					"t_uint256": {
						"encoding": "inplace",
						"label": "uint256",
						"numberOfBytes": "32"
					}
				}
			},
			"userdoc": {
				"kind": "user",
				"methods": {},
				"version": 1
			}
		}
	}
}